{
  "contractName": "Cuenta",
  "abi": [
    {
      "inputs": [
        {
          "internalType": "string",
          "name": "texto",
          "type": "string"
        },
        {
          "internalType": "address",
          "name": "_factory",
          "type": "address"
        }
      ],
      "stateMutability": "nonpayable",
      "type": "constructor"
    },
    {
      "inputs": [],
      "name": "_direccion",
      "outputs": [
        {
          "internalType": "bytes32",
          "name": "",
          "type": "bytes32"
        }
      ],
      "stateMutability": "view",
      "type": "function"
    },
    {
      "inputs": [],
      "name": "factory",
      "outputs": [
        {
          "internalType": "address",
          "name": "",
          "type": "address"
        }
      ],
      "stateMutability": "view",
      "type": "function"
    },
    {
      "inputs": [
        {
          "internalType": "address",
          "name": "direccion",
          "type": "address"
        }
      ],
      "name": "almacenarVoto",
      "outputs": [],
      "stateMutability": "nonpayable",
      "type": "function"
    },
    {
      "inputs": [
        {
          "internalType": "bytes32",
          "name": "direccion",
          "type": "bytes32"
        }
      ],
      "name": "obtenerVotos",
      "outputs": [
        {
          "internalType": "uint256[]",
          "name": "",
          "type": "uint256[]"
        }
      ],
      "stateMutability": "view",
      "type": "function"
    },
    {
      "inputs": [],
      "name": "obtenerDireccion",
      "outputs": [
        {
          "internalType": "bytes32",
          "name": "",
          "type": "bytes32"
        }
      ],
      "stateMutability": "view",
      "type": "function"
    },
    {
      "inputs": [
        {
          "internalType": "address",
          "name": "direccion",
          "type": "address"
        }
      ],
      "name": "comprobarVoto",
      "outputs": [
        {
          "internalType": "bool",
          "name": "",
          "type": "bool"
        }
      ],
      "stateMutability": "view",
      "type": "function"
    }
  ],
  "bytecode": "0x60806040523480156200001157600080fd5b50604051620009af380380620009af833981810160405281019062000037919062000138565b816040516020016200004a9190620001c9565b6040516020818303038152906040528051906020012060008190555080600360006101000a81548173ffffffffffffffffffffffffffffffffffffffff021916908373ffffffffffffffffffffffffffffffffffffffff160217905550505062000351565b6000620000c6620000c0846200020b565b620001e2565b905082815260208101848484011115620000df57600080fd5b620000ec8482856200028b565b509392505050565b600081519050620001058162000337565b92915050565b600082601f8301126200011d57600080fd5b81516200012f848260208601620000af565b91505092915050565b600080604083850312156200014c57600080fd5b600083015167ffffffffffffffff8111156200016757600080fd5b62000175858286016200010b565b92505060206200018885828601620000f4565b9150509250929050565b60006200019f8262000241565b620001ab81856200024c565b9350620001bd8185602086016200028b565b80840191505092915050565b6000620001d7828462000192565b915081905092915050565b6000620001ee62000201565b9050620001fc8282620002c1565b919050565b6000604051905090565b600067ffffffffffffffff821115620002295762000228620002f7565b5b620002348262000326565b9050602081019050919050565b600081519050919050565b600081905092915050565b600062000264826200026b565b9050919050565b600073ffffffffffffffffffffffffffffffffffffffff82169050919050565b60005b83811015620002ab5780820151818401526020810190506200028e565b83811115620002bb576000848401525b50505050565b620002cc8262000326565b810181811067ffffffffffffffff82111715620002ee57620002ed620002f7565b5b80604052505050565b7f4e487b7100000000000000000000000000000000000000000000000000000000600052604160045260246000fd5b6000601f19601f8301169050919050565b620003428162000257565b81146200034e57600080fd5b50565b61064e80620003616000396000f3fe608060405234801561001057600080fd5b50600436106100625760003560e01c806316674950146100675780632dd62af4146100855780634dce507c146100b55780635e8b3152146100e557806370aad5d314610103578063c45a01551461011f575b600080fd5b61006f61013d565b60405161007c91906104c4565b60405180910390f35b61009f600480360381019061009a919061036e565b610143565b6040516100ac9190610487565b60405180910390f35b6100cf60048036038101906100ca9190610345565b6101ae565b6040516100dc91906104a9565b60405180910390f35b6100ed610204565b6040516100fa91906104c4565b60405180910390f35b61011d60048036038101906101189190610345565b61020d565b005b6101276102f5565b604051610134919061046c565b60405180910390f35b60005481565b6060600160008381526020019081526020016000208054806020026020016040519081016040528092919081815260200182805480156101a257602002820191906000526020600020905b81548152602001906001019080831161018e575b50505050509050919050565b6000600260008373ffffffffffffffffffffffffffffffffffffffff1673ffffffffffffffffffffffffffffffffffffffff16815260200190815260200160002060009054906101000a900460ff169050919050565b60008054905090565b600260008273ffffffffffffffffffffffffffffffffffffffff1673ffffffffffffffffffffffffffffffffffffffff16815260200190815260200160002060009054906101000a900460ff161561029a576040517f08c379a0000000000000000000000000000000000000000000000000000000008152600401610291906104df565b60405180910390fd5b6001600260008373ffffffffffffffffffffffffffffffffffffffff1673ffffffffffffffffffffffffffffffffffffffff16815260200190815260200160002060006101000a81548160ff02191690831515021790555050565b600360009054906101000a900473ffffffffffffffffffffffffffffffffffffffff1681565b60008135905061032a816105ea565b92915050565b60008135905061033f81610601565b92915050565b60006020828403121561035757600080fd5b60006103658482850161031b565b91505092915050565b60006020828403121561038057600080fd5b600061038e84828501610330565b91505092915050565b60006103a3838361045d565b60208301905092915050565b6103b881610549565b82525050565b60006103c98261050f565b6103d38185610527565b93506103de836104ff565b8060005b8381101561040f5781516103f68882610397565b97506104018361051a565b9250506001810190506103e2565b5085935050505092915050565b6104258161055b565b82525050565b61043481610567565b82525050565b6000610447602883610538565b91506104528261059b565b604082019050919050565b61046681610591565b82525050565b600060208201905061048160008301846103af565b92915050565b600060208201905081810360008301526104a181846103be565b905092915050565b60006020820190506104be600083018461041c565b92915050565b60006020820190506104d9600083018461042b565b92915050565b600060208201905081810360008301526104f88161043a565b9050919050565b6000819050602082019050919050565b600081519050919050565b6000602082019050919050565b600082825260208201905092915050565b600082825260208201905092915050565b600061055482610571565b9050919050565b60008115159050919050565b6000819050919050565b600073ffffffffffffffffffffffffffffffffffffffff82169050919050565b6000819050919050565b7f456c207573756172696f20796120686120766f7461646f20656e20657374612060008201527f766f746163696f6e000000000000000000000000000000000000000000000000602082015250565b6105f381610549565b81146105fe57600080fd5b50565b61060a81610567565b811461061557600080fd5b5056fea264697066735822122001ad8692370554dd2edca5d246d6c159aabbbb01f6544f4f9242d5f34139d5b364736f6c63430008040033",
  "immutableReferences": {},
  "source": "// SPDX-License-Identifier: MIT\r\npragma solidity ^0.8.4;\r\n\r\ncontract Cuenta {\r\n\r\n    bytes32 public _direccion;\r\n    // Mapeo de direccin a votos\r\n    mapping(bytes32 => uint[]) private votos;\r\n    // Mapeo de direccin a booleano para comprobar si un usuario ha votado\r\n    mapping(address => bool) private haVotado;\r\n     // Direccin del CuentaFactory\r\n    address public factory;\r\n\r\n    // Constructor que recibe una cadena de texto y la convierte en una direccin\r\n    constructor(string memory texto, address _factory) {\r\n        _direccion = keccak256(abi.encodePacked(texto));\r\n        factory = _factory; // Almacena la direccin de la factory\r\n    }\r\n\r\n    // Funcin para almacenar el voto de un usuario\r\n    function almacenarVoto(address direccion) public {\r\n        require(!haVotado[direccion], \"El usuario ya ha votado en esta votacion\");\r\n        haVotado[direccion] = true;\r\n    }\r\n\r\n    // Funcin para obtener los votos de una direccin\r\n    function obtenerVotos(bytes32 direccion) public view returns (uint[] memory) {\r\n        return votos[direccion];\r\n    }\r\n\r\n    // Funcin para obtener la direccin\r\n    function obtenerDireccion() public view returns (bytes32) {\r\n        return _direccion;\r\n    }\r\n\r\n    // Funcin para comprobar si un usuario ha votado\r\n    function comprobarVoto(address direccion) public view returns (bool) {\r\n        return haVotado[direccion];\r\n    }\r\n}\r\n",
  "sourcePath": "C:\\Users\\benja\\Desktop\\votacion\\src\\contracts\\Cuenta.sol",
  "compiler": {
    "name": "solc",
    "version": "0.8.4+commit.c7e474f2.Emscripten.clang"
  },
  "schemaVersion": "3.4.7",
  "updatedAt": "2023-11-23T14:45:08.278Z",
  "devdoc": {
    "kind": "dev",
    "methods": {},
    "version": 1
  },
  "userdoc": {
    "kind": "user",
    "methods": {},
    "version": 1
  }
}