{
  "contractName": "Cuenta",
  "abi": [
    {
      "inputs": [
        {
          "internalType": "string",
          "name": "texto",
          "type": "string"
        },
        {
          "internalType": "address",
          "name": "_factory",
          "type": "address"
        }
      ],
      "stateMutability": "nonpayable",
      "type": "constructor"
    },
    {
      "inputs": [],
      "name": "_direccion",
      "outputs": [
        {
          "internalType": "bytes32",
          "name": "",
          "type": "bytes32"
        }
      ],
      "stateMutability": "view",
      "type": "function"
    },
    {
      "inputs": [],
      "name": "factory",
      "outputs": [
        {
          "internalType": "address",
          "name": "",
          "type": "address"
        }
      ],
      "stateMutability": "view",
      "type": "function"
    },
    {
      "inputs": [
        {
          "internalType": "address",
          "name": "",
          "type": "address"
        }
      ],
      "name": "votos",
      "outputs": [
        {
          "internalType": "address",
          "name": "votacion",
          "type": "address"
        },
        {
          "internalType": "uint256",
          "name": "candidato",
          "type": "uint256"
        }
      ],
      "stateMutability": "view",
      "type": "function"
    },
    {
      "inputs": [],
      "name": "obtenerDireccion",
      "outputs": [
        {
          "internalType": "bytes32",
          "name": "",
          "type": "bytes32"
        }
      ],
      "stateMutability": "view",
      "type": "function"
    },
    {
      "inputs": [
        {
          "internalType": "address",
          "name": "direccion",
          "type": "address"
        }
      ],
      "name": "comprobarVoto",
      "outputs": [
        {
          "internalType": "bool",
          "name": "",
          "type": "bool"
        }
      ],
      "stateMutability": "view",
      "type": "function"
    },
    {
      "inputs": [
        {
          "internalType": "address",
          "name": "votacion",
          "type": "address"
        },
        {
          "internalType": "uint256",
          "name": "candidato",
          "type": "uint256"
        }
      ],
      "name": "votar",
      "outputs": [],
      "stateMutability": "nonpayable",
      "type": "function"
    }
  ],
  "bytecode": "0x60806040523480156200001157600080fd5b506040516200098c3803806200098c833981810160405281019062000037919062000138565b816040516020016200004a9190620001c9565b6040516020818303038152906040528051906020012060008190555080600260006101000a81548173ffffffffffffffffffffffffffffffffffffffff021916908373ffffffffffffffffffffffffffffffffffffffff160217905550505062000351565b6000620000c6620000c0846200020b565b620001e2565b905082815260208101848484011115620000df57600080fd5b620000ec8482856200028b565b509392505050565b600081519050620001058162000337565b92915050565b600082601f8301126200011d57600080fd5b81516200012f848260208601620000af565b91505092915050565b600080604083850312156200014c57600080fd5b600083015167ffffffffffffffff8111156200016757600080fd5b62000175858286016200010b565b92505060206200018885828601620000f4565b9150509250929050565b60006200019f8262000241565b620001ab81856200024c565b9350620001bd8185602086016200028b565b80840191505092915050565b6000620001d7828462000192565b915081905092915050565b6000620001ee62000201565b9050620001fc8282620002c1565b919050565b6000604051905090565b600067ffffffffffffffff821115620002295762000228620002f7565b5b620002348262000326565b9050602081019050919050565b600081519050919050565b600081905092915050565b600062000264826200026b565b9050919050565b600073ffffffffffffffffffffffffffffffffffffffff82169050919050565b60005b83811015620002ab5780820151818401526020810190506200028e565b83811115620002bb576000848401525b50505050565b620002cc8262000326565b810181811067ffffffffffffffff82111715620002ee57620002ed620002f7565b5b80604052505050565b7f4e487b7100000000000000000000000000000000000000000000000000000000600052604160045260246000fd5b6000601f19601f8301169050919050565b620003428162000257565b81146200034e57600080fd5b50565b61062b80620003616000396000f3fe608060405234801561001057600080fd5b50600436106100625760003560e01c806316674950146100675780634dce507c146100855780635e8b3152146100b5578063835c4329146100d3578063996ee408146100ef578063c45a015514610120575b600080fd5b61006f61013e565b60405161007c9190610500565b60405180910390f35b61009f600480360381019061009a91906103dd565b610144565b6040516100ac91906104e5565b60405180910390f35b6100bd61019a565b6040516100ca9190610500565b60405180910390f35b6100ed60048036038101906100e89190610406565b6101a3565b005b610109600480360381019061010491906103dd565b610349565b6040516101179291906104bc565b60405180910390f35b61012861038d565b60405161013591906104a1565b60405180910390f35b60005481565b6000600160008373ffffffffffffffffffffffffffffffffffffffff1673ffffffffffffffffffffffffffffffffffffffff16815260200190815260200160002060009054906101000a900460ff169050919050565b60008054905090565b600160003373ffffffffffffffffffffffffffffffffffffffff1673ffffffffffffffffffffffffffffffffffffffff16815260200190815260200160002060009054906101000a900460ff1615610230576040517f08c379a00000000000000000000000000000000000000000000000000000000081526004016102279061051b565b60405180910390fd5b60018060008473ffffffffffffffffffffffffffffffffffffffff1673ffffffffffffffffffffffffffffffffffffffff16815260200190815260200160002060006101000a81548160ff02191690831515021790555060405180604001604052808373ffffffffffffffffffffffffffffffffffffffff16815260200182815250600360003373ffffffffffffffffffffffffffffffffffffffff1673ffffffffffffffffffffffffffffffffffffffff16815260200190815260200160002060008201518160000160006101000a81548173ffffffffffffffffffffffffffffffffffffffff021916908373ffffffffffffffffffffffffffffffffffffffff160217905550602082015181600101559050505050565b60036020528060005260406000206000915090508060000160009054906101000a900473ffffffffffffffffffffffffffffffffffffffff16908060010154905082565b600260009054906101000a900473ffffffffffffffffffffffffffffffffffffffff1681565b6000813590506103c2816105c7565b92915050565b6000813590506103d7816105de565b92915050565b6000602082840312156103ef57600080fd5b60006103fd848285016103b3565b91505092915050565b6000806040838503121561041957600080fd5b6000610427858286016103b3565b9250506020610438858286016103c8565b9150509250929050565b61044b8161054c565b82525050565b61045a8161055e565b82525050565b6104698161056a565b82525050565b600061047c60188361053b565b91506104878261059e565b602082019050919050565b61049b81610594565b82525050565b60006020820190506104b66000830184610442565b92915050565b60006040820190506104d16000830185610442565b6104de6020830184610492565b9392505050565b60006020820190506104fa6000830184610451565b92915050565b60006020820190506105156000830184610460565b92915050565b600060208201905081810360008301526105348161046f565b9050919050565b600082825260208201905092915050565b600061055782610574565b9050919050565b60008115159050919050565b6000819050919050565b600073ffffffffffffffffffffffffffffffffffffffff82169050919050565b6000819050919050565b7f456c207573756172696f20796120686120766f7461646f2e0000000000000000600082015250565b6105d08161054c565b81146105db57600080fd5b50565b6105e781610594565b81146105f257600080fd5b5056fea2646970667358221220d469baf2758cf71a8a84207e8adb198d75ec859f233542378232e00839fb7f3364736f6c63430008040033",
  "immutableReferences": {},
  "source": "// SPDX-License-Identifier: MIT\r\npragma solidity ^0.8.4;\r\n\r\ncontract Cuenta {\r\n\r\n    bytes32 public _direccion;\r\n    // Mapeo de direccin a votos\r\n    // Mapeo de direccin a booleano para comprobar si un usuario ha votado\r\n    mapping(address => bool) private haVotado;\r\n     // Direccin del CuentaFactory\r\n    address public factory;\r\n\r\n    struct Voto {\r\n        address votacion;\r\n        uint candidato;\r\n    }\r\n\r\n    mapping(address => Voto) public votos;\r\n\r\n\r\n    // Constructor que recibe una cadena de texto y la convierte en una direccin\r\n    constructor(string memory texto, address _factory) {\r\n        _direccion = keccak256(abi.encodePacked(texto));\r\n        factory = _factory; // Almacena la direccin de la factory\r\n    }\r\n\r\n    // Funcin para obtener la direccin\r\n    function obtenerDireccion() public view returns (bytes32) {\r\n        return _direccion;\r\n    }\r\n\r\n    // Funcin para comprobar si un usuario ha votado\r\n    function comprobarVoto(address direccion) public view returns (bool) {\r\n        return haVotado[direccion];\r\n    }\r\n\r\n    function votar(address votacion, uint candidato) public {\r\n        require(!haVotado[msg.sender], \"El usuario ya ha votado.\");\r\n        haVotado[votacion] = true;\r\n        votos[msg.sender] = Voto(votacion, candidato);\r\n    }\r\n\r\n}\r\n",
  "sourcePath": "C:\\Users\\benja\\Desktop\\votacion\\src\\contracts\\Cuenta.sol",
  "compiler": {
    "name": "solc",
    "version": "0.8.4+commit.c7e474f2.Emscripten.clang"
  },
  "schemaVersion": "3.4.7",
  "updatedAt": "2023-11-24T14:27:41.261Z",
  "devdoc": {
    "kind": "dev",
    "methods": {},
    "version": 1
  },
  "userdoc": {
    "kind": "user",
    "methods": {},
    "version": 1
  }
}