{
  "contractName": "CuentaFactory",
  "abi": [
    {
      "inputs": [
        {
          "internalType": "uint256",
          "name": "",
          "type": "uint256"
        }
      ],
      "name": "cuentas",
      "outputs": [
        {
          "internalType": "contract Cuenta",
          "name": "",
          "type": "address"
        }
      ],
      "stateMutability": "view",
      "type": "function",
      "constant": true
    },
    {
      "inputs": [],
      "name": "ultimoIndice",
      "outputs": [
        {
          "internalType": "uint256",
          "name": "",
          "type": "uint256"
        }
      ],
      "stateMutability": "view",
      "type": "function",
      "constant": true
    },
    {
      "inputs": [
        {
          "internalType": "string",
          "name": "texto",
          "type": "string"
        }
      ],
      "name": "crearCuenta",
      "outputs": [],
      "stateMutability": "nonpayable",
      "type": "function"
    },
    {
      "inputs": [
        {
          "internalType": "uint256",
          "name": "indice",
          "type": "uint256"
        }
      ],
      "name": "obtenerCuenta",
      "outputs": [
        {
          "internalType": "contract Cuenta",
          "name": "",
          "type": "address"
        }
      ],
      "stateMutability": "view",
      "type": "function",
      "constant": true
    },
    {
      "inputs": [
        {
          "internalType": "uint256",
          "name": "indice",
          "type": "uint256"
        }
      ],
      "name": "obtenerDireccion",
      "outputs": [
        {
          "internalType": "bytes32",
          "name": "",
          "type": "bytes32"
        }
      ],
      "stateMutability": "view",
      "type": "function",
      "constant": true
    }
  ],
  "bytecode": "0x6080604052600060015534801561001557600080fd5b506111c0806100256000396000f3fe60806040523480156200001157600080fd5b50600436106200005e5760003560e01c806319976e5a146200006357806394a2b0b01462000083578063ae8110e714620000b9578063d8f302d314620000db578063fbba4c5c1462000111575b600080fd5b6200008160048036038101906200007b919062000403565b62000147565b005b620000a160048036038101906200009b919062000448565b620001f7565b604051620000b0919062000516565b60405180910390f35b620000c36200022a565b604051620000d2919062000567565b60405180910390f35b620000f96004803603810190620000f3919062000448565b62000230565b60405162000108919062000516565b60405180910390f35b6200012f600480360381019062000129919062000448565b6200026c565b6040516200013e9190620004f9565b60405180910390f35b60008130604051620001599062000329565b6200016692919062000533565b604051809103906000f08015801562000183573d6000803e3d6000fd5b50905080600080600154815260200190815260200160002060006101000a81548173ffffffffffffffffffffffffffffffffffffffff021916908373ffffffffffffffffffffffffffffffffffffffff16021790555060016000815480929190620001ee90620006ea565b91905055505050565b60006020528060005260406000206000915054906101000a900473ffffffffffffffffffffffffffffffffffffffff1681565b60015481565b600080600083815260200190815260200160002060009054906101000a900473ffffffffffffffffffffffffffffffffffffffff169050919050565b600080600083815260200190815260200160002060009054906101000a900473ffffffffffffffffffffffffffffffffffffffff1673ffffffffffffffffffffffffffffffffffffffff1663166749506040518163ffffffff1660e01b815260040160206040518083038186803b158015620002e757600080fd5b505afa158015620002fc573d6000803e3d6000fd5b505050506040513d601f19601f82011682018060405250810190620003229190620003d7565b9050919050565b6109af80620007dc83390190565b60006200034e6200034884620005ad565b62000584565b9050828152602081018484840111156200036757600080fd5b620003748482856200066f565b509392505050565b6000815190506200038d81620007a7565b92915050565b600082601f830112620003a557600080fd5b8135620003b784826020860162000337565b91505092915050565b600081359050620003d181620007c1565b92915050565b600060208284031215620003ea57600080fd5b6000620003fa848285016200037c565b91505092915050565b6000602082840312156200041657600080fd5b600082013567ffffffffffffffff8111156200043157600080fd5b6200043f8482850162000393565b91505092915050565b6000602082840312156200045b57600080fd5b60006200046b84828501620003c0565b91505092915050565b6200047f81620005ff565b82525050565b620004908162000613565b82525050565b620004a18162000647565b82525050565b6000620004b482620005e3565b620004c08185620005ee565b9350620004d28185602086016200067e565b620004dd8162000796565b840191505092915050565b620004f3816200063d565b82525050565b600060208201905062000510600083018462000485565b92915050565b60006020820190506200052d600083018462000496565b92915050565b600060408201905081810360008301526200054f8185620004a7565b905062000560602083018462000474565b9392505050565b60006020820190506200057e6000830184620004e8565b92915050565b600062000590620005a3565b90506200059e8282620006b4565b919050565b6000604051905090565b600067ffffffffffffffff821115620005cb57620005ca62000767565b5b620005d68262000796565b9050602081019050919050565b600081519050919050565b600082825260208201905092915050565b60006200060c826200061d565b9050919050565b6000819050919050565b600073ffffffffffffffffffffffffffffffffffffffff82169050919050565b6000819050919050565b600062000654826200065b565b9050919050565b600062000668826200061d565b9050919050565b82818337600083830152505050565b60005b838110156200069e57808201518184015260208101905062000681565b83811115620006ae576000848401525b50505050565b620006bf8262000796565b810181811067ffffffffffffffff82111715620006e157620006e062000767565b5b80604052505050565b6000620006f7826200063d565b91507fffffffffffffffffffffffffffffffffffffffffffffffffffffffffffffffff8214156200072d576200072c62000738565b5b600182019050919050565b7f4e487b7100000000000000000000000000000000000000000000000000000000600052601160045260246000fd5b7f4e487b7100000000000000000000000000000000000000000000000000000000600052604160045260246000fd5b6000601f19601f8301169050919050565b620007b28162000613565b8114620007be57600080fd5b50565b620007cc816200063d565b8114620007d857600080fd5b5056fe60806040523480156200001157600080fd5b50604051620009af380380620009af833981810160405281019062000037919062000138565b816040516020016200004a9190620001c9565b6040516020818303038152906040528051906020012060008190555080600360006101000a81548173ffffffffffffffffffffffffffffffffffffffff021916908373ffffffffffffffffffffffffffffffffffffffff160217905550505062000351565b6000620000c6620000c0846200020b565b620001e2565b905082815260208101848484011115620000df57600080fd5b620000ec8482856200028b565b509392505050565b600081519050620001058162000337565b92915050565b600082601f8301126200011d57600080fd5b81516200012f848260208601620000af565b91505092915050565b600080604083850312156200014c57600080fd5b600083015167ffffffffffffffff8111156200016757600080fd5b62000175858286016200010b565b92505060206200018885828601620000f4565b9150509250929050565b60006200019f8262000241565b620001ab81856200024c565b9350620001bd8185602086016200028b565b80840191505092915050565b6000620001d7828462000192565b915081905092915050565b6000620001ee62000201565b9050620001fc8282620002c1565b919050565b6000604051905090565b600067ffffffffffffffff821115620002295762000228620002f7565b5b620002348262000326565b9050602081019050919050565b600081519050919050565b600081905092915050565b600062000264826200026b565b9050919050565b600073ffffffffffffffffffffffffffffffffffffffff82169050919050565b60005b83811015620002ab5780820151818401526020810190506200028e565b83811115620002bb576000848401525b50505050565b620002cc8262000326565b810181811067ffffffffffffffff82111715620002ee57620002ed620002f7565b5b80604052505050565b7f4e487b7100000000000000000000000000000000000000000000000000000000600052604160045260246000fd5b6000601f19601f8301169050919050565b620003428162000257565b81146200034e57600080fd5b50565b61064e80620003616000396000f3fe608060405234801561001057600080fd5b50600436106100625760003560e01c806316674950146100675780632dd62af4146100855780634dce507c146100b55780635e8b3152146100e557806370aad5d314610103578063c45a01551461011f575b600080fd5b61006f61013d565b60405161007c91906104c4565b60405180910390f35b61009f600480360381019061009a919061036e565b610143565b6040516100ac9190610487565b60405180910390f35b6100cf60048036038101906100ca9190610345565b6101ae565b6040516100dc91906104a9565b60405180910390f35b6100ed610204565b6040516100fa91906104c4565b60405180910390f35b61011d60048036038101906101189190610345565b61020d565b005b6101276102f5565b604051610134919061046c565b60405180910390f35b60005481565b6060600160008381526020019081526020016000208054806020026020016040519081016040528092919081815260200182805480156101a257602002820191906000526020600020905b81548152602001906001019080831161018e575b50505050509050919050565b6000600260008373ffffffffffffffffffffffffffffffffffffffff1673ffffffffffffffffffffffffffffffffffffffff16815260200190815260200160002060009054906101000a900460ff169050919050565b60008054905090565b600260008273ffffffffffffffffffffffffffffffffffffffff1673ffffffffffffffffffffffffffffffffffffffff16815260200190815260200160002060009054906101000a900460ff161561029a576040517f08c379a0000000000000000000000000000000000000000000000000000000008152600401610291906104df565b60405180910390fd5b6001600260008373ffffffffffffffffffffffffffffffffffffffff1673ffffffffffffffffffffffffffffffffffffffff16815260200190815260200160002060006101000a81548160ff02191690831515021790555050565b600360009054906101000a900473ffffffffffffffffffffffffffffffffffffffff1681565b60008135905061032a816105ea565b92915050565b60008135905061033f81610601565b92915050565b60006020828403121561035757600080fd5b60006103658482850161031b565b91505092915050565b60006020828403121561038057600080fd5b600061038e84828501610330565b91505092915050565b60006103a3838361045d565b60208301905092915050565b6103b881610549565b82525050565b60006103c98261050f565b6103d38185610527565b93506103de836104ff565b8060005b8381101561040f5781516103f68882610397565b97506104018361051a565b9250506001810190506103e2565b5085935050505092915050565b6104258161055b565b82525050565b61043481610567565b82525050565b6000610447602883610538565b91506104528261059b565b604082019050919050565b61046681610591565b82525050565b600060208201905061048160008301846103af565b92915050565b600060208201905081810360008301526104a181846103be565b905092915050565b60006020820190506104be600083018461041c565b92915050565b60006020820190506104d9600083018461042b565b92915050565b600060208201905081810360008301526104f88161043a565b9050919050565b6000819050602082019050919050565b600081519050919050565b6000602082019050919050565b600082825260208201905092915050565b600082825260208201905092915050565b600061055482610571565b9050919050565b60008115159050919050565b6000819050919050565b600073ffffffffffffffffffffffffffffffffffffffff82169050919050565b6000819050919050565b7f456c207573756172696f20796120686120766f7461646f20656e20657374612060008201527f766f746163696f6e000000000000000000000000000000000000000000000000602082015250565b6105f381610549565b81146105fe57600080fd5b50565b61060a81610567565b811461061557600080fd5b5056fea264697066735822122001ad8692370554dd2edca5d246d6c159aabbbb01f6544f4f9242d5f34139d5b364736f6c63430008040033a26469706673582212205ab3bdc5e8b27bc86559fa2be3e18ee51640e26467c72ba0c13eebbb0c0ee7d264736f6c63430008040033",
  "immutableReferences": {},
  "source": "// SPDX-License-Identifier: MIT\r\npragma solidity ^0.8.4;\r\n\r\nimport \"./Cuenta.sol\";\r\n\r\ncontract CuentaFactory {\r\n    // Mapeo de ndice a contratos\r\n    mapping(uint => Cuenta) public cuentas;\r\n    uint public ultimoIndice = 0;\r\n\r\n    // Funcin para crear un nuevo contrato Cuenta\r\n    function crearCuenta(string memory texto) public {\r\n        Cuenta cuenta = new Cuenta(texto, address(this));\r\n        cuentas[ultimoIndice] = cuenta;\r\n        ultimoIndice++;\r\n    }\r\n\r\n    // Funcin para obtener la direccin de un contrato Cuenta\r\n    function obtenerCuenta(uint indice) public view returns (Cuenta) {\r\n        return cuentas[indice];\r\n    }\r\n\r\n    // Funcin para obtener el valor de _direccion de un contrato Cuenta\r\n    function obtenerDireccion(uint indice) public view returns (bytes32) {\r\n        return cuentas[indice]._direccion();\r\n    }\r\n}",
  "sourcePath": "C:\\Users\\benja\\Desktop\\votacion\\src\\contracts\\CuentaFactory.sol",
  "compiler": {
    "name": "solc",
    "version": "0.8.4+commit.c7e474f2.Emscripten.clang"
  },
  "schemaVersion": "3.4.7",
  "updatedAt": "2023-11-23T14:45:08.886Z",
  "networkType": "ethereum",
  "devdoc": {
    "kind": "dev",
    "methods": {},
    "version": 1
  },
  "userdoc": {
    "kind": "user",
    "methods": {},
    "version": 1
  }
}