{
  "contractName": "CuentaFactory",
  "abi": [
    {
      "inputs": [
        {
          "internalType": "uint256",
          "name": "",
          "type": "uint256"
        }
      ],
      "name": "cuentas",
      "outputs": [
        {
          "internalType": "contract Cuenta",
          "name": "",
          "type": "address"
        }
      ],
      "stateMutability": "view",
      "type": "function",
      "constant": true
    },
    {
      "inputs": [
        {
          "internalType": "bytes32",
          "name": "",
          "type": "bytes32"
        }
      ],
      "name": "direcciones",
      "outputs": [
        {
          "internalType": "address",
          "name": "",
          "type": "address"
        }
      ],
      "stateMutability": "view",
      "type": "function",
      "constant": true
    },
    {
      "inputs": [],
      "name": "ultimoIndice",
      "outputs": [
        {
          "internalType": "uint256",
          "name": "",
          "type": "uint256"
        }
      ],
      "stateMutability": "view",
      "type": "function",
      "constant": true
    },
    {
      "inputs": [
        {
          "internalType": "string",
          "name": "texto",
          "type": "string"
        }
      ],
      "name": "crearCuenta",
      "outputs": [],
      "stateMutability": "nonpayable",
      "type": "function"
    },
    {
      "inputs": [
        {
          "internalType": "uint256",
          "name": "indice",
          "type": "uint256"
        }
      ],
      "name": "obtenerCuenta",
      "outputs": [
        {
          "internalType": "contract Cuenta",
          "name": "",
          "type": "address"
        }
      ],
      "stateMutability": "view",
      "type": "function",
      "constant": true
    },
    {
      "inputs": [
        {
          "internalType": "uint256",
          "name": "indice",
          "type": "uint256"
        }
      ],
      "name": "obtenerDireccion",
      "outputs": [
        {
          "internalType": "bytes32",
          "name": "",
          "type": "bytes32"
        }
      ],
      "stateMutability": "view",
      "type": "function",
      "constant": true
    },
    {
      "inputs": [
        {
          "internalType": "bytes32",
          "name": "_direccion",
          "type": "bytes32"
        }
      ],
      "name": "obtenerDireccionContrato",
      "outputs": [
        {
          "internalType": "address",
          "name": "",
          "type": "address"
        }
      ],
      "stateMutability": "view",
      "type": "function",
      "constant": true
    }
  ],
  "bytecode": "0x6080604052600060025534801561001557600080fd5b506113d6806100256000396000f3fe60806040523480156200001157600080fd5b5060043610620000885760003560e01c8063ae8110e71162000063578063ae8110e71462000119578063d8f302d3146200013b578063dda150c41462000171578063fbba4c5c14620001a75762000088565b806319976e5a146200008d5780638e1be8be14620000ad57806394a2b0b014620000e3575b600080fd5b620000ab6004803603810190620000a591906200061f565b620001dd565b005b620000cb6004803603810190620000c59190620005c7565b62000360565b604051620000da919062000715565b60405180910390f35b620001016004803603810190620000fb919062000664565b6200039d565b6040516200011091906200074f565b60405180910390f35b62000123620003d0565b604051620001329190620007a0565b60405180910390f35b62000159600480360381019062000153919062000664565b620003d6565b6040516200016891906200074f565b60405180910390f35b6200018f6004803603810190620001899190620005c7565b62000412565b6040516200019e919062000715565b60405180910390f35b620001c56004803603810190620001bf919062000664565b62000445565b604051620001d4919062000732565b60405180910390f35b60008130604051620001ef9062000502565b620001fc9291906200076c565b604051809103906000f08015801562000219573d6000803e3d6000fd5b50905080600080600254815260200190815260200160002060006101000a81548173ffffffffffffffffffffffffffffffffffffffff021916908373ffffffffffffffffffffffffffffffffffffffff16021790555080600160008373ffffffffffffffffffffffffffffffffffffffff1663166749506040518163ffffffff1660e01b815260040160206040518083038186803b158015620002bb57600080fd5b505afa158015620002d0573d6000803e3d6000fd5b505050506040513d601f19601f82011682018060405250810190620002f69190620005f3565b815260200190815260200160002060006101000a81548173ffffffffffffffffffffffffffffffffffffffff021916908373ffffffffffffffffffffffffffffffffffffffff16021790555060026000815480929190620003579062000923565b91905055505050565b60006001600083815260200190815260200160002060009054906101000a900473ffffffffffffffffffffffffffffffffffffffff169050919050565b60006020528060005260406000206000915054906101000a900473ffffffffffffffffffffffffffffffffffffffff1681565b60025481565b600080600083815260200190815260200160002060009054906101000a900473ffffffffffffffffffffffffffffffffffffffff169050919050565b60016020528060005260406000206000915054906101000a900473ffffffffffffffffffffffffffffffffffffffff1681565b600080600083815260200190815260200160002060009054906101000a900473ffffffffffffffffffffffffffffffffffffffff1673ffffffffffffffffffffffffffffffffffffffff1663166749506040518163ffffffff1660e01b815260040160206040518083038186803b158015620004c057600080fd5b505afa158015620004d5573d6000803e3d6000fd5b505050506040513d601f19601f82011682018060405250810190620004fb9190620005f3565b9050919050565b61098c8062000a1583390190565b6000620005276200052184620007e6565b620007bd565b9050828152602081018484840111156200054057600080fd5b6200054d848285620008a8565b509392505050565b6000813590506200056681620009e0565b92915050565b6000815190506200057d81620009e0565b92915050565b600082601f8301126200059557600080fd5b8135620005a784826020860162000510565b91505092915050565b600081359050620005c181620009fa565b92915050565b600060208284031215620005da57600080fd5b6000620005ea8482850162000555565b91505092915050565b6000602082840312156200060657600080fd5b600062000616848285016200056c565b91505092915050565b6000602082840312156200063257600080fd5b600082013567ffffffffffffffff8111156200064d57600080fd5b6200065b8482850162000583565b91505092915050565b6000602082840312156200067757600080fd5b60006200068784828501620005b0565b91505092915050565b6200069b8162000838565b82525050565b620006ac816200084c565b82525050565b620006bd8162000880565b82525050565b6000620006d0826200081c565b620006dc818562000827565b9350620006ee818560208601620008b7565b620006f981620009cf565b840191505092915050565b6200070f8162000876565b82525050565b60006020820190506200072c600083018462000690565b92915050565b6000602082019050620007496000830184620006a1565b92915050565b6000602082019050620007666000830184620006b2565b92915050565b60006040820190508181036000830152620007888185620006c3565b905062000799602083018462000690565b9392505050565b6000602082019050620007b7600083018462000704565b92915050565b6000620007c9620007dc565b9050620007d78282620008ed565b919050565b6000604051905090565b600067ffffffffffffffff821115620008045762000803620009a0565b5b6200080f82620009cf565b9050602081019050919050565b600081519050919050565b600082825260208201905092915050565b6000620008458262000856565b9050919050565b6000819050919050565b600073ffffffffffffffffffffffffffffffffffffffff82169050919050565b6000819050919050565b60006200088d8262000894565b9050919050565b6000620008a18262000856565b9050919050565b82818337600083830152505050565b60005b83811015620008d7578082015181840152602081019050620008ba565b83811115620008e7576000848401525b50505050565b620008f882620009cf565b810181811067ffffffffffffffff821117156200091a5762000919620009a0565b5b80604052505050565b6000620009308262000876565b91507fffffffffffffffffffffffffffffffffffffffffffffffffffffffffffffffff82141562000966576200096562000971565b5b600182019050919050565b7f4e487b7100000000000000000000000000000000000000000000000000000000600052601160045260246000fd5b7f4e487b7100000000000000000000000000000000000000000000000000000000600052604160045260246000fd5b6000601f19601f8301169050919050565b620009eb816200084c565b8114620009f757600080fd5b50565b62000a058162000876565b811462000a1157600080fd5b5056fe60806040523480156200001157600080fd5b506040516200098c3803806200098c833981810160405281019062000037919062000138565b816040516020016200004a9190620001c9565b6040516020818303038152906040528051906020012060008190555080600260006101000a81548173ffffffffffffffffffffffffffffffffffffffff021916908373ffffffffffffffffffffffffffffffffffffffff160217905550505062000351565b6000620000c6620000c0846200020b565b620001e2565b905082815260208101848484011115620000df57600080fd5b620000ec8482856200028b565b509392505050565b600081519050620001058162000337565b92915050565b600082601f8301126200011d57600080fd5b81516200012f848260208601620000af565b91505092915050565b600080604083850312156200014c57600080fd5b600083015167ffffffffffffffff8111156200016757600080fd5b62000175858286016200010b565b92505060206200018885828601620000f4565b9150509250929050565b60006200019f8262000241565b620001ab81856200024c565b9350620001bd8185602086016200028b565b80840191505092915050565b6000620001d7828462000192565b915081905092915050565b6000620001ee62000201565b9050620001fc8282620002c1565b919050565b6000604051905090565b600067ffffffffffffffff821115620002295762000228620002f7565b5b620002348262000326565b9050602081019050919050565b600081519050919050565b600081905092915050565b600062000264826200026b565b9050919050565b600073ffffffffffffffffffffffffffffffffffffffff82169050919050565b60005b83811015620002ab5780820151818401526020810190506200028e565b83811115620002bb576000848401525b50505050565b620002cc8262000326565b810181811067ffffffffffffffff82111715620002ee57620002ed620002f7565b5b80604052505050565b7f4e487b7100000000000000000000000000000000000000000000000000000000600052604160045260246000fd5b6000601f19601f8301169050919050565b620003428162000257565b81146200034e57600080fd5b50565b61062b80620003616000396000f3fe608060405234801561001057600080fd5b50600436106100625760003560e01c806316674950146100675780634dce507c146100855780635e8b3152146100b5578063835c4329146100d3578063996ee408146100ef578063c45a015514610120575b600080fd5b61006f61013e565b60405161007c9190610500565b60405180910390f35b61009f600480360381019061009a91906103dd565b610144565b6040516100ac91906104e5565b60405180910390f35b6100bd61019a565b6040516100ca9190610500565b60405180910390f35b6100ed60048036038101906100e89190610406565b6101a3565b005b610109600480360381019061010491906103dd565b610349565b6040516101179291906104bc565b60405180910390f35b61012861038d565b60405161013591906104a1565b60405180910390f35b60005481565b6000600160008373ffffffffffffffffffffffffffffffffffffffff1673ffffffffffffffffffffffffffffffffffffffff16815260200190815260200160002060009054906101000a900460ff169050919050565b60008054905090565b600160003373ffffffffffffffffffffffffffffffffffffffff1673ffffffffffffffffffffffffffffffffffffffff16815260200190815260200160002060009054906101000a900460ff1615610230576040517f08c379a00000000000000000000000000000000000000000000000000000000081526004016102279061051b565b60405180910390fd5b60018060008473ffffffffffffffffffffffffffffffffffffffff1673ffffffffffffffffffffffffffffffffffffffff16815260200190815260200160002060006101000a81548160ff02191690831515021790555060405180604001604052808373ffffffffffffffffffffffffffffffffffffffff16815260200182815250600360003373ffffffffffffffffffffffffffffffffffffffff1673ffffffffffffffffffffffffffffffffffffffff16815260200190815260200160002060008201518160000160006101000a81548173ffffffffffffffffffffffffffffffffffffffff021916908373ffffffffffffffffffffffffffffffffffffffff160217905550602082015181600101559050505050565b60036020528060005260406000206000915090508060000160009054906101000a900473ffffffffffffffffffffffffffffffffffffffff16908060010154905082565b600260009054906101000a900473ffffffffffffffffffffffffffffffffffffffff1681565b6000813590506103c2816105c7565b92915050565b6000813590506103d7816105de565b92915050565b6000602082840312156103ef57600080fd5b60006103fd848285016103b3565b91505092915050565b6000806040838503121561041957600080fd5b6000610427858286016103b3565b9250506020610438858286016103c8565b9150509250929050565b61044b8161054c565b82525050565b61045a8161055e565b82525050565b6104698161056a565b82525050565b600061047c60188361053b565b91506104878261059e565b602082019050919050565b61049b81610594565b82525050565b60006020820190506104b66000830184610442565b92915050565b60006040820190506104d16000830185610442565b6104de6020830184610492565b9392505050565b60006020820190506104fa6000830184610451565b92915050565b60006020820190506105156000830184610460565b92915050565b600060208201905081810360008301526105348161046f565b9050919050565b600082825260208201905092915050565b600061055782610574565b9050919050565b60008115159050919050565b6000819050919050565b600073ffffffffffffffffffffffffffffffffffffffff82169050919050565b6000819050919050565b7f456c207573756172696f20796120686120766f7461646f2e0000000000000000600082015250565b6105d08161054c565b81146105db57600080fd5b50565b6105e781610594565b81146105f257600080fd5b5056fea2646970667358221220d469baf2758cf71a8a84207e8adb198d75ec859f233542378232e00839fb7f3364736f6c63430008040033a2646970667358221220dd8a1b4a01372233aca187a9debcd0572a57205963ee023621e74bfd685f5e7464736f6c63430008040033",
  "immutableReferences": {},
  "source": "// SPDX-License-Identifier: MIT\r\npragma solidity ^0.8.4;\r\n\r\nimport \"./Cuenta.sol\";\r\n\r\ncontract CuentaFactory {\r\n    // Mapeo de ndice a contratos\r\n    mapping(uint => Cuenta) public cuentas;\r\n    // Mapeo de _direccion a direccin del contrato\r\n    mapping(bytes32 => address) public direcciones;\r\n    uint public ultimoIndice = 0;\r\n\r\n    // Funcin para crear un nuevo contrato Cuenta\r\n    function crearCuenta(string memory texto) public {\r\n        Cuenta cuenta = new Cuenta(texto, address(this));\r\n        cuentas[ultimoIndice] = cuenta;\r\n        direcciones[cuenta._direccion()] = address(cuenta);\r\n        ultimoIndice++;\r\n    }\r\n\r\n    // Funcin para obtener la direccin de un contrato Cuenta\r\n    function obtenerCuenta(uint indice) public view returns (Cuenta) {\r\n        return cuentas[indice];\r\n    }\r\n\r\n    // Funcin para obtener el valor de _direccion de un contrato Cuenta\r\n    function obtenerDireccion(uint indice) public view returns (bytes32) {\r\n        return cuentas[indice]._direccion();\r\n    }\r\n\r\n    // Funcin para obtener la direccin del contrato de una _direccion\r\n    function obtenerDireccionContrato(bytes32 _direccion) public view returns (address) {\r\n        return direcciones[_direccion];\r\n    }\r\n}\r\n",
  "sourcePath": "C:\\Users\\benja\\Desktop\\votacion\\src\\contracts\\CuentaFactory.sol",
  "compiler": {
    "name": "solc",
    "version": "0.8.4+commit.c7e474f2.Emscripten.clang"
  },
  "schemaVersion": "3.4.7",
  "updatedAt": "2023-11-24T14:27:41.890Z",
  "networkType": "ethereum",
  "devdoc": {
    "kind": "dev",
    "methods": {},
    "version": 1
  },
  "userdoc": {
    "kind": "user",
    "methods": {},
    "version": 1
  }
}