{
  "contractName": "Cuenta",
  "abi": [
    {
      "inputs": [
        {
          "internalType": "string",
          "name": "texto",
          "type": "string"
        },
        {
          "internalType": "address",
          "name": "_factory",
          "type": "address"
        }
      ],
      "stateMutability": "nonpayable",
      "type": "constructor"
    },
    {
      "inputs": [],
      "name": "_direccion",
      "outputs": [
        {
          "internalType": "bytes32",
          "name": "",
          "type": "bytes32"
        }
      ],
      "stateMutability": "view",
      "type": "function"
    },
    {
      "inputs": [],
      "name": "factory",
      "outputs": [
        {
          "internalType": "address",
          "name": "",
          "type": "address"
        }
      ],
      "stateMutability": "view",
      "type": "function"
    },
    {
      "inputs": [
        {
          "internalType": "uint256",
          "name": "",
          "type": "uint256"
        }
      ],
      "name": "votos",
      "outputs": [
        {
          "internalType": "address",
          "name": "votacion",
          "type": "address"
        },
        {
          "internalType": "uint256",
          "name": "candidato",
          "type": "uint256"
        },
        {
          "internalType": "string",
          "name": "nombreCandidato",
          "type": "string"
        },
        {
          "internalType": "string",
          "name": "nombreVotacion",
          "type": "string"
        }
      ],
      "stateMutability": "view",
      "type": "function"
    },
    {
      "inputs": [],
      "name": "obtenerDireccion",
      "outputs": [
        {
          "internalType": "bytes32",
          "name": "",
          "type": "bytes32"
        }
      ],
      "stateMutability": "view",
      "type": "function"
    },
    {
      "inputs": [
        {
          "internalType": "address",
          "name": "direccion",
          "type": "address"
        }
      ],
      "name": "comprobarVoto",
      "outputs": [
        {
          "internalType": "bool",
          "name": "",
          "type": "bool"
        }
      ],
      "stateMutability": "view",
      "type": "function"
    },
    {
      "inputs": [
        {
          "internalType": "address",
          "name": "votacion",
          "type": "address"
        },
        {
          "internalType": "uint256",
          "name": "candidato",
          "type": "uint256"
        },
        {
          "internalType": "string",
          "name": "nombreCandidato",
          "type": "string"
        },
        {
          "internalType": "string",
          "name": "nombreVotacion",
          "type": "string"
        }
      ],
      "name": "votar",
      "outputs": [],
      "stateMutability": "nonpayable",
      "type": "function"
    },
    {
      "inputs": [],
      "name": "obtenerVotos",
      "outputs": [
        {
          "components": [
            {
              "internalType": "address",
              "name": "votacion",
              "type": "address"
            },
            {
              "internalType": "uint256",
              "name": "candidato",
              "type": "uint256"
            },
            {
              "internalType": "string",
              "name": "nombreCandidato",
              "type": "string"
            },
            {
              "internalType": "string",
              "name": "nombreVotacion",
              "type": "string"
            }
          ],
          "internalType": "struct Cuenta.Voto[]",
          "name": "",
          "type": "tuple[]"
        }
      ],
      "stateMutability": "view",
      "type": "function"
    }
  ],
  "bytecode": "0x60806040523480156200001157600080fd5b506040516200122238038062001222833981810160405281019062000037919062000138565b816040516020016200004a9190620001c9565b6040516020818303038152906040528051906020012060008190555080600260006101000a81548173ffffffffffffffffffffffffffffffffffffffff021916908373ffffffffffffffffffffffffffffffffffffffff160217905550505062000351565b6000620000c6620000c0846200020b565b620001e2565b905082815260208101848484011115620000df57600080fd5b620000ec8482856200028b565b509392505050565b600081519050620001058162000337565b92915050565b600082601f8301126200011d57600080fd5b81516200012f848260208601620000af565b91505092915050565b600080604083850312156200014c57600080fd5b600083015167ffffffffffffffff8111156200016757600080fd5b62000175858286016200010b565b92505060206200018885828601620000f4565b9150509250929050565b60006200019f8262000241565b620001ab81856200024c565b9350620001bd8185602086016200028b565b80840191505092915050565b6000620001d7828462000192565b915081905092915050565b6000620001ee62000201565b9050620001fc8282620002c1565b919050565b6000604051905090565b600067ffffffffffffffff821115620002295762000228620002f7565b5b620002348262000326565b9050602081019050919050565b600081519050919050565b600081905092915050565b600062000264826200026b565b9050919050565b600073ffffffffffffffffffffffffffffffffffffffff82169050919050565b60005b83811015620002ab5780820151818401526020810190506200028e565b83811115620002bb576000848401525b50505050565b620002cc8262000326565b810181811067ffffffffffffffff82111715620002ee57620002ed620002f7565b5b80604052505050565b7f4e487b7100000000000000000000000000000000000000000000000000000000600052604160045260246000fd5b6000601f19601f8301169050919050565b620003428162000257565b81146200034e57600080fd5b50565b610ec180620003616000396000f3fe608060405234801561001057600080fd5b506004361061007d5760003560e01c8063b2731f0e1161005b578063b2731f0e146100ee578063c45a015514610121578063e276cdaa1461013f578063ee05fe221461015b5761007d565b806316674950146100825780634dce507c146100a05780635e8b3152146100d0575b600080fd5b61008a610179565b6040516100979190610bd7565b60405180910390f35b6100ba60048036038101906100b59190610865565b61017f565b6040516100c79190610bbc565b60405180910390f35b6100d86101d5565b6040516100e59190610bd7565b60405180910390f35b61010860048036038101906101039190610921565b6101de565b6040516101189493929190610b47565b60405180910390f35b61012961034e565b6040516101369190610b2c565b60405180910390f35b6101596004803603810190610154919061088e565b610374565b005b61016361054d565b6040516101709190610b9a565b60405180910390f35b60005481565b6000600160008373ffffffffffffffffffffffffffffffffffffffff1673ffffffffffffffffffffffffffffffffffffffff16815260200190815260200160002060009054906101000a900460ff169050919050565b60008054905090565b600381815481106101ee57600080fd5b90600052602060002090600402016000915090508060000160009054906101000a900473ffffffffffffffffffffffffffffffffffffffff169080600101549080600201805461023d90610d62565b80601f016020809104026020016040519081016040528092919081815260200182805461026990610d62565b80156102b65780601f1061028b576101008083540402835291602001916102b6565b820191906000526020600020905b81548152906001019060200180831161029957829003601f168201915b5050505050908060030180546102cb90610d62565b80601f01602080910402602001604051908101604052809291908181526020018280546102f790610d62565b80156103445780601f1061031957610100808354040283529160200191610344565b820191906000526020600020905b81548152906001019060200180831161032757829003601f168201915b5050505050905084565b600260009054906101000a900473ffffffffffffffffffffffffffffffffffffffff1681565b600160003373ffffffffffffffffffffffffffffffffffffffff1673ffffffffffffffffffffffffffffffffffffffff16815260200190815260200160002060009054906101000a900460ff1615610401576040517f08c379a00000000000000000000000000000000000000000000000000000000081526004016103f890610bf2565b60405180910390fd5b60018060008673ffffffffffffffffffffffffffffffffffffffff1673ffffffffffffffffffffffffffffffffffffffff16815260200190815260200160002060006101000a81548160ff021916908315150217905550600360405180608001604052808673ffffffffffffffffffffffffffffffffffffffff16815260200185815260200184815260200183815250908060018154018082558091505060019003906000526020600020906004020160009091909190915060008201518160000160006101000a81548173ffffffffffffffffffffffffffffffffffffffff021916908373ffffffffffffffffffffffffffffffffffffffff160217905550602082015181600101556040820151816002019080519060200190610527929190610730565b506060820151816003019080519060200190610544929190610730565b50505050505050565b60606003805480602002602001604051908101604052809291908181526020016000905b8282101561072757838290600052602060002090600402016040518060800160405290816000820160009054906101000a900473ffffffffffffffffffffffffffffffffffffffff1673ffffffffffffffffffffffffffffffffffffffff1673ffffffffffffffffffffffffffffffffffffffff1681526020016001820154815260200160028201805461060490610d62565b80601f016020809104026020016040519081016040528092919081815260200182805461063090610d62565b801561067d5780601f106106525761010080835404028352916020019161067d565b820191906000526020600020905b81548152906001019060200180831161066057829003601f168201915b5050505050815260200160038201805461069690610d62565b80601f01602080910402602001604051908101604052809291908181526020018280546106c290610d62565b801561070f5780601f106106e45761010080835404028352916020019161070f565b820191906000526020600020905b8154815290600101906020018083116106f257829003601f168201915b50505050508152505081526020019060010190610571565b50505050905090565b82805461073c90610d62565b90600052602060002090601f01602090048101928261075e57600085556107a5565b82601f1061077757805160ff19168380011785556107a5565b828001600101855582156107a5579182015b828111156107a4578251825591602001919060010190610789565b5b5090506107b291906107b6565b5090565b5b808211156107cf5760008160009055506001016107b7565b5090565b60006107e66107e184610c37565b610c12565b9050828152602081018484840111156107fe57600080fd5b610809848285610d20565b509392505050565b60008135905061082081610e5d565b92915050565b600082601f83011261083757600080fd5b81356108478482602086016107d3565b91505092915050565b60008135905061085f81610e74565b92915050565b60006020828403121561087757600080fd5b600061088584828501610811565b91505092915050565b600080600080608085870312156108a457600080fd5b60006108b287828801610811565b94505060206108c387828801610850565b935050604085013567ffffffffffffffff8111156108e057600080fd5b6108ec87828801610826565b925050606085013567ffffffffffffffff81111561090957600080fd5b61091587828801610826565b91505092959194509250565b60006020828403121561093357600080fd5b600061094184828501610850565b91505092915050565b60006109568383610aa4565b905092915050565b61096781610cce565b82525050565b61097681610cce565b82525050565b600061098782610c78565b6109918185610c9b565b9350836020820285016109a385610c68565b8060005b858110156109df57848403895281516109c0858261094a565b94506109cb83610c8e565b925060208a019950506001810190506109a7565b50829750879550505050505092915050565b6109fa81610ce0565b82525050565b610a0981610cec565b82525050565b6000610a1a82610c83565b610a248185610cac565b9350610a34818560208601610d2f565b610a3d81610e23565b840191505092915050565b6000610a5382610c83565b610a5d8185610cbd565b9350610a6d818560208601610d2f565b610a7681610e23565b840191505092915050565b6000610a8e601883610cbd565b9150610a9982610e34565b602082019050919050565b6000608083016000830151610abc600086018261095e565b506020830151610acf6020860182610b0e565b5060408301518482036040860152610ae78282610a0f565b91505060608301518482036060860152610b018282610a0f565b9150508091505092915050565b610b1781610d16565b82525050565b610b2681610d16565b82525050565b6000602082019050610b41600083018461096d565b92915050565b6000608082019050610b5c600083018761096d565b610b696020830186610b1d565b8181036040830152610b7b8185610a48565b90508181036060830152610b8f8184610a48565b905095945050505050565b60006020820190508181036000830152610bb4818461097c565b905092915050565b6000602082019050610bd160008301846109f1565b92915050565b6000602082019050610bec6000830184610a00565b92915050565b60006020820190508181036000830152610c0b81610a81565b9050919050565b6000610c1c610c2d565b9050610c288282610d94565b919050565b6000604051905090565b600067ffffffffffffffff821115610c5257610c51610df4565b5b610c5b82610e23565b9050602081019050919050565b6000819050602082019050919050565b600081519050919050565b600081519050919050565b6000602082019050919050565b600082825260208201905092915050565b600082825260208201905092915050565b600082825260208201905092915050565b6000610cd982610cf6565b9050919050565b60008115159050919050565b6000819050919050565b600073ffffffffffffffffffffffffffffffffffffffff82169050919050565b6000819050919050565b82818337600083830152505050565b60005b83811015610d4d578082015181840152602081019050610d32565b83811115610d5c576000848401525b50505050565b60006002820490506001821680610d7a57607f821691505b60208210811415610d8e57610d8d610dc5565b5b50919050565b610d9d82610e23565b810181811067ffffffffffffffff82111715610dbc57610dbb610df4565b5b80604052505050565b7f4e487b7100000000000000000000000000000000000000000000000000000000600052602260045260246000fd5b7f4e487b7100000000000000000000000000000000000000000000000000000000600052604160045260246000fd5b6000601f19601f8301169050919050565b7f456c207573756172696f20796120686120766f7461646f2e0000000000000000600082015250565b610e6681610cce565b8114610e7157600080fd5b50565b610e7d81610d16565b8114610e8857600080fd5b5056fea2646970667358221220881b5877ccfad6b0f1514dd8e7cc38ff66b11ce7b1ce3f2ee950ad76cbb4575a64736f6c63430008040033",
  "immutableReferences": {},
  "source": "// SPDX-License-Identifier: MIT\r\npragma solidity ^0.8.4;\r\n\r\ncontract Cuenta {\r\n\r\n    bytes32 public _direccion;\r\n    // Mapeo de direccin a votos\r\n    // Mapeo de direccin a booleano para comprobar si un usuario ha votado\r\n    mapping(address => bool) private haVotado;\r\n     // Direccin del CuentaFactory\r\n    address public factory;\r\n\r\n    struct Voto {\r\n        address votacion;\r\n        uint candidato;\r\n        string nombreCandidato;\r\n        string nombreVotacion;\r\n    }\r\n\r\n    // Array de structs Voto\r\n    Voto[] public votos;\r\n\r\n    // Constructor que recibe una cadena de texto y la convierte en una direccin\r\n    constructor(string memory texto, address _factory) {\r\n        _direccion = keccak256(abi.encodePacked(texto));\r\n        factory = _factory; // Almacena la direccin de la factory\r\n    }\r\n\r\n    // Funcin para obtener la direccin\r\n    function obtenerDireccion() public view returns (bytes32) {\r\n        return _direccion;\r\n    }\r\n\r\n    // Funcin para comprobar si un usuario ha votado\r\n    function comprobarVoto(address direccion) public view returns (bool) {\r\n        return haVotado[direccion];\r\n    }\r\n\r\n    // Funcin para almacenar el voto de un usuario\r\n    function votar(address votacion, uint candidato, string memory nombreCandidato, string memory nombreVotacion) public {\r\n        require(!haVotado[msg.sender], \"El usuario ya ha votado.\");\r\n        haVotado[votacion] = true;\r\n        votos.push(Voto(votacion, candidato, nombreCandidato, nombreVotacion));\r\n    }\r\n\r\n    // Funcin para obtener los votos de un usuario\r\n    function obtenerVotos() public view returns (Voto[] memory) {\r\n        return votos;\r\n    }\r\n\r\n\r\n}\r\n",
  "sourcePath": "C:\\Users\\benja\\Desktop\\votacion\\src\\contracts\\Cuenta.sol",
  "compiler": {
    "name": "solc",
    "version": "0.8.4+commit.c7e474f2.Emscripten.clang"
  },
  "schemaVersion": "3.4.7",
  "updatedAt": "2023-11-25T14:13:19.229Z",
  "devdoc": {
    "kind": "dev",
    "methods": {},
    "version": 1
  },
  "userdoc": {
    "kind": "user",
    "methods": {},
    "version": 1
  }
}