{
  "contractName": "Cuenta",
  "abi": [
    {
      "inputs": [
        {
          "internalType": "string",
          "name": "texto",
          "type": "string"
        },
        {
          "internalType": "string",
          "name": "contrasena",
          "type": "string"
        },
        {
          "internalType": "address",
          "name": "_factory",
          "type": "address"
        }
      ],
      "stateMutability": "nonpayable",
      "type": "constructor"
    },
    {
      "inputs": [],
      "name": "_direccion",
      "outputs": [
        {
          "internalType": "bytes32",
          "name": "",
          "type": "bytes32"
        }
      ],
      "stateMutability": "view",
      "type": "function"
    },
    {
      "inputs": [],
      "name": "factory",
      "outputs": [
        {
          "internalType": "address",
          "name": "",
          "type": "address"
        }
      ],
      "stateMutability": "view",
      "type": "function"
    },
    {
      "inputs": [
        {
          "internalType": "uint256",
          "name": "",
          "type": "uint256"
        }
      ],
      "name": "votos",
      "outputs": [
        {
          "internalType": "address",
          "name": "votacion",
          "type": "address"
        },
        {
          "internalType": "uint256",
          "name": "candidato",
          "type": "uint256"
        },
        {
          "internalType": "string",
          "name": "nombreCandidato",
          "type": "string"
        },
        {
          "internalType": "string",
          "name": "nombreVotacion",
          "type": "string"
        }
      ],
      "stateMutability": "view",
      "type": "function"
    },
    {
      "inputs": [],
      "name": "obtenerDireccion",
      "outputs": [
        {
          "internalType": "bytes32",
          "name": "",
          "type": "bytes32"
        }
      ],
      "stateMutability": "view",
      "type": "function"
    },
    {
      "inputs": [
        {
          "internalType": "address",
          "name": "direccion",
          "type": "address"
        }
      ],
      "name": "comprobarVoto",
      "outputs": [
        {
          "internalType": "bool",
          "name": "",
          "type": "bool"
        }
      ],
      "stateMutability": "view",
      "type": "function"
    },
    {
      "inputs": [
        {
          "internalType": "address",
          "name": "votacion",
          "type": "address"
        },
        {
          "internalType": "uint256",
          "name": "candidato",
          "type": "uint256"
        },
        {
          "internalType": "string",
          "name": "nombreCandidato",
          "type": "string"
        },
        {
          "internalType": "string",
          "name": "nombreVotacion",
          "type": "string"
        }
      ],
      "name": "votar",
      "outputs": [],
      "stateMutability": "nonpayable",
      "type": "function"
    },
    {
      "inputs": [],
      "name": "obtenerVotos",
      "outputs": [
        {
          "components": [
            {
              "internalType": "address",
              "name": "votacion",
              "type": "address"
            },
            {
              "internalType": "uint256",
              "name": "candidato",
              "type": "uint256"
            },
            {
              "internalType": "string",
              "name": "nombreCandidato",
              "type": "string"
            },
            {
              "internalType": "string",
              "name": "nombreVotacion",
              "type": "string"
            }
          ],
          "internalType": "struct Cuenta.Voto[]",
          "name": "",
          "type": "tuple[]"
        }
      ],
      "stateMutability": "view",
      "type": "function"
    },
    {
      "inputs": [
        {
          "internalType": "string",
          "name": "contrasena",
          "type": "string"
        }
      ],
      "name": "verificarContrasena",
      "outputs": [
        {
          "internalType": "bool",
          "name": "",
          "type": "bool"
        }
      ],
      "stateMutability": "view",
      "type": "function"
    }
  ],
  "bytecode": "0x60806040523480156200001157600080fd5b506040516200138338038062001383833981810160405281019062000037919062000168565b826040516020016200004a919062000227565b604051602081830303815290604052805190602001206000819055508160405160200162000079919062000227565b6040516020818303038152906040528051906020012060038190555080600260006101000a81548173ffffffffffffffffffffffffffffffffffffffff021916908373ffffffffffffffffffffffffffffffffffffffff160217905550505050620003af565b6000620000f6620000f08462000269565b62000240565b9050828152602081018484840111156200010f57600080fd5b6200011c848285620002e9565b509392505050565b600081519050620001358162000395565b92915050565b600082601f8301126200014d57600080fd5b81516200015f848260208601620000df565b91505092915050565b6000806000606084860312156200017e57600080fd5b600084015167ffffffffffffffff8111156200019957600080fd5b620001a7868287016200013b565b935050602084015167ffffffffffffffff811115620001c557600080fd5b620001d3868287016200013b565b9250506040620001e68682870162000124565b9150509250925092565b6000620001fd826200029f565b620002098185620002aa565b93506200021b818560208601620002e9565b80840191505092915050565b6000620002358284620001f0565b915081905092915050565b60006200024c6200025f565b90506200025a82826200031f565b919050565b6000604051905090565b600067ffffffffffffffff82111562000287576200028662000355565b5b620002928262000384565b9050602081019050919050565b600081519050919050565b600081905092915050565b6000620002c282620002c9565b9050919050565b600073ffffffffffffffffffffffffffffffffffffffff82169050919050565b60005b8381101562000309578082015181840152602081019050620002ec565b8381111562000319576000848401525b50505050565b6200032a8262000384565b810181811067ffffffffffffffff821117156200034c576200034b62000355565b5b80604052505050565b7f4e487b7100000000000000000000000000000000000000000000000000000000600052604160045260246000fd5b6000601f19601f8301169050919050565b620003a081620002b5565b8114620003ac57600080fd5b50565b610fc480620003bf6000396000f3fe608060405234801561001057600080fd5b50600436106100885760003560e01c8063b2731f0e1161005b578063b2731f0e14610129578063c45a01551461015c578063e276cdaa1461017a578063ee05fe221461019657610088565b8063166749501461008d5780631f2b6643146100ab5780634dce507c146100db5780635e8b31521461010b575b600080fd5b6100956101b4565b6040516100a29190610ccf565b60405180910390f35b6100c560048036038101906100c09190610990565b6101ba565b6040516100d29190610cb4565b60405180910390f35b6100f560048036038101906100f091906108d4565b6101ee565b6040516101029190610cb4565b60405180910390f35b610113610244565b6040516101209190610ccf565b60405180910390f35b610143600480360381019061013e91906109d1565b61024d565b6040516101539493929190610c3f565b60405180910390f35b6101646103bd565b6040516101719190610c24565b60405180910390f35b610194600480360381019061018f91906108fd565b6103e3565b005b61019e6105bc565b6040516101ab9190610c92565b60405180910390f35b60005481565b6000600354826040516020016101d09190610c0d565b60405160208183030381529060405280519060200120149050919050565b6000600160008373ffffffffffffffffffffffffffffffffffffffff1673ffffffffffffffffffffffffffffffffffffffff16815260200190815260200160002060009054906101000a900460ff169050919050565b60008054905090565b6004818154811061025d57600080fd5b90600052602060002090600402016000915090508060000160009054906101000a900473ffffffffffffffffffffffffffffffffffffffff16908060010154908060020180546102ac90610e65565b80601f01602080910402602001604051908101604052809291908181526020018280546102d890610e65565b80156103255780601f106102fa57610100808354040283529160200191610325565b820191906000526020600020905b81548152906001019060200180831161030857829003601f168201915b50505050509080600301805461033a90610e65565b80601f016020809104026020016040519081016040528092919081815260200182805461036690610e65565b80156103b35780601f10610388576101008083540402835291602001916103b3565b820191906000526020600020905b81548152906001019060200180831161039657829003601f168201915b5050505050905084565b600260009054906101000a900473ffffffffffffffffffffffffffffffffffffffff1681565b600160003373ffffffffffffffffffffffffffffffffffffffff1673ffffffffffffffffffffffffffffffffffffffff16815260200190815260200160002060009054906101000a900460ff1615610470576040517f08c379a000000000000000000000000000000000000000000000000000000000815260040161046790610cea565b60405180910390fd5b60018060008673ffffffffffffffffffffffffffffffffffffffff1673ffffffffffffffffffffffffffffffffffffffff16815260200190815260200160002060006101000a81548160ff021916908315150217905550600460405180608001604052808673ffffffffffffffffffffffffffffffffffffffff16815260200185815260200184815260200183815250908060018154018082558091505060019003906000526020600020906004020160009091909190915060008201518160000160006101000a81548173ffffffffffffffffffffffffffffffffffffffff021916908373ffffffffffffffffffffffffffffffffffffffff16021790555060208201518160010155604082015181600201908051906020019061059692919061079f565b5060608201518160030190805190602001906105b392919061079f565b50505050505050565b60606004805480602002602001604051908101604052809291908181526020016000905b8282101561079657838290600052602060002090600402016040518060800160405290816000820160009054906101000a900473ffffffffffffffffffffffffffffffffffffffff1673ffffffffffffffffffffffffffffffffffffffff1673ffffffffffffffffffffffffffffffffffffffff1681526020016001820154815260200160028201805461067390610e65565b80601f016020809104026020016040519081016040528092919081815260200182805461069f90610e65565b80156106ec5780601f106106c1576101008083540402835291602001916106ec565b820191906000526020600020905b8154815290600101906020018083116106cf57829003601f168201915b5050505050815260200160038201805461070590610e65565b80601f016020809104026020016040519081016040528092919081815260200182805461073190610e65565b801561077e5780601f106107535761010080835404028352916020019161077e565b820191906000526020600020905b81548152906001019060200180831161076157829003601f168201915b505050505081525050815260200190600101906105e0565b50505050905090565b8280546107ab90610e65565b90600052602060002090601f0160209004810192826107cd5760008555610814565b82601f106107e657805160ff1916838001178555610814565b82800160010185558215610814579182015b828111156108135782518255916020019190600101906107f8565b5b5090506108219190610825565b5090565b5b8082111561083e576000816000905550600101610826565b5090565b600061085561085084610d2f565b610d0a565b90508281526020810184848401111561086d57600080fd5b610878848285610e23565b509392505050565b60008135905061088f81610f60565b92915050565b600082601f8301126108a657600080fd5b81356108b6848260208601610842565b91505092915050565b6000813590506108ce81610f77565b92915050565b6000602082840312156108e657600080fd5b60006108f484828501610880565b91505092915050565b6000806000806080858703121561091357600080fd5b600061092187828801610880565b9450506020610932878288016108bf565b935050604085013567ffffffffffffffff81111561094f57600080fd5b61095b87828801610895565b925050606085013567ffffffffffffffff81111561097857600080fd5b61098487828801610895565b91505092959194509250565b6000602082840312156109a257600080fd5b600082013567ffffffffffffffff8111156109bc57600080fd5b6109c884828501610895565b91505092915050565b6000602082840312156109e357600080fd5b60006109f1848285016108bf565b91505092915050565b6000610a068383610b85565b905092915050565b610a1781610dd1565b82525050565b610a2681610dd1565b82525050565b6000610a3782610d70565b610a418185610d93565b935083602082028501610a5385610d60565b8060005b85811015610a8f5784840389528151610a7085826109fa565b9450610a7b83610d86565b925060208a01995050600181019050610a57565b50829750879550505050505092915050565b610aaa81610de3565b82525050565b610ab981610def565b82525050565b6000610aca82610d7b565b610ad48185610da4565b9350610ae4818560208601610e32565b610aed81610f26565b840191505092915050565b6000610b0382610d7b565b610b0d8185610db5565b9350610b1d818560208601610e32565b610b2681610f26565b840191505092915050565b6000610b3c82610d7b565b610b468185610dc6565b9350610b56818560208601610e32565b80840191505092915050565b6000610b6f601883610db5565b9150610b7a82610f37565b602082019050919050565b6000608083016000830151610b9d6000860182610a0e565b506020830151610bb06020860182610bef565b5060408301518482036040860152610bc88282610abf565b91505060608301518482036060860152610be28282610abf565b9150508091505092915050565b610bf881610e19565b82525050565b610c0781610e19565b82525050565b6000610c198284610b31565b915081905092915050565b6000602082019050610c396000830184610a1d565b92915050565b6000608082019050610c546000830187610a1d565b610c616020830186610bfe565b8181036040830152610c738185610af8565b90508181036060830152610c878184610af8565b905095945050505050565b60006020820190508181036000830152610cac8184610a2c565b905092915050565b6000602082019050610cc96000830184610aa1565b92915050565b6000602082019050610ce46000830184610ab0565b92915050565b60006020820190508181036000830152610d0381610b62565b9050919050565b6000610d14610d25565b9050610d208282610e97565b919050565b6000604051905090565b600067ffffffffffffffff821115610d4a57610d49610ef7565b5b610d5382610f26565b9050602081019050919050565b6000819050602082019050919050565b600081519050919050565b600081519050919050565b6000602082019050919050565b600082825260208201905092915050565b600082825260208201905092915050565b600082825260208201905092915050565b600081905092915050565b6000610ddc82610df9565b9050919050565b60008115159050919050565b6000819050919050565b600073ffffffffffffffffffffffffffffffffffffffff82169050919050565b6000819050919050565b82818337600083830152505050565b60005b83811015610e50578082015181840152602081019050610e35565b83811115610e5f576000848401525b50505050565b60006002820490506001821680610e7d57607f821691505b60208210811415610e9157610e90610ec8565b5b50919050565b610ea082610f26565b810181811067ffffffffffffffff82111715610ebf57610ebe610ef7565b5b80604052505050565b7f4e487b7100000000000000000000000000000000000000000000000000000000600052602260045260246000fd5b7f4e487b7100000000000000000000000000000000000000000000000000000000600052604160045260246000fd5b6000601f19601f8301169050919050565b7f456c207573756172696f20796120686120766f7461646f2e0000000000000000600082015250565b610f6981610dd1565b8114610f7457600080fd5b50565b610f8081610e19565b8114610f8b57600080fd5b5056fea2646970667358221220cb2898c430244cf262ecc42204f2338c3584a69c08ebbaf3c852ed8693eb241764736f6c63430008040033",
  "immutableReferences": {},
  "source": "// SPDX-License-Identifier: MIT\r\npragma solidity ^0.8.4;\r\n\r\ncontract Cuenta {\r\n\r\n    bytes32 public _direccion;\r\n    // Mapeo de direccin a votos\r\n    // Mapeo de direccin a booleano para comprobar si un usuario ha votado\r\n    mapping(address => bool) private haVotado;\r\n     // Direccin del CuentaFactory\r\n    address public factory;\r\n    bytes32 private _contrasenaHash; // Almacena el hash de la contrasea\r\n\r\n    struct Voto {\r\n        address votacion;\r\n        uint candidato;\r\n        string nombreCandidato;\r\n        string nombreVotacion;\r\n    }\r\n\r\n    // Array de structs Voto\r\n    Voto[] public votos;\r\n\r\n    // Constructor que recibe una cadena de texto y la convierte en una direccin\r\n    constructor(string memory texto, string memory contrasena, address _factory) {\r\n        _direccion = keccak256(abi.encodePacked(texto));\r\n        _contrasenaHash = keccak256(abi.encodePacked(contrasena));\r\n        factory = _factory; // Almacena la direccin de la factory\r\n    }\r\n\r\n    // Funcin para obtener la direccin\r\n    function obtenerDireccion() public view returns (bytes32) {\r\n        return _direccion;\r\n    }\r\n\r\n    // Funcin para comprobar si un usuario ha votado\r\n    function comprobarVoto(address direccion) public view returns (bool) {\r\n        return haVotado[direccion];\r\n    }\r\n\r\n    // Funcin para almacenar el voto de un usuario\r\n    function votar(address votacion, uint candidato, string memory nombreCandidato, string memory nombreVotacion) public {\r\n        require(!haVotado[msg.sender], \"El usuario ya ha votado.\");\r\n        haVotado[votacion] = true;\r\n        votos.push(Voto(votacion, candidato, nombreCandidato, nombreVotacion));\r\n    }\r\n\r\n    // Funcin para obtener los votos de un usuario\r\n    function obtenerVotos() public view returns (Voto[] memory) {\r\n        return votos;\r\n    }\r\n\r\n    // Funcin para verificar la contrasea\r\n    function verificarContrasena(string memory contrasena) public view returns (bool) {\r\n        return keccak256(abi.encodePacked(contrasena)) == _contrasenaHash;\r\n    }\r\n\r\n\r\n}\r\n",
  "sourcePath": "C:\\Users\\benja\\Desktop\\votacion\\src\\contracts\\Cuenta.sol",
  "compiler": {
    "name": "solc",
    "version": "0.8.4+commit.c7e474f2.Emscripten.clang"
  },
  "schemaVersion": "3.4.7",
  "updatedAt": "2023-12-18T21:32:45.728Z",
  "devdoc": {
    "kind": "dev",
    "methods": {},
    "version": 1
  },
  "userdoc": {
    "kind": "user",
    "methods": {},
    "version": 1
  }
}