{
  "contractName": "Votacion",
  "abi": [
    {
      "inputs": [
        {
          "internalType": "string",
          "name": "_nombre",
          "type": "string"
        },
        {
          "internalType": "string[]",
          "name": "_candidatos",
          "type": "string[]"
        },
        {
          "internalType": "address",
          "name": "_factory",
          "type": "address"
        },
        {
          "internalType": "string",
          "name": "_descripcion",
          "type": "string"
        }
      ],
      "stateMutability": "nonpayable",
      "type": "constructor"
    },
    {
      "inputs": [
        {
          "internalType": "uint256",
          "name": "",
          "type": "uint256"
        }
      ],
      "name": "candidatos",
      "outputs": [
        {
          "internalType": "string",
          "name": "",
          "type": "string"
        }
      ],
      "stateMutability": "view",
      "type": "function"
    },
    {
      "inputs": [],
      "name": "estado",
      "outputs": [
        {
          "internalType": "bool",
          "name": "",
          "type": "bool"
        }
      ],
      "stateMutability": "view",
      "type": "function"
    },
    {
      "inputs": [],
      "name": "factory",
      "outputs": [
        {
          "internalType": "address",
          "name": "",
          "type": "address"
        }
      ],
      "stateMutability": "view",
      "type": "function"
    },
    {
      "inputs": [],
      "name": "nombre",
      "outputs": [
        {
          "internalType": "string",
          "name": "",
          "type": "string"
        }
      ],
      "stateMutability": "view",
      "type": "function"
    },
    {
      "inputs": [],
      "name": "terminada",
      "outputs": [
        {
          "internalType": "bool",
          "name": "",
          "type": "bool"
        }
      ],
      "stateMutability": "view",
      "type": "function"
    },
    {
      "inputs": [
        {
          "internalType": "uint256",
          "name": "",
          "type": "uint256"
        }
      ],
      "name": "votos",
      "outputs": [
        {
          "internalType": "uint256",
          "name": "",
          "type": "uint256"
        }
      ],
      "stateMutability": "view",
      "type": "function"
    },
    {
      "inputs": [],
      "name": "eliminar",
      "outputs": [],
      "stateMutability": "nonpayable",
      "type": "function"
    },
    {
      "inputs": [],
      "name": "terminarVotacion",
      "outputs": [],
      "stateMutability": "nonpayable",
      "type": "function"
    },
    {
      "inputs": [],
      "name": "obtenerNombre",
      "outputs": [
        {
          "internalType": "string",
          "name": "",
          "type": "string"
        }
      ],
      "stateMutability": "view",
      "type": "function"
    },
    {
      "inputs": [
        {
          "internalType": "uint256",
          "name": "candidato",
          "type": "uint256"
        }
      ],
      "name": "votar",
      "outputs": [],
      "stateMutability": "nonpayable",
      "type": "function"
    },
    {
      "inputs": [
        {
          "internalType": "uint256",
          "name": "candidato",
          "type": "uint256"
        }
      ],
      "name": "obtenerVotos",
      "outputs": [
        {
          "internalType": "uint256",
          "name": "",
          "type": "uint256"
        }
      ],
      "stateMutability": "view",
      "type": "function"
    },
    {
      "inputs": [],
      "name": "obtenerEstado",
      "outputs": [
        {
          "internalType": "bool",
          "name": "",
          "type": "bool"
        }
      ],
      "stateMutability": "view",
      "type": "function"
    },
    {
      "inputs": [],
      "name": "obtenerTerminada",
      "outputs": [
        {
          "internalType": "bool",
          "name": "",
          "type": "bool"
        }
      ],
      "stateMutability": "view",
      "type": "function"
    },
    {
      "inputs": [],
      "name": "obtenerNumCandidatos",
      "outputs": [
        {
          "internalType": "uint256",
          "name": "",
          "type": "uint256"
        }
      ],
      "stateMutability": "view",
      "type": "function"
    },
    {
      "inputs": [],
      "name": "obtenerDescripcion",
      "outputs": [
        {
          "internalType": "string",
          "name": "",
          "type": "string"
        }
      ],
      "stateMutability": "view",
      "type": "function"
    }
  ],
  "bytecode": "0x60806040526000600160006101000a81548160ff02191690831515021790555060006001806101000a81548160ff0219169083151502179055503480156200004657600080fd5b506040516200137c3803806200137c83398181016040528101906200006c9190620003e7565b8360009080519060200190620000849291906200011c565b5060018060006101000a81548160ff0219169083151502179055508260029080519060200190620000b7929190620001ad565b5081600460006101000a81548173ffffffffffffffffffffffffffffffffffffffff021916908373ffffffffffffffffffffffffffffffffffffffff1602179055508060059080519060200190620001119291906200011c565b50505050506200068b565b8280546200012a9062000596565b90600052602060002090601f0160209004810192826200014e57600085556200019a565b82601f106200016957805160ff19168380011785556200019a565b828001600101855582156200019a579182015b82811115620001995782518255916020019190600101906200017c565b5b509050620001a9919062000214565b5090565b82805482825590600052602060002090810192821562000201579160200282015b8281111562000200578251829080519060200190620001ef9291906200011c565b5091602001919060010190620001ce565b5b50905062000210919062000233565b5090565b5b808211156200022f57600081600090555060010162000215565b5090565b5b808211156200025757600081816200024d91906200025b565b5060010162000234565b5090565b508054620002699062000596565b6000825580601f106200027d57506200029e565b601f0160209004906000526020600020908101906200029d919062000214565b5b50565b6000620002b8620002b284620004c7565b6200049e565b90508083825260208201905082856020860282011115620002d857600080fd5b60005b858110156200032757815167ffffffffffffffff811115620002fc57600080fd5b8086016200030b8982620003ba565b85526020850194506020840193505050600181019050620002db565b5050509392505050565b6000620003486200034284620004f6565b6200049e565b9050828152602081018484840111156200036157600080fd5b6200036e84828562000560565b509392505050565b600081519050620003878162000671565b92915050565b600082601f8301126200039f57600080fd5b8151620003b1848260208601620002a1565b91505092915050565b600082601f830112620003cc57600080fd5b8151620003de84826020860162000331565b91505092915050565b60008060008060808587031215620003fe57600080fd5b600085015167ffffffffffffffff8111156200041957600080fd5b6200042787828801620003ba565b945050602085015167ffffffffffffffff8111156200044557600080fd5b62000453878288016200038d565b9350506040620004668782880162000376565b925050606085015167ffffffffffffffff8111156200048457600080fd5b6200049287828801620003ba565b91505092959194509250565b6000620004aa620004bd565b9050620004b88282620005cc565b919050565b6000604051905090565b600067ffffffffffffffff821115620004e557620004e462000631565b5b602082029050602081019050919050565b600067ffffffffffffffff82111562000514576200051362000631565b5b6200051f8262000660565b9050602081019050919050565b6000620005398262000540565b9050919050565b600073ffffffffffffffffffffffffffffffffffffffff82169050919050565b60005b838110156200058057808201518184015260208101905062000563565b8381111562000590576000848401525b50505050565b60006002820490506001821680620005af57607f821691505b60208210811415620005c657620005c562000602565b5b50919050565b620005d78262000660565b810181811067ffffffffffffffff82111715620005f957620005f862000631565b5b80604052505050565b7f4e487b7100000000000000000000000000000000000000000000000000000000600052602260045260246000fd5b7f4e487b7100000000000000000000000000000000000000000000000000000000600052604160045260246000fd5b6000601f19601f8301169050919050565b6200067c816200052c565b81146200068857600080fd5b50565b610ce1806200069b6000396000f3fe608060405234801561001057600080fd5b50600436106100f55760003560e01c80637f49d85511610097578063b2731f0e11610066578063b2731f0e14610252578063bc7b35b214610282578063c45a0155146102a0578063e685aa48146102be576100f5565b80637f49d855146101b65780638f023f85146101d4578063901c3fee146102045780639159723314610222576100f5565b806347bc22f2116100d357806347bc22f2146101525780636657499e14610170578063688e34671461017a578063722d22fc14610198576100f5565b80630da2aef1146100fa5780631bfb66d6146101185780632160683114610136575b600080fd5b6101026102c8565b60405161010f919061094b565b60405180910390f35b6101206102d9565b60405161012d919061094b565b60405180910390f35b610150600480360381019061014b9190610815565b6102ee565b005b61015a6103b7565b6040516101679190610a08565b60405180910390f35b6101786103c4565b005b610182610470565b60405161018f919061094b565b60405180910390f35b6101a0610483565b6040516101ad919061094b565b60405180910390f35b6101be61049a565b6040516101cb9190610966565b60405180910390f35b6101ee60048036038101906101e99190610815565b61052c565b6040516101fb9190610966565b60405180910390f35b61020c6105d8565b6040516102199190610966565b60405180910390f35b61023c60048036038101906102379190610815565b61066a565b6040516102499190610a08565b60405180910390f35b61026c60048036038101906102679190610815565b610687565b6040516102799190610a08565b60405180910390f35b61028a61069f565b6040516102979190610966565b60405180910390f35b6102a861072d565b6040516102b59190610930565b60405180910390f35b6102c6610753565b005b60018054906101000a900460ff1681565b600060018054906101000a900460ff16905090565b600160009054906101000a900460ff1661033d576040517f08c379a000000000000000000000000000000000000000000000000000000000815260040161033490610988565b60405180910390fd5b60018054906101000a900460ff161561038b576040517f08c379a0000000000000000000000000000000000000000000000000000000008152600401610382906109e8565b60405180910390fd5b6003600082815260200190815260200160002060008154809291906103af90610aec565b919050555050565b6000600280549050905090565b600460009054906101000a900473ffffffffffffffffffffffffffffffffffffffff1673ffffffffffffffffffffffffffffffffffffffff163373ffffffffffffffffffffffffffffffffffffffff1614610454576040517f08c379a000000000000000000000000000000000000000000000000000000000815260040161044b906109a8565b60405180910390fd5b60018060016101000a81548160ff021916908315150217905550565b600160009054906101000a900460ff1681565b6000600160009054906101000a900460ff16905090565b6060600080546104a990610aba565b80601f01602080910402602001604051908101604052809291908181526020018280546104d590610aba565b80156105225780601f106104f757610100808354040283529160200191610522565b820191906000526020600020905b81548152906001019060200180831161050557829003601f168201915b5050505050905090565b6002818154811061053c57600080fd5b90600052602060002001600091509050805461055790610aba565b80601f016020809104026020016040519081016040528092919081815260200182805461058390610aba565b80156105d05780601f106105a5576101008083540402835291602001916105d0565b820191906000526020600020905b8154815290600101906020018083116105b357829003601f168201915b505050505081565b6060600580546105e790610aba565b80601f016020809104026020016040519081016040528092919081815260200182805461061390610aba565b80156106605780601f1061063557610100808354040283529160200191610660565b820191906000526020600020905b81548152906001019060200180831161064357829003601f168201915b5050505050905090565b600060036000838152602001908152602001600020549050919050565b60036020528060005260406000206000915090505481565b600080546106ac90610aba565b80601f01602080910402602001604051908101604052809291908181526020018280546106d890610aba565b80156107255780601f106106fa57610100808354040283529160200191610725565b820191906000526020600020905b81548152906001019060200180831161070857829003601f168201915b505050505081565b600460009054906101000a900473ffffffffffffffffffffffffffffffffffffffff1681565b600460009054906101000a900473ffffffffffffffffffffffffffffffffffffffff1673ffffffffffffffffffffffffffffffffffffffff163373ffffffffffffffffffffffffffffffffffffffff16146107e3576040517f08c379a00000000000000000000000000000000000000000000000000000000081526004016107da906109c8565b60405180910390fd5b6000600160006101000a81548160ff021916908315150217905550565b60008135905061080f81610c94565b92915050565b60006020828403121561082757600080fd5b600061083584828501610800565b91505092915050565b61084781610a3f565b82525050565b61085681610a51565b82525050565b600061086782610a23565b6108718185610a2e565b9350610881818560208601610a87565b61088a81610b93565b840191505092915050565b60006108a2601f83610a2e565b91506108ad82610ba4565b602082019050919050565b60006108c5602a83610a2e565b91506108d082610bcd565b604082019050919050565b60006108e8602a83610a2e565b91506108f382610c1c565b604082019050919050565b600061090b601e83610a2e565b915061091682610c6b565b602082019050919050565b61092a81610a7d565b82525050565b6000602082019050610945600083018461083e565b92915050565b6000602082019050610960600083018461084d565b92915050565b60006020820190508181036000830152610980818461085c565b905092915050565b600060208201905081810360008301526109a181610895565b9050919050565b600060208201905081810360008301526109c1816108b8565b9050919050565b600060208201905081810360008301526109e1816108db565b9050919050565b60006020820190508181036000830152610a01816108fe565b9050919050565b6000602082019050610a1d6000830184610921565b92915050565b600081519050919050565b600082825260208201905092915050565b6000610a4a82610a5d565b9050919050565b60008115159050919050565b600073ffffffffffffffffffffffffffffffffffffffff82169050919050565b6000819050919050565b60005b83811015610aa5578082015181840152602081019050610a8a565b83811115610ab4576000848401525b50505050565b60006002820490506001821680610ad257607f821691505b60208210811415610ae657610ae5610b64565b5b50919050565b6000610af782610a7d565b91507fffffffffffffffffffffffffffffffffffffffffffffffffffffffffffffffff821415610b2a57610b29610b35565b5b600182019050919050565b7f4e487b7100000000000000000000000000000000000000000000000000000000600052601160045260246000fd5b7f4e487b7100000000000000000000000000000000000000000000000000000000600052602260045260246000fd5b6000601f19601f8301169050919050565b7f4573746120766f746163696f6e206861207369646f20656c696d696e61646100600082015250565b7f536f6c6f206c6120666163746f7279207075656465207465726d696e6172206c60008201527f6120766f746163696f6e00000000000000000000000000000000000000000000602082015250565b7f536f6c6f206c6120666163746f727920707565646520656c696d696e6172206c60008201527f6120766f746163696f6e00000000000000000000000000000000000000000000602082015250565b7f4573746120766f746163696f6e2079612068612066696e616c697a61646f0000600082015250565b610c9d81610a7d565b8114610ca857600080fd5b5056fea264697066735822122014657c92da2ffb2b241a9d47a5f094b3a818adb433a91d7ed650851860581fb964736f6c63430008040033",
  "immutableReferences": {},
  "source": "// SPDX-License-Identifier: MIT\r\npragma solidity ^0.8.4;\r\n\r\ncontract Votacion {\r\n    // Nombre de la votacin\r\n    string public nombre;\r\n    // Estado de la votacin (en terminos de eliminacion)\r\n    bool public estado = false;\r\n    // Estado de la votacin (en trminos de si acab o no)\r\n    bool public terminada = false;\r\n    // Los candidatos de la votacin\r\n    string[] public candidatos;\r\n    // Mapeo de candidato a votos\r\n    mapping(uint => uint) public votos;\r\n\r\n    // Direccin del creador de la votacin\r\n    address public factory;\r\n\r\n    // Descripcin de la votacin\r\n    string descripcion;\r\n\r\n    // Constructor que recibe el nombre y los candidatos\r\n    constructor(string memory _nombre, string[] memory _candidatos, address _factory, string memory _descripcion) {\r\n        nombre = _nombre;\r\n        estado = true;\r\n        candidatos = _candidatos;\r\n        factory = _factory; \r\n        descripcion = _descripcion;\r\n    }\r\n\r\n    // Funcin para eliminar la votacin\r\n    function eliminar() public {\r\n        require(msg.sender == factory, \"Solo la factory puede eliminar la votacion\");\r\n        estado = false;\r\n    }\r\n\r\n    // Funcin para terminar la votacin\r\n    function terminarVotacion() public {\r\n        require(msg.sender == factory, \"Solo la factory puede terminar la votacion\");\r\n        terminada = true;\r\n    }\r\n\r\n    // Funcin para obtener el nombre de la votacin\r\n    function obtenerNombre() public view returns (string memory) {\r\n        return nombre;\r\n    }\r\n\r\n    // Funcin para votar\r\n    function votar(uint candidato) public {\r\n        require(estado, \"Esta votacion ha sido eliminada\");\r\n        require(!terminada, \"Esta votacion ya ha finalizado\");\r\n        votos[candidato]++;\r\n    }\r\n\r\n    // Funcin para obtener el conteo de votos de un candidato\r\n    function obtenerVotos(uint candidato) public view returns (uint) {\r\n        return votos[candidato];\r\n    }\r\n\r\n    // Funcin para obtener el estado de la votacin\r\n    function obtenerEstado() public view returns (bool) {\r\n        return estado;\r\n    }\r\n\r\n    // Funcin para ver si ha sido terminada la votacin\r\n    function obtenerTerminada() public view returns (bool) {\r\n        return terminada;\r\n    }\r\n\r\n    // Funcin para obtener el nmero de candidatos\r\n    function obtenerNumCandidatos() public view returns (uint) {\r\n        return candidatos.length;\r\n    }\r\n\r\n    // Funcin para obtener la descripcin de la votacin\r\n    function obtenerDescripcion() public view returns (string memory) {\r\n        return descripcion;\r\n    }\r\n}\r\n",
  "sourcePath": "C:\\Users\\benja\\Desktop\\votacion\\src\\contracts\\Votacion.sol",
  "compiler": {
    "name": "solc",
    "version": "0.8.4+commit.c7e474f2.Emscripten.clang"
  },
  "schemaVersion": "3.4.7",
  "updatedAt": "2023-12-02T13:33:58.202Z",
  "devdoc": {
    "kind": "dev",
    "methods": {},
    "version": 1
  },
  "userdoc": {
    "kind": "user",
    "methods": {},
    "version": 1
  }
}