{
  "contractName": "VotacionDHondt",
  "abi": [
    {
      "inputs": [
        {
          "internalType": "string",
          "name": "_nombre",
          "type": "string"
        },
        {
          "internalType": "string[][]",
          "name": "_listas",
          "type": "string[][]"
        },
        {
          "internalType": "string[]",
          "name": "_nombresDeListas",
          "type": "string[]"
        },
        {
          "internalType": "address",
          "name": "_factory",
          "type": "address"
        },
        {
          "internalType": "string",
          "name": "_descripcion",
          "type": "string"
        },
        {
          "internalType": "uint256",
          "name": "_escanios",
          "type": "uint256"
        },
        {
          "internalType": "string",
          "name": "_metodoConteo",
          "type": "string"
        }
      ],
      "stateMutability": "nonpayable",
      "type": "constructor"
    },
    {
      "inputs": [
        {
          "internalType": "uint256",
          "name": "",
          "type": "uint256"
        }
      ],
      "name": "candidatos",
      "outputs": [
        {
          "internalType": "string",
          "name": "",
          "type": "string"
        }
      ],
      "stateMutability": "view",
      "type": "function"
    },
    {
      "inputs": [],
      "name": "eliminar",
      "outputs": [],
      "stateMutability": "nonpayable",
      "type": "function"
    },
    {
      "inputs": [],
      "name": "escanios",
      "outputs": [
        {
          "internalType": "uint256",
          "name": "",
          "type": "uint256"
        }
      ],
      "stateMutability": "view",
      "type": "function"
    },
    {
      "inputs": [],
      "name": "estado",
      "outputs": [
        {
          "internalType": "bool",
          "name": "",
          "type": "bool"
        }
      ],
      "stateMutability": "view",
      "type": "function"
    },
    {
      "inputs": [],
      "name": "factory",
      "outputs": [
        {
          "internalType": "address",
          "name": "",
          "type": "address"
        }
      ],
      "stateMutability": "view",
      "type": "function"
    },
    {
      "inputs": [
        {
          "internalType": "uint256",
          "name": "",
          "type": "uint256"
        },
        {
          "internalType": "uint256",
          "name": "",
          "type": "uint256"
        }
      ],
      "name": "listas",
      "outputs": [
        {
          "internalType": "string",
          "name": "",
          "type": "string"
        }
      ],
      "stateMutability": "view",
      "type": "function"
    },
    {
      "inputs": [],
      "name": "metodoConteo",
      "outputs": [
        {
          "internalType": "string",
          "name": "",
          "type": "string"
        }
      ],
      "stateMutability": "view",
      "type": "function"
    },
    {
      "inputs": [],
      "name": "nombre",
      "outputs": [
        {
          "internalType": "string",
          "name": "",
          "type": "string"
        }
      ],
      "stateMutability": "view",
      "type": "function"
    },
    {
      "inputs": [
        {
          "internalType": "uint256",
          "name": "",
          "type": "uint256"
        }
      ],
      "name": "nombresDeListas",
      "outputs": [
        {
          "internalType": "string",
          "name": "",
          "type": "string"
        }
      ],
      "stateMutability": "view",
      "type": "function"
    },
    {
      "inputs": [],
      "name": "obtenerDescripcion",
      "outputs": [
        {
          "internalType": "string",
          "name": "",
          "type": "string"
        }
      ],
      "stateMutability": "view",
      "type": "function"
    },
    {
      "inputs": [],
      "name": "obtenerEstado",
      "outputs": [
        {
          "internalType": "bool",
          "name": "",
          "type": "bool"
        }
      ],
      "stateMutability": "view",
      "type": "function"
    },
    {
      "inputs": [],
      "name": "obtenerMetodoConteo",
      "outputs": [
        {
          "internalType": "string",
          "name": "",
          "type": "string"
        }
      ],
      "stateMutability": "view",
      "type": "function"
    },
    {
      "inputs": [],
      "name": "obtenerNombre",
      "outputs": [
        {
          "internalType": "string",
          "name": "",
          "type": "string"
        }
      ],
      "stateMutability": "view",
      "type": "function"
    },
    {
      "inputs": [],
      "name": "obtenerNumCandidatos",
      "outputs": [
        {
          "internalType": "uint256",
          "name": "",
          "type": "uint256"
        }
      ],
      "stateMutability": "view",
      "type": "function"
    },
    {
      "inputs": [],
      "name": "obtenerTerminada",
      "outputs": [
        {
          "internalType": "bool",
          "name": "",
          "type": "bool"
        }
      ],
      "stateMutability": "view",
      "type": "function"
    },
    {
      "inputs": [],
      "name": "terminada",
      "outputs": [
        {
          "internalType": "bool",
          "name": "",
          "type": "bool"
        }
      ],
      "stateMutability": "view",
      "type": "function"
    },
    {
      "inputs": [],
      "name": "terminarVotacion",
      "outputs": [],
      "stateMutability": "nonpayable",
      "type": "function"
    },
    {
      "inputs": [
        {
          "internalType": "uint256",
          "name": "candidato",
          "type": "uint256"
        }
      ],
      "name": "votar",
      "outputs": [],
      "stateMutability": "nonpayable",
      "type": "function"
    },
    {
      "inputs": [
        {
          "internalType": "uint256",
          "name": "",
          "type": "uint256"
        }
      ],
      "name": "votos",
      "outputs": [
        {
          "internalType": "uint256",
          "name": "",
          "type": "uint256"
        }
      ],
      "stateMutability": "view",
      "type": "function"
    },
    {
      "inputs": [
        {
          "internalType": "uint256",
          "name": "",
          "type": "uint256"
        },
        {
          "internalType": "uint256",
          "name": "",
          "type": "uint256"
        }
      ],
      "name": "votosDhondt",
      "outputs": [
        {
          "internalType": "uint256",
          "name": "",
          "type": "uint256"
        }
      ],
      "stateMutability": "view",
      "type": "function"
    },
    {
      "inputs": [],
      "name": "obtenerEscanios",
      "outputs": [
        {
          "internalType": "uint256",
          "name": "",
          "type": "uint256"
        }
      ],
      "stateMutability": "view",
      "type": "function"
    },
    {
      "inputs": [
        {
          "internalType": "uint256",
          "name": "listaIndex",
          "type": "uint256"
        },
        {
          "internalType": "uint256",
          "name": "candidatoIndex",
          "type": "uint256"
        }
      ],
      "name": "votarDhondt",
      "outputs": [],
      "stateMutability": "nonpayable",
      "type": "function"
    },
    {
      "inputs": [
        {
          "internalType": "uint256",
          "name": "lista",
          "type": "uint256"
        },
        {
          "internalType": "uint256",
          "name": "candidato",
          "type": "uint256"
        }
      ],
      "name": "obtenerVotos",
      "outputs": [
        {
          "internalType": "uint256",
          "name": "",
          "type": "uint256"
        }
      ],
      "stateMutability": "view",
      "type": "function"
    },
    {
      "inputs": [
        {
          "internalType": "uint256",
          "name": "candidato",
          "type": "uint256"
        }
      ],
      "name": "obtenerVotos",
      "outputs": [
        {
          "internalType": "uint256",
          "name": "",
          "type": "uint256"
        }
      ],
      "stateMutability": "view",
      "type": "function"
    },
    {
      "inputs": [
        {
          "internalType": "uint256",
          "name": "lista",
          "type": "uint256"
        }
      ],
      "name": "obtenerNumCandidatosLista",
      "outputs": [
        {
          "internalType": "uint256",
          "name": "",
          "type": "uint256"
        }
      ],
      "stateMutability": "view",
      "type": "function"
    },
    {
      "inputs": [],
      "name": "obtenerNumListas",
      "outputs": [
        {
          "internalType": "uint256",
          "name": "",
          "type": "uint256"
        }
      ],
      "stateMutability": "view",
      "type": "function"
    },
    {
      "inputs": [
        {
          "internalType": "uint256",
          "name": "lista",
          "type": "uint256"
        },
        {
          "internalType": "uint256",
          "name": "candidato",
          "type": "uint256"
        }
      ],
      "name": "obtenerCandidatoLista",
      "outputs": [
        {
          "internalType": "string",
          "name": "",
          "type": "string"
        }
      ],
      "stateMutability": "view",
      "type": "function"
    },
    {
      "inputs": [
        {
          "internalType": "uint256",
          "name": "lista",
          "type": "uint256"
        }
      ],
      "name": "obtenerVotosLista",
      "outputs": [
        {
          "internalType": "uint256[]",
          "name": "",
          "type": "uint256[]"
        }
      ],
      "stateMutability": "view",
      "type": "function"
    },
    {
      "inputs": [],
      "name": "obtenerTodosLosVotos",
      "outputs": [
        {
          "internalType": "uint256[][]",
          "name": "",
          "type": "uint256[][]"
        }
      ],
      "stateMutability": "view",
      "type": "function"
    },
    {
      "inputs": [
        {
          "internalType": "uint256",
          "name": "lista",
          "type": "uint256"
        }
      ],
      "name": "obtenerNombreLista",
      "outputs": [
        {
          "internalType": "string",
          "name": "",
          "type": "string"
        }
      ],
      "stateMutability": "view",
      "type": "function"
    }
  ],
  "bytecode": "0x60806040526000600160006101000a81548160ff02191690831515021790555060006001806101000a81548160ff0219169083151502179055503480156200004657600080fd5b50604051620028eb380380620028eb83398181016040528101906200006c919062000a3b565b8686600081518110620000a8577f4e487b7100000000000000000000000000000000000000000000000000000000600052603260045260246000fd5b60200260200101518585848460009080519060200190620000cb929190620004e6565b5060018060006101000a81548160ff0219169083151502179055508360029080519060200190620000fe92919062000577565b5082600560006101000a81548173ffffffffffffffffffffffffffffffffffffffff021916908373ffffffffffffffffffffffffffffffffffffffff160217905550816006908051906020019062000158929190620004e6565b50806004908051906020019062000171929190620004e6565b50505050505081600781905550856008908051906020019062000196929190620005de565b5060018060006101000a81548160ff0219169083151502179055508460099080519060200190620001c992919062000577565b50855167ffffffffffffffff8111156200020c577f4e487b7100000000000000000000000000000000000000000000000000000000600052604160045260246000fd5b6040519080825280602002602001820160405280156200024157816020015b60608152602001906001900390816200022b5790505b50600a90805190602001906200025992919062000645565b5060005b86518110156200038b57868181518110620002a1577f4e487b7100000000000000000000000000000000000000000000000000000000600052603260045260246000fd5b60200260200101515167ffffffffffffffff811115620002ea577f4e487b7100000000000000000000000000000000000000000000000000000000600052604160045260246000fd5b604051908082528060200260200182016040528015620003195781602001602082028036833780820191505090505b50600a828154811062000355577f4e487b7100000000000000000000000000000000000000000000000000000000600052603260045260246000fd5b90600052602060002001908051906020019062000374929190620006ac565b508080620003829062000d02565b9150506200025d565b506000600190505b8651811015620004d85760005b878281518110620003da577f4e487b7100000000000000000000000000000000000000000000000000000000600052603260045260246000fd5b602002602001015151811015620004c157600288838151811062000427577f4e487b7100000000000000000000000000000000000000000000000000000000600052603260045260246000fd5b6020026020010151828151811062000468577f4e487b7100000000000000000000000000000000000000000000000000000000600052603260045260246000fd5b6020026020010151908060018154018082558091505060019003906000526020600020016000909190919091509080519060200190620004aa929190620004e6565b508080620004b89062000d02565b915050620003a0565b508080620004cf9062000d02565b91505062000393565b505050505050505062000e22565b828054620004f49062000c96565b90600052602060002090601f01602090048101928262000518576000855562000564565b82601f106200053357805160ff191683800117855562000564565b8280016001018555821562000564579182015b828111156200056357825182559160200191906001019062000546565b5b509050620005739190620006fe565b5090565b828054828255906000526020600020908101928215620005cb579160200282015b82811115620005ca578251829080519060200190620005b9929190620004e6565b509160200191906001019062000598565b5b509050620005da91906200071d565b5090565b82805482825590600052602060002090810192821562000632579160200282015b82811115620006315782518290805190602001906200062092919062000577565b5091602001919060010190620005ff565b5b50905062000641919062000745565b5090565b82805482825590600052602060002090810192821562000699579160200282015b828111156200069857825182908051906020019062000687929190620006ac565b509160200191906001019062000666565b5b509050620006a891906200076d565b5090565b828054828255906000526020600020908101928215620006eb579160200282015b82811115620006ea578251825591602001919060010190620006cd565b5b509050620006fa9190620006fe565b5090565b5b8082111562000719576000816000905550600101620006ff565b5090565b5b8082111562000741576000818162000737919062000795565b506001016200071e565b5090565b5b808211156200076957600081816200075f9190620007db565b5060010162000746565b5090565b5b80821115620007915760008181620007879190620007fe565b506001016200076e565b5090565b508054620007a39062000c96565b6000825580601f10620007b75750620007d8565b601f016020900490600052602060002090810190620007d79190620006fe565b5b50565b5080546000825590600052602060002090810190620007fb91906200071d565b50565b50805460008255906000526020600020908101906200081e9190620006fe565b50565b600062000838620008328462000b8e565b62000b65565b905080838252602082019050828560208602820111156200085857600080fd5b60005b85811015620008a757815167ffffffffffffffff8111156200087c57600080fd5b8086016200088b8982620009ca565b855260208501945060208401935050506001810190506200085b565b5050509392505050565b6000620008c8620008c28462000bbd565b62000b65565b90508083825260208201905082856020860282011115620008e857600080fd5b60005b858110156200093757815167ffffffffffffffff8111156200090c57600080fd5b8086016200091b8982620009f7565b85526020850194506020840193505050600181019050620008eb565b5050509392505050565b600062000958620009528462000bec565b62000b65565b9050828152602081018484840111156200097157600080fd5b6200097e84828562000c60565b509392505050565b600081519050620009978162000dee565b92915050565b600082601f830112620009af57600080fd5b8151620009c184826020860162000821565b91505092915050565b600082601f830112620009dc57600080fd5b8151620009ee848260208601620008b1565b91505092915050565b600082601f83011262000a0957600080fd5b815162000a1b84826020860162000941565b91505092915050565b60008151905062000a358162000e08565b92915050565b600080600080600080600060e0888a03121562000a5757600080fd5b600088015167ffffffffffffffff81111562000a7257600080fd5b62000a808a828b01620009f7565b975050602088015167ffffffffffffffff81111562000a9e57600080fd5b62000aac8a828b016200099d565b965050604088015167ffffffffffffffff81111562000aca57600080fd5b62000ad88a828b01620009ca565b955050606062000aeb8a828b0162000986565b945050608088015167ffffffffffffffff81111562000b0957600080fd5b62000b178a828b01620009f7565b93505060a062000b2a8a828b0162000a24565b92505060c088015167ffffffffffffffff81111562000b4857600080fd5b62000b568a828b01620009f7565b91505092959891949750929550565b600062000b7162000b84565b905062000b7f828262000ccc565b919050565b6000604051905090565b600067ffffffffffffffff82111562000bac5762000bab62000dae565b5b602082029050602081019050919050565b600067ffffffffffffffff82111562000bdb5762000bda62000dae565b5b602082029050602081019050919050565b600067ffffffffffffffff82111562000c0a5762000c0962000dae565b5b62000c158262000ddd565b9050602081019050919050565b600062000c2f8262000c36565b9050919050565b600073ffffffffffffffffffffffffffffffffffffffff82169050919050565b6000819050919050565b60005b8381101562000c8057808201518184015260208101905062000c63565b8381111562000c90576000848401525b50505050565b6000600282049050600182168062000caf57607f821691505b6020821081141562000cc65762000cc562000d7f565b5b50919050565b62000cd78262000ddd565b810181811067ffffffffffffffff8211171562000cf95762000cf862000dae565b5b80604052505050565b600062000d0f8262000c56565b91507fffffffffffffffffffffffffffffffffffffffffffffffffffffffffffffffff82141562000d455762000d4462000d50565b5b600182019050919050565b7f4e487b7100000000000000000000000000000000000000000000000000000000600052601160045260246000fd5b7f4e487b7100000000000000000000000000000000000000000000000000000000600052602260045260246000fd5b7f4e487b7100000000000000000000000000000000000000000000000000000000600052604160045260246000fd5b6000601f19601f8301169050919050565b62000df98162000c22565b811462000e0557600080fd5b50565b62000e138162000c56565b811462000e1f57600080fd5b50565b611ab98062000e326000396000f3fe608060405234801561001057600080fd5b50600436106101da5760003560e01c80639159723311610104578063bc7b35b2116100a2578063d777189f11610071578063d777189f14610587578063dc8f8277146105a5578063de155b89146105d5578063e685aa48146105f3576101da565b8063bc7b35b2146104eb578063c45a015514610509578063cbf77c2e14610527578063d0a3776d14610557576101da565b8063a3a2bc15116100de578063a3a2bc151461044f578063a813957d1461046d578063b2731f0e1461048b578063b7fa8560146104bb576101da565b806391597233146103d1578063a0a041f814610401578063a2f6148d14610431576101da565b8063586eecaf1161017c578063722d22fc1161014b578063722d22fc146103475780637f49d855146103655780638f023f8514610383578063901c3fee146103b3576101da565b8063586eecaf146102d15780636657499e14610301578063688e34671461030b5780636f1c11e914610329576101da565b80631bfb66d6116101b85780631bfb66d614610249578063216068311461026757806332add3c31461028357806347bc22f2146102b3576101da565b8063056a6ed9146101df5780630da2aef11461020f5780630e47299b1461022d575b600080fd5b6101f960048036038101906101f491906113a7565b6105fd565b604051610206919061175d565b60405180910390f35b61021761068e565b60405161022491906116a0565b60405180910390f35b610247600480360381019061024291906113a7565b61069f565b005b6102516107dc565b60405161025e91906116a0565b60405180910390f35b610281600480360381019061027c919061137e565b6107f1565b005b61029d600480360381019061029891906113a7565b6108ba565b6040516102aa919061175d565b60405180910390f35b6102bb6108f7565b6040516102c8919061175d565b60405180910390f35b6102eb60048036038101906102e6919061137e565b610904565b6040516102f8919061167e565b60405180910390f35b6103096109a0565b005b610313610a4c565b60405161032091906116a0565b60405180910390f35b610331610a5f565b60405161033e919061175d565b60405180910390f35b61034f610a69565b60405161035c91906116a0565b60405180910390f35b61036d610a80565b60405161037a91906116bb565b60405180910390f35b61039d6004803603810190610398919061137e565b610b12565b6040516103aa91906116bb565b60405180910390f35b6103bb610bbe565b6040516103c891906116bb565b60405180910390f35b6103eb60048036038101906103e6919061137e565b610c50565b6040516103f8919061175d565b60405180910390f35b61041b6004803603810190610416919061137e565b610c6d565b60405161042891906116bb565b60405180910390f35b610439610d43565b60405161044691906116bb565b60405180910390f35b610457610dd5565b604051610464919061175d565b60405180910390f35b610475610de2565b60405161048291906116bb565b60405180910390f35b6104a560048036038101906104a0919061137e565b610e70565b6040516104b2919061175d565b60405180910390f35b6104d560048036038101906104d091906113a7565b610e88565b6040516104e291906116bb565b60405180910390f35b6104f3610fa1565b60405161050091906116bb565b60405180910390f35b61051161102f565b60405161051e9190611641565b60405180910390f35b610541600480360381019061053c919061137e565b611055565b60405161054e919061175d565b60405180910390f35b610571600480360381019061056c919061137e565b6110a6565b60405161057e91906116bb565b60405180910390f35b61058f611152565b60405161059c919061175d565b60405180910390f35b6105bf60048036038101906105ba91906113a7565b611158565b6040516105cc91906116bb565b60405180910390f35b6105dd61121d565b6040516105ea919061165c565b60405180910390f35b6105fb6112bc565b005b6000600a8381548110610639577f4e487b7100000000000000000000000000000000000000000000000000000000600052603260045260246000fd5b90600052602060002001828154811061067b577f4e487b7100000000000000000000000000000000000000000000000000000000600052603260045260246000fd5b9060005260206000200154905092915050565b60018054906101000a900460ff1681565b600160009054906101000a900460ff166106ee576040517f08c379a00000000000000000000000000000000000000000000000000000000081526004016106e5906116dd565b60405180910390fd5b60018054906101000a900460ff161561073c576040517f08c379a00000000000000000000000000000000000000000000000000000000081526004016107339061173d565b60405180910390fd5b600a8281548110610776577f4e487b7100000000000000000000000000000000000000000000000000000000600052603260045260246000fd5b9060005260206000200181815481106107b8577f4e487b7100000000000000000000000000000000000000000000000000000000600052603260045260246000fd5b9060005260206000200160008154809291906107d3906118c4565b91905055505050565b600060018054906101000a900460ff16905090565b600160009054906101000a900460ff16610840576040517f08c379a0000000000000000000000000000000000000000000000000000000008152600401610837906116dd565b60405180910390fd5b60018054906101000a900460ff161561088e576040517f08c379a00000000000000000000000000000000000000000000000000000000081526004016108859061173d565b60405180910390fd5b6003600082815260200190815260200160002060008154809291906108b2906118c4565b919050555050565b600a82815481106108ca57600080fd5b9060005260206000200181815481106108e257600080fd5b90600052602060002001600091509150505481565b6000600280549050905090565b6060600a8281548110610940577f4e487b7100000000000000000000000000000000000000000000000000000000600052603260045260246000fd5b9060005260206000200180548060200260200160405190810160405280929190818152602001828054801561099457602002820191906000526020600020905b815481526020019060010190808311610980575b50505050509050919050565b600560009054906101000a900473ffffffffffffffffffffffffffffffffffffffff1673ffffffffffffffffffffffffffffffffffffffff163373ffffffffffffffffffffffffffffffffffffffff1614610a30576040517f08c379a0000000000000000000000000000000000000000000000000000000008152600401610a27906116fd565b60405180910390fd5b60018060016101000a81548160ff021916908315150217905550565b600160009054906101000a900460ff1681565b6000600754905090565b6000600160009054906101000a900460ff16905090565b606060008054610a8f90611892565b80601f0160208091040260200160405190810160405280929190818152602001828054610abb90611892565b8015610b085780601f10610add57610100808354040283529160200191610b08565b820191906000526020600020905b815481529060010190602001808311610aeb57829003601f168201915b5050505050905090565b60028181548110610b2257600080fd5b906000526020600020016000915090508054610b3d90611892565b80601f0160208091040260200160405190810160405280929190818152602001828054610b6990611892565b8015610bb65780601f10610b8b57610100808354040283529160200191610bb6565b820191906000526020600020905b815481529060010190602001808311610b9957829003601f168201915b505050505081565b606060068054610bcd90611892565b80601f0160208091040260200160405190810160405280929190818152602001828054610bf990611892565b8015610c465780601f10610c1b57610100808354040283529160200191610c46565b820191906000526020600020905b815481529060010190602001808311610c2957829003601f168201915b5050505050905090565b600060036000838152602001908152602001600020549050919050565b606060098281548110610ca9577f4e487b7100000000000000000000000000000000000000000000000000000000600052603260045260246000fd5b906000526020600020018054610cbe90611892565b80601f0160208091040260200160405190810160405280929190818152602001828054610cea90611892565b8015610d375780601f10610d0c57610100808354040283529160200191610d37565b820191906000526020600020905b815481529060010190602001808311610d1a57829003601f168201915b50505050509050919050565b606060048054610d5290611892565b80601f0160208091040260200160405190810160405280929190818152602001828054610d7e90611892565b8015610dcb5780601f10610da057610100808354040283529160200191610dcb565b820191906000526020600020905b815481529060010190602001808311610dae57829003601f168201915b5050505050905090565b6000600880549050905090565b60048054610def90611892565b80601f0160208091040260200160405190810160405280929190818152602001828054610e1b90611892565b8015610e685780601f10610e3d57610100808354040283529160200191610e68565b820191906000526020600020905b815481529060010190602001808311610e4b57829003601f168201915b505050505081565b60036020528060005260406000206000915090505481565b606060088381548110610ec4577f4e487b7100000000000000000000000000000000000000000000000000000000600052603260045260246000fd5b906000526020600020018281548110610f06577f4e487b7100000000000000000000000000000000000000000000000000000000600052603260045260246000fd5b906000526020600020018054610f1b90611892565b80601f0160208091040260200160405190810160405280929190818152602001828054610f4790611892565b8015610f945780601f10610f6957610100808354040283529160200191610f94565b820191906000526020600020905b815481529060010190602001808311610f7757829003601f168201915b5050505050905092915050565b60008054610fae90611892565b80601f0160208091040260200160405190810160405280929190818152602001828054610fda90611892565b80156110275780601f10610ffc57610100808354040283529160200191611027565b820191906000526020600020905b81548152906001019060200180831161100a57829003601f168201915b505050505081565b600560009054906101000a900473ffffffffffffffffffffffffffffffffffffffff1681565b600060088281548110611091577f4e487b7100000000000000000000000000000000000000000000000000000000600052603260045260246000fd5b90600052602060002001805490509050919050565b600981815481106110b657600080fd5b9060005260206000200160009150905080546110d190611892565b80601f01602080910402602001604051908101604052809291908181526020018280546110fd90611892565b801561114a5780601f1061111f5761010080835404028352916020019161114a565b820191906000526020600020905b81548152906001019060200180831161112d57829003601f168201915b505050505081565b60075481565b6008828154811061116857600080fd5b90600052602060002001818154811061118057600080fd5b9060005260206000200160009150915050805461119c90611892565b80601f01602080910402602001604051908101604052809291908181526020018280546111c890611892565b80156112155780601f106111ea57610100808354040283529160200191611215565b820191906000526020600020905b8154815290600101906020018083116111f857829003601f168201915b505050505081565b6060600a805480602002602001604051908101604052809291908181526020016000905b828210156112b35783829060005260206000200180548060200260200160405190810160405280929190818152602001828054801561129f57602002820191906000526020600020905b81548152602001906001019080831161128b575b505050505081526020019060010190611241565b50505050905090565b600560009054906101000a900473ffffffffffffffffffffffffffffffffffffffff1673ffffffffffffffffffffffffffffffffffffffff163373ffffffffffffffffffffffffffffffffffffffff161461134c576040517f08c379a00000000000000000000000000000000000000000000000000000000081526004016113439061171d565b60405180910390fd5b6000600160006101000a81548160ff021916908315150217905550565b60008135905061137881611a6c565b92915050565b60006020828403121561139057600080fd5b600061139e84828501611369565b91505092915050565b600080604083850312156113ba57600080fd5b60006113c885828601611369565b92505060206113d985828601611369565b9150509250929050565b60006113ef8383611493565b905092915050565b60006114038383611623565b60208301905092915050565b61141881611817565b82525050565b600061142982611798565b61143381856117d3565b93508360208202850161144585611778565b8060005b85811015611481578484038952815161146285826113e3565b945061146d836117b9565b925060208a01995050600181019050611449565b50829750879550505050505092915050565b600061149e826117a3565b6114a881856117e4565b93506114b383611788565b8060005b838110156114e45781516114cb88826113f7565b97506114d6836117c6565b9250506001810190506114b7565b5085935050505092915050565b60006114fc826117a3565b61150681856117f5565b935061151183611788565b8060005b8381101561154257815161152988826113f7565b9750611534836117c6565b925050600181019050611515565b5085935050505092915050565b61155881611829565b82525050565b6000611569826117ae565b6115738185611806565b935061158381856020860161185f565b61158c8161196b565b840191505092915050565b60006115a4601f83611806565b91506115af8261197c565b602082019050919050565b60006115c7602a83611806565b91506115d2826119a5565b604082019050919050565b60006115ea602a83611806565b91506115f5826119f4565b604082019050919050565b600061160d601e83611806565b915061161882611a43565b602082019050919050565b61162c81611855565b82525050565b61163b81611855565b82525050565b6000602082019050611656600083018461140f565b92915050565b60006020820190508181036000830152611676818461141e565b905092915050565b6000602082019050818103600083015261169881846114f1565b905092915050565b60006020820190506116b5600083018461154f565b92915050565b600060208201905081810360008301526116d5818461155e565b905092915050565b600060208201905081810360008301526116f681611597565b9050919050565b60006020820190508181036000830152611716816115ba565b9050919050565b60006020820190508181036000830152611736816115dd565b9050919050565b6000602082019050818103600083015261175681611600565b9050919050565b60006020820190506117726000830184611632565b92915050565b6000819050602082019050919050565b6000819050602082019050919050565b600081519050919050565b600081519050919050565b600081519050919050565b6000602082019050919050565b6000602082019050919050565b600082825260208201905092915050565b600082825260208201905092915050565b600082825260208201905092915050565b600082825260208201905092915050565b600061182282611835565b9050919050565b60008115159050919050565b600073ffffffffffffffffffffffffffffffffffffffff82169050919050565b6000819050919050565b60005b8381101561187d578082015181840152602081019050611862565b8381111561188c576000848401525b50505050565b600060028204905060018216806118aa57607f821691505b602082108114156118be576118bd61193c565b5b50919050565b60006118cf82611855565b91507fffffffffffffffffffffffffffffffffffffffffffffffffffffffffffffffff8214156119025761190161190d565b5b600182019050919050565b7f4e487b7100000000000000000000000000000000000000000000000000000000600052601160045260246000fd5b7f4e487b7100000000000000000000000000000000000000000000000000000000600052602260045260246000fd5b6000601f19601f8301169050919050565b7f4573746120766f746163696f6e206861207369646f20656c696d696e61646100600082015250565b7f536f6c6f206c6120666163746f7279207075656465207465726d696e6172206c60008201527f6120766f746163696f6e00000000000000000000000000000000000000000000602082015250565b7f536f6c6f206c6120666163746f727920707565646520656c696d696e6172206c60008201527f6120766f746163696f6e00000000000000000000000000000000000000000000602082015250565b7f4573746120766f746163696f6e2079612068612066696e616c697a61646f0000600082015250565b611a7581611855565b8114611a8057600080fd5b5056fea26469706673582212205373aac0d6ed6c6c0032b60b73ee3db4d74872fa15223996ed0a52cfb3a1730c64736f6c63430008040033",
  "immutableReferences": {},
  "source": "// SPDX-License-Identifier: MIT\r\npragma solidity ^0.8.4;\r\n\r\nimport \"./Votacion.sol\";\r\n\r\ncontract VotacionDHondt is Votacion {\r\n    uint public escanios;\r\n    string[][] public listas;\r\n    string[] public nombresDeListas;\r\n    uint[][] public votosDhondt;\r\n\r\n    struct Resultado {\r\n        string nombre;\r\n        uint escanios;\r\n        CandidatoElecto[] candidatosElectos;\r\n    }\r\n\r\n    struct CandidatoElecto {\r\n        string nombre;\r\n        uint votos;\r\n    }\r\n\r\n    constructor(string memory _nombre, string[][] memory _listas, string[] memory _nombresDeListas, address _factory, string memory _descripcion, uint _escanios, string memory _metodoConteo)\r\n        Votacion(_nombre, _listas[0], _factory, _descripcion, _metodoConteo) {\r\n        escanios = _escanios;\r\n        listas = _listas;\r\n        estado = true;\r\n        nombresDeListas = _nombresDeListas;\r\n        votosDhondt = new uint[][](_listas.length);\r\n\r\n        for(uint i=0; i<_listas.length ; i++){\r\n            votosDhondt[i] = new uint[](_listas[i].length);\r\n        }\r\n\r\n        for (uint i = 1; i < _listas.length; i++) {\r\n            for (uint j = 0; j < _listas[i].length; j++) {\r\n                candidatos.push(_listas[i][j]);\r\n            }\r\n        }\r\n    }\r\n\r\n\r\n    function obtenerEscanios() public view returns (uint){\r\n        return escanios;\r\n    }\r\n\r\n    // Funcin para votar\r\n    function votarDhondt(uint listaIndex, uint candidatoIndex) public {\r\n        require(estado, \"Esta votacion ha sido eliminada\");\r\n        require(!terminada, \"Esta votacion ya ha finalizado\");\r\n        votosDhondt[listaIndex][candidatoIndex]++;\r\n    }\r\n\r\n    // Funcin para obtener el conteo de votos de un candidato\r\n    function obtenerVotos(uint lista, uint candidato) public view returns (uint) {\r\n        return votosDhondt[lista][candidato];\r\n    }\r\n\r\n    // Funcin para obtener el nmero de candidatos de una lista especfica\r\n    function obtenerNumCandidatosLista(uint lista) public view returns (uint) {\r\n        return listas[lista].length;\r\n    }\r\n\r\n    function obtenerNumListas() public view returns (uint) {\r\n        return listas.length;\r\n    }\r\n\r\n    // Funcin para obtener el nombre de un candidato de una lista especfica\r\n    function obtenerCandidatoLista(uint lista, uint candidato) public view returns (string memory) {\r\n        return listas[lista][candidato];\r\n    }\r\n\r\n    function obtenerVotosLista(uint lista) public view returns (uint[] memory) {\r\n        return votosDhondt[lista];\r\n    }\r\n\r\n    function obtenerTodosLosVotos() public view returns (uint[][] memory) {\r\n        return votosDhondt;\r\n    }\r\n\r\n    function obtenerNombreLista(uint lista) public view returns (string memory) {\r\n        return nombresDeListas[lista];\r\n    }\r\n\r\n\r\n\r\n   \r\n}\r\n",
  "sourcePath": "C:\\Users\\benja\\Desktop\\votacion\\src\\contracts\\VotacionDHondt.sol",
  "compiler": {
    "name": "solc",
    "version": "0.8.4+commit.c7e474f2.Emscripten.clang"
  },
  "schemaVersion": "3.4.7",
  "updatedAt": "2023-12-18T21:32:45.774Z",
  "devdoc": {
    "kind": "dev",
    "methods": {},
    "version": 1
  },
  "userdoc": {
    "kind": "user",
    "methods": {},
    "version": 1
  }
}