{
  "contractName": "Votacion",
  "abi": [
    {
      "inputs": [
        {
          "internalType": "string",
          "name": "_nombre",
          "type": "string"
        },
        {
          "internalType": "string[]",
          "name": "_candidatos",
          "type": "string[]"
        },
        {
          "internalType": "address",
          "name": "_factory",
          "type": "address"
        },
        {
          "internalType": "string",
          "name": "_descripcion",
          "type": "string"
        },
        {
          "internalType": "string",
          "name": "_metodoConteo",
          "type": "string"
        }
      ],
      "stateMutability": "nonpayable",
      "type": "constructor"
    },
    {
      "inputs": [
        {
          "internalType": "uint256",
          "name": "",
          "type": "uint256"
        }
      ],
      "name": "candidatos",
      "outputs": [
        {
          "internalType": "string",
          "name": "",
          "type": "string"
        }
      ],
      "stateMutability": "view",
      "type": "function"
    },
    {
      "inputs": [],
      "name": "estado",
      "outputs": [
        {
          "internalType": "bool",
          "name": "",
          "type": "bool"
        }
      ],
      "stateMutability": "view",
      "type": "function"
    },
    {
      "inputs": [],
      "name": "factory",
      "outputs": [
        {
          "internalType": "address",
          "name": "",
          "type": "address"
        }
      ],
      "stateMutability": "view",
      "type": "function"
    },
    {
      "inputs": [],
      "name": "metodoConteo",
      "outputs": [
        {
          "internalType": "string",
          "name": "",
          "type": "string"
        }
      ],
      "stateMutability": "view",
      "type": "function"
    },
    {
      "inputs": [],
      "name": "nombre",
      "outputs": [
        {
          "internalType": "string",
          "name": "",
          "type": "string"
        }
      ],
      "stateMutability": "view",
      "type": "function"
    },
    {
      "inputs": [],
      "name": "terminada",
      "outputs": [
        {
          "internalType": "bool",
          "name": "",
          "type": "bool"
        }
      ],
      "stateMutability": "view",
      "type": "function"
    },
    {
      "inputs": [
        {
          "internalType": "uint256",
          "name": "",
          "type": "uint256"
        }
      ],
      "name": "votos",
      "outputs": [
        {
          "internalType": "uint256",
          "name": "",
          "type": "uint256"
        }
      ],
      "stateMutability": "view",
      "type": "function"
    },
    {
      "inputs": [],
      "name": "eliminar",
      "outputs": [],
      "stateMutability": "nonpayable",
      "type": "function"
    },
    {
      "inputs": [],
      "name": "terminarVotacion",
      "outputs": [],
      "stateMutability": "nonpayable",
      "type": "function"
    },
    {
      "inputs": [],
      "name": "obtenerNombre",
      "outputs": [
        {
          "internalType": "string",
          "name": "",
          "type": "string"
        }
      ],
      "stateMutability": "view",
      "type": "function"
    },
    {
      "inputs": [
        {
          "internalType": "uint256",
          "name": "candidato",
          "type": "uint256"
        }
      ],
      "name": "votar",
      "outputs": [],
      "stateMutability": "nonpayable",
      "type": "function"
    },
    {
      "inputs": [
        {
          "internalType": "uint256",
          "name": "candidato",
          "type": "uint256"
        }
      ],
      "name": "obtenerVotos",
      "outputs": [
        {
          "internalType": "uint256",
          "name": "",
          "type": "uint256"
        }
      ],
      "stateMutability": "view",
      "type": "function"
    },
    {
      "inputs": [],
      "name": "obtenerEstado",
      "outputs": [
        {
          "internalType": "bool",
          "name": "",
          "type": "bool"
        }
      ],
      "stateMutability": "view",
      "type": "function"
    },
    {
      "inputs": [],
      "name": "obtenerTerminada",
      "outputs": [
        {
          "internalType": "bool",
          "name": "",
          "type": "bool"
        }
      ],
      "stateMutability": "view",
      "type": "function"
    },
    {
      "inputs": [],
      "name": "obtenerNumCandidatos",
      "outputs": [
        {
          "internalType": "uint256",
          "name": "",
          "type": "uint256"
        }
      ],
      "stateMutability": "view",
      "type": "function"
    },
    {
      "inputs": [],
      "name": "obtenerDescripcion",
      "outputs": [
        {
          "internalType": "string",
          "name": "",
          "type": "string"
        }
      ],
      "stateMutability": "view",
      "type": "function"
    },
    {
      "inputs": [],
      "name": "obtenerMetodoConteo",
      "outputs": [
        {
          "internalType": "string",
          "name": "",
          "type": "string"
        }
      ],
      "stateMutability": "view",
      "type": "function"
    }
  ],
  "bytecode": "0x60806040526000600160006101000a81548160ff02191690831515021790555060006001806101000a81548160ff0219169083151502179055503480156200004657600080fd5b50604051620015373803806200153783398181016040528101906200006c919062000401565b84600090805190602001906200008492919062000136565b5060018060006101000a81548160ff0219169083151502179055508360029080519060200190620000b7929190620001c7565b5082600560006101000a81548173ffffffffffffffffffffffffffffffffffffffff021916908373ffffffffffffffffffffffffffffffffffffffff16021790555081600690805190602001906200011192919062000136565b5080600490805190602001906200012a92919062000136565b505050505050620006d4565b8280546200014490620005df565b90600052602060002090601f016020900481019282620001685760008555620001b4565b82601f106200018357805160ff1916838001178555620001b4565b82800160010185558215620001b4579182015b82811115620001b357825182559160200191906001019062000196565b5b509050620001c391906200022e565b5090565b8280548282559060005260206000209081019282156200021b579160200282015b828111156200021a5782518290805190602001906200020992919062000136565b5091602001919060010190620001e8565b5b5090506200022a91906200024d565b5090565b5b80821115620002495760008160009055506001016200022f565b5090565b5b8082111562000271576000818162000267919062000275565b506001016200024e565b5090565b5080546200028390620005df565b6000825580601f10620002975750620002b8565b601f016020900490600052602060002090810190620002b791906200022e565b5b50565b6000620002d2620002cc8462000510565b620004e7565b90508083825260208201905082856020860282011115620002f257600080fd5b60005b858110156200034157815167ffffffffffffffff8111156200031657600080fd5b808601620003258982620003d4565b85526020850194506020840193505050600181019050620002f5565b5050509392505050565b6000620003626200035c846200053f565b620004e7565b9050828152602081018484840111156200037b57600080fd5b62000388848285620005a9565b509392505050565b600081519050620003a181620006ba565b92915050565b600082601f830112620003b957600080fd5b8151620003cb848260208601620002bb565b91505092915050565b600082601f830112620003e657600080fd5b8151620003f88482602086016200034b565b91505092915050565b600080600080600060a086880312156200041a57600080fd5b600086015167ffffffffffffffff8111156200043557600080fd5b6200044388828901620003d4565b955050602086015167ffffffffffffffff8111156200046157600080fd5b6200046f88828901620003a7565b9450506040620004828882890162000390565b935050606086015167ffffffffffffffff811115620004a057600080fd5b620004ae88828901620003d4565b925050608086015167ffffffffffffffff811115620004cc57600080fd5b620004da88828901620003d4565b9150509295509295909350565b6000620004f362000506565b905062000501828262000615565b919050565b6000604051905090565b600067ffffffffffffffff8211156200052e576200052d6200067a565b5b602082029050602081019050919050565b600067ffffffffffffffff8211156200055d576200055c6200067a565b5b6200056882620006a9565b9050602081019050919050565b6000620005828262000589565b9050919050565b600073ffffffffffffffffffffffffffffffffffffffff82169050919050565b60005b83811015620005c9578082015181840152602081019050620005ac565b83811115620005d9576000848401525b50505050565b60006002820490506001821680620005f857607f821691505b602082108114156200060f576200060e6200064b565b5b50919050565b6200062082620006a9565b810181811067ffffffffffffffff821117156200064257620006416200067a565b5b80604052505050565b7f4e487b7100000000000000000000000000000000000000000000000000000000600052602260045260246000fd5b7f4e487b7100000000000000000000000000000000000000000000000000000000600052604160045260246000fd5b6000601f19601f8301169050919050565b620006c58162000575565b8114620006d157600080fd5b50565b610e5380620006e46000396000f3fe608060405234801561001057600080fd5b506004361061010b5760003560e01c80638f023f85116100a2578063a813957d11610071578063a813957d14610286578063b2731f0e146102a4578063bc7b35b2146102d4578063c45a0155146102f2578063e685aa48146103105761010b565b80638f023f85146101ea578063901c3fee1461021a5780639159723314610238578063a2f6148d146102685761010b565b80636657499e116100de5780636657499e14610186578063688e346714610190578063722d22fc146101ae5780637f49d855146101cc5761010b565b80630da2aef1146101105780631bfb66d61461012e578063216068311461014c57806347bc22f214610168575b600080fd5b61011861031a565b6040516101259190610abd565b60405180910390f35b61013661032b565b6040516101439190610abd565b60405180910390f35b61016660048036038101906101619190610987565b610340565b005b610170610409565b60405161017d9190610b7a565b60405180910390f35b61018e610416565b005b6101986104c2565b6040516101a59190610abd565b60405180910390f35b6101b66104d5565b6040516101c39190610abd565b60405180910390f35b6101d46104ec565b6040516101e19190610ad8565b60405180910390f35b61020460048036038101906101ff9190610987565b61057e565b6040516102119190610ad8565b60405180910390f35b61022261062a565b60405161022f9190610ad8565b60405180910390f35b610252600480360381019061024d9190610987565b6106bc565b60405161025f9190610b7a565b60405180910390f35b6102706106d9565b60405161027d9190610ad8565b60405180910390f35b61028e61076b565b60405161029b9190610ad8565b60405180910390f35b6102be60048036038101906102b99190610987565b6107f9565b6040516102cb9190610b7a565b60405180910390f35b6102dc610811565b6040516102e99190610ad8565b60405180910390f35b6102fa61089f565b6040516103079190610aa2565b60405180910390f35b6103186108c5565b005b60018054906101000a900460ff1681565b600060018054906101000a900460ff16905090565b600160009054906101000a900460ff1661038f576040517f08c379a000000000000000000000000000000000000000000000000000000000815260040161038690610afa565b60405180910390fd5b60018054906101000a900460ff16156103dd576040517f08c379a00000000000000000000000000000000000000000000000000000000081526004016103d490610b5a565b60405180910390fd5b60036000828152602001908152602001600020600081548092919061040190610c5e565b919050555050565b6000600280549050905090565b600560009054906101000a900473ffffffffffffffffffffffffffffffffffffffff1673ffffffffffffffffffffffffffffffffffffffff163373ffffffffffffffffffffffffffffffffffffffff16146104a6576040517f08c379a000000000000000000000000000000000000000000000000000000000815260040161049d90610b1a565b60405180910390fd5b60018060016101000a81548160ff021916908315150217905550565b600160009054906101000a900460ff1681565b6000600160009054906101000a900460ff16905090565b6060600080546104fb90610c2c565b80601f016020809104026020016040519081016040528092919081815260200182805461052790610c2c565b80156105745780601f1061054957610100808354040283529160200191610574565b820191906000526020600020905b81548152906001019060200180831161055757829003601f168201915b5050505050905090565b6002818154811061058e57600080fd5b9060005260206000200160009150905080546105a990610c2c565b80601f01602080910402602001604051908101604052809291908181526020018280546105d590610c2c565b80156106225780601f106105f757610100808354040283529160200191610622565b820191906000526020600020905b81548152906001019060200180831161060557829003601f168201915b505050505081565b60606006805461063990610c2c565b80601f016020809104026020016040519081016040528092919081815260200182805461066590610c2c565b80156106b25780601f10610687576101008083540402835291602001916106b2565b820191906000526020600020905b81548152906001019060200180831161069557829003601f168201915b5050505050905090565b600060036000838152602001908152602001600020549050919050565b6060600480546106e890610c2c565b80601f016020809104026020016040519081016040528092919081815260200182805461071490610c2c565b80156107615780601f1061073657610100808354040283529160200191610761565b820191906000526020600020905b81548152906001019060200180831161074457829003601f168201915b5050505050905090565b6004805461077890610c2c565b80601f01602080910402602001604051908101604052809291908181526020018280546107a490610c2c565b80156107f15780601f106107c6576101008083540402835291602001916107f1565b820191906000526020600020905b8154815290600101906020018083116107d457829003601f168201915b505050505081565b60036020528060005260406000206000915090505481565b6000805461081e90610c2c565b80601f016020809104026020016040519081016040528092919081815260200182805461084a90610c2c565b80156108975780601f1061086c57610100808354040283529160200191610897565b820191906000526020600020905b81548152906001019060200180831161087a57829003601f168201915b505050505081565b600560009054906101000a900473ffffffffffffffffffffffffffffffffffffffff1681565b600560009054906101000a900473ffffffffffffffffffffffffffffffffffffffff1673ffffffffffffffffffffffffffffffffffffffff163373ffffffffffffffffffffffffffffffffffffffff1614610955576040517f08c379a000000000000000000000000000000000000000000000000000000000815260040161094c90610b3a565b60405180910390fd5b6000600160006101000a81548160ff021916908315150217905550565b60008135905061098181610e06565b92915050565b60006020828403121561099957600080fd5b60006109a784828501610972565b91505092915050565b6109b981610bb1565b82525050565b6109c881610bc3565b82525050565b60006109d982610b95565b6109e38185610ba0565b93506109f3818560208601610bf9565b6109fc81610d05565b840191505092915050565b6000610a14601f83610ba0565b9150610a1f82610d16565b602082019050919050565b6000610a37602a83610ba0565b9150610a4282610d3f565b604082019050919050565b6000610a5a602a83610ba0565b9150610a6582610d8e565b604082019050919050565b6000610a7d601e83610ba0565b9150610a8882610ddd565b602082019050919050565b610a9c81610bef565b82525050565b6000602082019050610ab760008301846109b0565b92915050565b6000602082019050610ad260008301846109bf565b92915050565b60006020820190508181036000830152610af281846109ce565b905092915050565b60006020820190508181036000830152610b1381610a07565b9050919050565b60006020820190508181036000830152610b3381610a2a565b9050919050565b60006020820190508181036000830152610b5381610a4d565b9050919050565b60006020820190508181036000830152610b7381610a70565b9050919050565b6000602082019050610b8f6000830184610a93565b92915050565b600081519050919050565b600082825260208201905092915050565b6000610bbc82610bcf565b9050919050565b60008115159050919050565b600073ffffffffffffffffffffffffffffffffffffffff82169050919050565b6000819050919050565b60005b83811015610c17578082015181840152602081019050610bfc565b83811115610c26576000848401525b50505050565b60006002820490506001821680610c4457607f821691505b60208210811415610c5857610c57610cd6565b5b50919050565b6000610c6982610bef565b91507fffffffffffffffffffffffffffffffffffffffffffffffffffffffffffffffff821415610c9c57610c9b610ca7565b5b600182019050919050565b7f4e487b7100000000000000000000000000000000000000000000000000000000600052601160045260246000fd5b7f4e487b7100000000000000000000000000000000000000000000000000000000600052602260045260246000fd5b6000601f19601f8301169050919050565b7f4573746120766f746163696f6e206861207369646f20656c696d696e61646100600082015250565b7f536f6c6f206c6120666163746f7279207075656465207465726d696e6172206c60008201527f6120766f746163696f6e00000000000000000000000000000000000000000000602082015250565b7f536f6c6f206c6120666163746f727920707565646520656c696d696e6172206c60008201527f6120766f746163696f6e00000000000000000000000000000000000000000000602082015250565b7f4573746120766f746163696f6e2079612068612066696e616c697a61646f0000600082015250565b610e0f81610bef565b8114610e1a57600080fd5b5056fea26469706673582212201347c10e8beb5e314a7887104af0a959883520c478a99766bdc87d6517291a6064736f6c63430008040033",
  "immutableReferences": {},
  "source": "// SPDX-License-Identifier: MIT\r\npragma solidity ^0.8.4;\r\n\r\ncontract Votacion {\r\n    // Nombre de la votacin\r\n    string public nombre;\r\n    // Estado de la votacin (en terminos de eliminacion)\r\n    bool public estado = false;\r\n    // Estado de la votacin (en trminos de si acab o no)\r\n    bool public terminada = false;\r\n    // Los candidatos de la votacin\r\n    string[] public candidatos;\r\n    // Mapeo de candidato a votos\r\n    mapping(uint => uint) public votos;\r\n\r\n    string public metodoConteo;\r\n\r\n\r\n    // Direccin del creador de la votacin\r\n    address public factory;\r\n\r\n    // Descripcin de la votacin\r\n    string descripcion;\r\n\r\n    constructor(string memory _nombre, string[] memory _candidatos, address _factory, string memory _descripcion, string memory _metodoConteo) {\r\n        nombre = _nombre;\r\n        estado = true;\r\n        candidatos = _candidatos;\r\n        factory = _factory; \r\n        descripcion = _descripcion;\r\n        metodoConteo = _metodoConteo;\r\n    }\r\n\r\n\r\n    // Funcin para eliminar la votacin\r\n    function eliminar() public {\r\n        require(msg.sender == factory, \"Solo la factory puede eliminar la votacion\");\r\n        estado = false;\r\n    }\r\n\r\n    // Funcin para terminar la votacin\r\n    function terminarVotacion() public {\r\n        require(msg.sender == factory, \"Solo la factory puede terminar la votacion\");\r\n        terminada = true;\r\n    }\r\n\r\n    // Funcin para obtener el nombre de la votacin\r\n    function obtenerNombre() public view returns (string memory) {\r\n        return nombre;\r\n    }\r\n\r\n    // Funcin para votar\r\n    function votar(uint candidato) public {\r\n        require(estado, \"Esta votacion ha sido eliminada\");\r\n        require(!terminada, \"Esta votacion ya ha finalizado\");\r\n        votos[candidato]++;\r\n    }\r\n\r\n    // Funcin para obtener el conteo de votos de un candidato\r\n    function obtenerVotos(uint candidato) public view returns (uint) {\r\n        return votos[candidato];\r\n    }\r\n\r\n    // Funcin para obtener el estado de la votacin\r\n    function obtenerEstado() public view returns (bool) {\r\n        return estado;\r\n    }\r\n\r\n    // Funcin para ver si ha sido terminada la votacin\r\n    function obtenerTerminada() public view returns (bool) {\r\n        return terminada;\r\n    }\r\n\r\n    // Funcin para obtener el nmero de candidatos\r\n    function obtenerNumCandidatos() public view returns (uint) {\r\n        return candidatos.length;\r\n    }\r\n\r\n    // Funcin para obtener la descripcin de la votacin\r\n    function obtenerDescripcion() public view returns (string memory) {\r\n        return descripcion;\r\n    }\r\n\r\n    function obtenerMetodoConteo() public view returns (string memory) {\r\n        return metodoConteo;\r\n    }\r\n\r\n}\r\n",
  "sourcePath": "C:\\Users\\benja\\Desktop\\votacion\\src\\contracts\\Votacion.sol",
  "compiler": {
    "name": "solc",
    "version": "0.8.4+commit.c7e474f2.Emscripten.clang"
  },
  "schemaVersion": "3.4.7",
  "updatedAt": "2023-12-18T21:32:45.759Z",
  "devdoc": {
    "kind": "dev",
    "methods": {},
    "version": 1
  },
  "userdoc": {
    "kind": "user",
    "methods": {},
    "version": 1
  }
}