{
  "contractName": "Votacion",
  "abi": [
    {
      "inputs": [
        {
          "internalType": "string",
          "name": "_nombre",
          "type": "string"
        },
        {
          "internalType": "string[]",
          "name": "_candidatos",
          "type": "string[]"
        },
        {
          "internalType": "address",
          "name": "_factory",
          "type": "address"
        }
      ],
      "stateMutability": "nonpayable",
      "type": "constructor"
    },
    {
      "inputs": [
        {
          "internalType": "uint256",
          "name": "",
          "type": "uint256"
        }
      ],
      "name": "candidatos",
      "outputs": [
        {
          "internalType": "string",
          "name": "",
          "type": "string"
        }
      ],
      "stateMutability": "view",
      "type": "function"
    },
    {
      "inputs": [],
      "name": "estado",
      "outputs": [
        {
          "internalType": "bool",
          "name": "",
          "type": "bool"
        }
      ],
      "stateMutability": "view",
      "type": "function"
    },
    {
      "inputs": [],
      "name": "factory",
      "outputs": [
        {
          "internalType": "address",
          "name": "",
          "type": "address"
        }
      ],
      "stateMutability": "view",
      "type": "function"
    },
    {
      "inputs": [],
      "name": "nombre",
      "outputs": [
        {
          "internalType": "string",
          "name": "",
          "type": "string"
        }
      ],
      "stateMutability": "view",
      "type": "function"
    },
    {
      "inputs": [],
      "name": "terminada",
      "outputs": [
        {
          "internalType": "bool",
          "name": "",
          "type": "bool"
        }
      ],
      "stateMutability": "view",
      "type": "function"
    },
    {
      "inputs": [
        {
          "internalType": "uint256",
          "name": "",
          "type": "uint256"
        }
      ],
      "name": "votos",
      "outputs": [
        {
          "internalType": "uint256",
          "name": "",
          "type": "uint256"
        }
      ],
      "stateMutability": "view",
      "type": "function"
    },
    {
      "inputs": [],
      "name": "eliminar",
      "outputs": [],
      "stateMutability": "nonpayable",
      "type": "function"
    },
    {
      "inputs": [],
      "name": "terminarVotacion",
      "outputs": [],
      "stateMutability": "nonpayable",
      "type": "function"
    },
    {
      "inputs": [
        {
          "internalType": "uint256",
          "name": "candidato",
          "type": "uint256"
        }
      ],
      "name": "votar",
      "outputs": [],
      "stateMutability": "nonpayable",
      "type": "function"
    },
    {
      "inputs": [
        {
          "internalType": "uint256",
          "name": "candidato",
          "type": "uint256"
        }
      ],
      "name": "obtenerVotos",
      "outputs": [
        {
          "internalType": "uint256",
          "name": "",
          "type": "uint256"
        }
      ],
      "stateMutability": "view",
      "type": "function"
    },
    {
      "inputs": [],
      "name": "obtenerEstado",
      "outputs": [
        {
          "internalType": "bool",
          "name": "",
          "type": "bool"
        }
      ],
      "stateMutability": "view",
      "type": "function"
    },
    {
      "inputs": [],
      "name": "obtenerTerminada",
      "outputs": [
        {
          "internalType": "bool",
          "name": "",
          "type": "bool"
        }
      ],
      "stateMutability": "view",
      "type": "function"
    },
    {
      "inputs": [],
      "name": "obtenerNumCandidatos",
      "outputs": [
        {
          "internalType": "uint256",
          "name": "",
          "type": "uint256"
        }
      ],
      "stateMutability": "view",
      "type": "function"
    }
  ],
  "bytecode": "0x60806040526000600160006101000a81548160ff02191690831515021790555060006001806101000a81548160ff0219169083151502179055503480156200004657600080fd5b50604051620011ad380380620011ad83398181016040528101906200006c9190620003cd565b82600090805190602001906200008492919062000102565b5060018060006101000a81548160ff0219169083151502179055508160029080519060200190620000b792919062000193565b5080600460006101000a81548173ffffffffffffffffffffffffffffffffffffffff021916908373ffffffffffffffffffffffffffffffffffffffff16021790555050505062000642565b82805462000110906200054d565b90600052602060002090601f01602090048101928262000134576000855562000180565b82601f106200014f57805160ff191683800117855562000180565b8280016001018555821562000180579182015b828111156200017f57825182559160200191906001019062000162565b5b5090506200018f9190620001fa565b5090565b828054828255906000526020600020908101928215620001e7579160200282015b82811115620001e6578251829080519060200190620001d592919062000102565b5091602001919060010190620001b4565b5b509050620001f6919062000219565b5090565b5b8082111562000215576000816000905550600101620001fb565b5090565b5b808211156200023d576000818162000233919062000241565b506001016200021a565b5090565b5080546200024f906200054d565b6000825580601f1062000263575062000284565b601f016020900490600052602060002090810190620002839190620001fa565b5b50565b60006200029e62000298846200047e565b62000455565b90508083825260208201905082856020860282011115620002be57600080fd5b60005b858110156200030d57815167ffffffffffffffff811115620002e257600080fd5b808601620002f18982620003a0565b85526020850194506020840193505050600181019050620002c1565b5050509392505050565b60006200032e6200032884620004ad565b62000455565b9050828152602081018484840111156200034757600080fd5b6200035484828562000517565b509392505050565b6000815190506200036d8162000628565b92915050565b600082601f8301126200038557600080fd5b81516200039784826020860162000287565b91505092915050565b600082601f830112620003b257600080fd5b8151620003c484826020860162000317565b91505092915050565b600080600060608486031215620003e357600080fd5b600084015167ffffffffffffffff811115620003fe57600080fd5b6200040c86828701620003a0565b935050602084015167ffffffffffffffff8111156200042a57600080fd5b620004388682870162000373565b92505060406200044b868287016200035c565b9150509250925092565b60006200046162000474565b90506200046f828262000583565b919050565b6000604051905090565b600067ffffffffffffffff8211156200049c576200049b620005e8565b5b602082029050602081019050919050565b600067ffffffffffffffff821115620004cb57620004ca620005e8565b5b620004d68262000617565b9050602081019050919050565b6000620004f082620004f7565b9050919050565b600073ffffffffffffffffffffffffffffffffffffffff82169050919050565b60005b83811015620005375780820151818401526020810190506200051a565b8381111562000547576000848401525b50505050565b600060028204905060018216806200056657607f821691505b602082108114156200057d576200057c620005b9565b5b50919050565b6200058e8262000617565b810181811067ffffffffffffffff82111715620005b057620005af620005e8565b5b80604052505050565b7f4e487b7100000000000000000000000000000000000000000000000000000000600052602260045260246000fd5b7f4e487b7100000000000000000000000000000000000000000000000000000000600052604160045260246000fd5b6000601f19601f8301169050919050565b6200063381620004e3565b81146200063f57600080fd5b50565b610b5b80620006526000396000f3fe608060405234801561001057600080fd5b50600436106100cf5760003560e01c8063722d22fc1161008c578063b2731f0e11610066578063b2731f0e146101f0578063bc7b35b214610220578063c45a01551461023e578063e685aa481461025c576100cf565b8063722d22fc146101725780638f023f851461019057806391597233146101c0576100cf565b80630da2aef1146100d45780631bfb66d6146100f2578063216068311461011057806347bc22f21461012c5780636657499e1461014a578063688e346714610154575b600080fd5b6100dc610266565b6040516100e991906107c5565b60405180910390f35b6100fa610277565b60405161010791906107c5565b60405180910390f35b61012a6004803603810190610125919061068f565b61028c565b005b610134610355565b6040516101419190610882565b60405180910390f35b610152610362565b005b61015c61040e565b60405161016991906107c5565b60405180910390f35b61017a610421565b60405161018791906107c5565b60405180910390f35b6101aa60048036038101906101a5919061068f565b610438565b6040516101b791906107e0565b60405180910390f35b6101da60048036038101906101d5919061068f565b6104e4565b6040516101e79190610882565b60405180910390f35b61020a6004803603810190610205919061068f565b610501565b6040516102179190610882565b60405180910390f35b610228610519565b60405161023591906107e0565b60405180910390f35b6102466105a7565b60405161025391906107aa565b60405180910390f35b6102646105cd565b005b60018054906101000a900460ff1681565b600060018054906101000a900460ff16905090565b600160009054906101000a900460ff166102db576040517f08c379a00000000000000000000000000000000000000000000000000000000081526004016102d290610802565b60405180910390fd5b60018054906101000a900460ff1615610329576040517f08c379a000000000000000000000000000000000000000000000000000000000815260040161032090610862565b60405180910390fd5b60036000828152602001908152602001600020600081548092919061034d90610966565b919050555050565b6000600280549050905090565b600460009054906101000a900473ffffffffffffffffffffffffffffffffffffffff1673ffffffffffffffffffffffffffffffffffffffff163373ffffffffffffffffffffffffffffffffffffffff16146103f2576040517f08c379a00000000000000000000000000000000000000000000000000000000081526004016103e990610822565b60405180910390fd5b60018060016101000a81548160ff021916908315150217905550565b600160009054906101000a900460ff1681565b6000600160009054906101000a900460ff16905090565b6002818154811061044857600080fd5b90600052602060002001600091509050805461046390610934565b80601f016020809104026020016040519081016040528092919081815260200182805461048f90610934565b80156104dc5780601f106104b1576101008083540402835291602001916104dc565b820191906000526020600020905b8154815290600101906020018083116104bf57829003601f168201915b505050505081565b600060036000838152602001908152602001600020549050919050565b60036020528060005260406000206000915090505481565b6000805461052690610934565b80601f016020809104026020016040519081016040528092919081815260200182805461055290610934565b801561059f5780601f106105745761010080835404028352916020019161059f565b820191906000526020600020905b81548152906001019060200180831161058257829003601f168201915b505050505081565b600460009054906101000a900473ffffffffffffffffffffffffffffffffffffffff1681565b600460009054906101000a900473ffffffffffffffffffffffffffffffffffffffff1673ffffffffffffffffffffffffffffffffffffffff163373ffffffffffffffffffffffffffffffffffffffff161461065d576040517f08c379a000000000000000000000000000000000000000000000000000000000815260040161065490610842565b60405180910390fd5b6000600160006101000a81548160ff021916908315150217905550565b60008135905061068981610b0e565b92915050565b6000602082840312156106a157600080fd5b60006106af8482850161067a565b91505092915050565b6106c1816108b9565b82525050565b6106d0816108cb565b82525050565b60006106e18261089d565b6106eb81856108a8565b93506106fb818560208601610901565b61070481610a0d565b840191505092915050565b600061071c601f836108a8565b915061072782610a1e565b602082019050919050565b600061073f602a836108a8565b915061074a82610a47565b604082019050919050565b6000610762602a836108a8565b915061076d82610a96565b604082019050919050565b6000610785601e836108a8565b915061079082610ae5565b602082019050919050565b6107a4816108f7565b82525050565b60006020820190506107bf60008301846106b8565b92915050565b60006020820190506107da60008301846106c7565b92915050565b600060208201905081810360008301526107fa81846106d6565b905092915050565b6000602082019050818103600083015261081b8161070f565b9050919050565b6000602082019050818103600083015261083b81610732565b9050919050565b6000602082019050818103600083015261085b81610755565b9050919050565b6000602082019050818103600083015261087b81610778565b9050919050565b6000602082019050610897600083018461079b565b92915050565b600081519050919050565b600082825260208201905092915050565b60006108c4826108d7565b9050919050565b60008115159050919050565b600073ffffffffffffffffffffffffffffffffffffffff82169050919050565b6000819050919050565b60005b8381101561091f578082015181840152602081019050610904565b8381111561092e576000848401525b50505050565b6000600282049050600182168061094c57607f821691505b602082108114156109605761095f6109de565b5b50919050565b6000610971826108f7565b91507fffffffffffffffffffffffffffffffffffffffffffffffffffffffffffffffff8214156109a4576109a36109af565b5b600182019050919050565b7f4e487b7100000000000000000000000000000000000000000000000000000000600052601160045260246000fd5b7f4e487b7100000000000000000000000000000000000000000000000000000000600052602260045260246000fd5b6000601f19601f8301169050919050565b7f4573746120766f746163696f6e206861207369646f20656c696d696e61646100600082015250565b7f536f6c6f206c6120666163746f7279207075656465207465726d696e6172206c60008201527f6120766f746163696f6e00000000000000000000000000000000000000000000602082015250565b7f536f6c6f206c6120666163746f727920707565646520656c696d696e6172206c60008201527f6120766f746163696f6e00000000000000000000000000000000000000000000602082015250565b7f4573746120766f746163696f6e2079612068612066696e616c697a61646f0000600082015250565b610b17816108f7565b8114610b2257600080fd5b5056fea264697066735822122083970627e1c3b8adc8f59c3a74671d11d955a31fbbd2511af77e5f159695e7f864736f6c63430008040033",
  "immutableReferences": {},
  "source": "// SPDX-License-Identifier: MIT\r\npragma solidity ^0.8.4;\r\n\r\ncontract Votacion {\r\n    // Nombre de la votacin\r\n    string public nombre;\r\n    // Estado de la votacin (en terminos de eliminacion)\r\n    bool public estado = false;\r\n    // Estado de la votacin (en trminos de si acab o no)\r\n    bool public terminada = false;\r\n    // Los candidatos de la votacin\r\n    string[] public candidatos;\r\n    // Mapeo de candidato a votos\r\n    mapping(uint => uint) public votos;\r\n\r\n    // Direccin del creador de la votacin\r\n    address public factory;\r\n\r\n    // Constructor que recibe el nombre y los candidatos\r\n    constructor(string memory _nombre, string[] memory _candidatos, address _factory) {\r\n        nombre = _nombre;\r\n        estado = true;\r\n        candidatos = _candidatos;\r\n        factory = _factory; // Almacena la direccin de la factory\r\n    }\r\n\r\n    // Funcin para eliminar la votacin\r\n    function eliminar() public {\r\n        require(msg.sender == factory, \"Solo la factory puede eliminar la votacion\");\r\n        estado = false;\r\n    }\r\n\r\n    // Funcin para terminar la votacin\r\n    function terminarVotacion() public {\r\n        require(msg.sender == factory, \"Solo la factory puede terminar la votacion\");\r\n        terminada = true;\r\n    }\r\n\r\n    // Funcin para votar\r\n    function votar(uint candidato) public {\r\n        require(estado, \"Esta votacion ha sido eliminada\");\r\n        require(!terminada, \"Esta votacion ya ha finalizado\");\r\n        votos[candidato]++;\r\n    }\r\n\r\n    // Funcin para obtener el conteo de votos de un candidato\r\n    function obtenerVotos(uint candidato) public view returns (uint) {\r\n        return votos[candidato];\r\n    }\r\n\r\n    // Funcin para obtener el estado de la votacin\r\n    function obtenerEstado() public view returns (bool) {\r\n        return estado;\r\n    }\r\n\r\n    // Funcin para ver si ha sido terminada la votacin\r\n    function obtenerTerminada() public view returns (bool) {\r\n        return terminada;\r\n    }\r\n\r\n    // Funcin para obtener el nmero de candidatos\r\n    function obtenerNumCandidatos() public view returns (uint) {\r\n        return candidatos.length;\r\n    }\r\n}\r\n",
  "sourcePath": "C:\\Users\\benja\\Desktop\\votacion\\src\\contracts\\Votacion.sol",
  "compiler": {
    "name": "solc",
    "version": "0.8.4+commit.c7e474f2.Emscripten.clang"
  },
  "schemaVersion": "3.4.7",
  "updatedAt": "2023-11-23T14:45:08.299Z",
  "devdoc": {
    "kind": "dev",
    "methods": {},
    "version": 1
  },
  "userdoc": {
    "kind": "user",
    "methods": {},
    "version": 1
  }
}