{
  "contractName": "VotacionFactory",
  "abi": [
    {
      "inputs": [
        {
          "internalType": "uint256",
          "name": "",
          "type": "uint256"
        }
      ],
      "name": "votaciones",
      "outputs": [
        {
          "internalType": "address",
          "name": "",
          "type": "address"
        }
      ],
      "stateMutability": "view",
      "type": "function",
      "constant": true
    },
    {
      "inputs": [
        {
          "internalType": "uint256",
          "name": "",
          "type": "uint256"
        }
      ],
      "name": "votacionesTerminadas",
      "outputs": [
        {
          "internalType": "address",
          "name": "",
          "type": "address"
        }
      ],
      "stateMutability": "view",
      "type": "function",
      "constant": true
    },
    {
      "inputs": [
        {
          "internalType": "string",
          "name": "nombre",
          "type": "string"
        },
        {
          "internalType": "string[]",
          "name": "candidatos",
          "type": "string[]"
        },
        {
          "internalType": "string",
          "name": "descripcion",
          "type": "string"
        }
      ],
      "name": "crearVotacion",
      "outputs": [],
      "stateMutability": "nonpayable",
      "type": "function"
    },
    {
      "inputs": [],
      "name": "obtenerVotaciones",
      "outputs": [
        {
          "internalType": "address[]",
          "name": "",
          "type": "address[]"
        }
      ],
      "stateMutability": "view",
      "type": "function",
      "constant": true
    },
    {
      "inputs": [],
      "name": "obtenerVotacionesTerminadas",
      "outputs": [
        {
          "internalType": "address[]",
          "name": "",
          "type": "address[]"
        }
      ],
      "stateMutability": "view",
      "type": "function",
      "constant": true
    },
    {
      "inputs": [
        {
          "internalType": "uint256",
          "name": "indice",
          "type": "uint256"
        }
      ],
      "name": "obtenerVotacion",
      "outputs": [
        {
          "internalType": "contract Votacion",
          "name": "",
          "type": "address"
        }
      ],
      "stateMutability": "view",
      "type": "function",
      "constant": true
    },
    {
      "inputs": [
        {
          "internalType": "uint256",
          "name": "indice",
          "type": "uint256"
        }
      ],
      "name": "obtenerVotacionTerminada",
      "outputs": [
        {
          "internalType": "contract Votacion",
          "name": "",
          "type": "address"
        }
      ],
      "stateMutability": "view",
      "type": "function",
      "constant": true
    },
    {
      "inputs": [],
      "name": "ultimoIndice",
      "outputs": [
        {
          "internalType": "uint256",
          "name": "",
          "type": "uint256"
        }
      ],
      "stateMutability": "view",
      "type": "function",
      "constant": true
    },
    {
      "inputs": [],
      "name": "ultimoIndiceTerminadas",
      "outputs": [
        {
          "internalType": "uint256",
          "name": "",
          "type": "uint256"
        }
      ],
      "stateMutability": "view",
      "type": "function",
      "constant": true
    },
    {
      "inputs": [
        {
          "internalType": "uint256",
          "name": "indice",
          "type": "uint256"
        }
      ],
      "name": "terminarVotacion",
      "outputs": [],
      "stateMutability": "nonpayable",
      "type": "function"
    },
    {
      "inputs": [
        {
          "internalType": "uint256",
          "name": "indice",
          "type": "uint256"
        }
      ],
      "name": "eliminarVotacion",
      "outputs": [],
      "stateMutability": "nonpayable",
      "type": "function"
    }
  ],
  "bytecode": "0x608060405234801561001057600080fd5b5061275b806100206000396000f3fe60806040523480156200001157600080fd5b5060043610620000b75760003560e01c80635acf57b5116200007b5780635acf57b5146200018a578063822fdc8314620001c057806385be4d7b14620001f65780638e443bd11462000218578063ae8110e7146200023a578063dadd6071146200025c57620000b7565b8062900a7c14620000bc57806309842a7714620000dc5780632f88e903146200011257806339010f71146200013257806340d223af1462000168575b600080fd5b620000da6004803603810190620000d4919062000c2f565b6200027c565b005b620000fa6004803603810190620000f4919062000cd0565b62000328565b60405162000109919062000f45565b60405180910390f35b6200013060048036038101906200012a919062000cd0565b620003e1565b005b6200015060048036038101906200014a919062000cd0565b620005f4565b6040516200015f919062000f45565b60405180910390f35b62000172620006ac565b60405162000181919062000f21565b60405180910390f35b620001a86004803603810190620001a2919062000cd0565b6200073c565b604051620001b7919062000f04565b60405180910390f35b620001de6004803603810190620001d8919062000cd0565b6200077c565b604051620001ed919062000f04565b60405180910390f35b62000200620007bc565b6040516200020f919062000f21565b60405180910390f35b620002226200084c565b60405162000231919062000fe6565b60405180910390f35b6200024462000859565b60405162000253919062000fe6565b60405180910390f35b6200027a600480360381019062000274919062000cd0565b62000865565b005b600083833084604051620002909062000adb565b6200029f949392919062000f62565b604051809103906000f080158015620002bc573d6000803e3d6000fd5b5090506000819080600181540180825580915050600190039060005260206000200160009091909190916101000a81548173ffffffffffffffffffffffffffffffffffffffff021916908373ffffffffffffffffffffffffffffffffffffffff16021790555050505050565b6000600180549050821062000374576040517f08c379a00000000000000000000000000000000000000000000000000000000081526004016200036b9062000fc4565b60405180910390fd5b60018281548110620003af577f4e487b7100000000000000000000000000000000000000000000000000000000600052603260045260246000fd5b9060005260206000200160009054906101000a900473ffffffffffffffffffffffffffffffffffffffff169050919050565b6000620003ee82620005f4565b90508073ffffffffffffffffffffffffffffffffffffffff1663e685aa486040518163ffffffff1660e01b8152600401600060405180830381600087803b1580156200043957600080fd5b505af11580156200044e573d6000803e3d6000fd5b5050505060008290505b60016000805490506200046c91906200118d565b8110156200058157600060018262000485919062001130565b81548110620004bd577f4e487b7100000000000000000000000000000000000000000000000000000000600052603260045260246000fd5b9060005260206000200160009054906101000a900473ffffffffffffffffffffffffffffffffffffffff166000828154811062000523577f4e487b7100000000000000000000000000000000000000000000000000000000600052603260045260246000fd5b9060005260206000200160006101000a81548173ffffffffffffffffffffffffffffffffffffffff021916908373ffffffffffffffffffffffffffffffffffffffff16021790555080806200057890620012a9565b91505062000458565b506000805480620005bb577f4e487b7100000000000000000000000000000000000000000000000000000000600052603160045260246000fd5b6001900381819060005260206000200160006101000a81549073ffffffffffffffffffffffffffffffffffffffff021916905590555050565b6000808054905082106200063f576040517f08c379a0000000000000000000000000000000000000000000000000000000008152600401620006369062000fc4565b60405180910390fd5b600082815481106200067a577f4e487b7100000000000000000000000000000000000000000000000000000000600052603260045260246000fd5b9060005260206000200160009054906101000a900473ffffffffffffffffffffffffffffffffffffffff169050919050565b606060008054806020026020016040519081016040528092919081815260200182805480156200073257602002820191906000526020600020905b8160009054906101000a900473ffffffffffffffffffffffffffffffffffffffff1673ffffffffffffffffffffffffffffffffffffffff1681526020019060010190808311620006e7575b5050505050905090565b600081815481106200074d57600080fd5b906000526020600020016000915054906101000a900473ffffffffffffffffffffffffffffffffffffffff1681565b600181815481106200078d57600080fd5b906000526020600020016000915054906101000a900473ffffffffffffffffffffffffffffffffffffffff1681565b606060018054806020026020016040519081016040528092919081815260200182805480156200084257602002820191906000526020600020905b8160009054906101000a900473ffffffffffffffffffffffffffffffffffffffff1673ffffffffffffffffffffffffffffffffffffffff1681526020019060010190808311620007f7575b5050505050905090565b6000600180549050905090565b60008080549050905090565b60006200087282620005f4565b90508073ffffffffffffffffffffffffffffffffffffffff16636657499e6040518163ffffffff1660e01b8152600401600060405180830381600087803b158015620008bd57600080fd5b505af1158015620008d2573d6000803e3d6000fd5b505050506001819080600181540180825580915050600190039060005260206000200160009091909190916101000a81548173ffffffffffffffffffffffffffffffffffffffff021916908373ffffffffffffffffffffffffffffffffffffffff16021790555060008290505b60016000805490506200095391906200118d565b81101562000a685760006001826200096c919062001130565b81548110620009a4577f4e487b7100000000000000000000000000000000000000000000000000000000600052603260045260246000fd5b9060005260206000200160009054906101000a900473ffffffffffffffffffffffffffffffffffffffff166000828154811062000a0a577f4e487b7100000000000000000000000000000000000000000000000000000000600052603260045260246000fd5b9060005260206000200160006101000a81548173ffffffffffffffffffffffffffffffffffffffff021916908373ffffffffffffffffffffffffffffffffffffffff160217905550808062000a5f90620012a9565b9150506200093f565b50600080548062000aa2577f4e487b7100000000000000000000000000000000000000000000000000000000600052603160045260246000fd5b6001900381819060005260206000200160006101000a81549073ffffffffffffffffffffffffffffffffffffffff021916905590555050565b61137c80620013aa83390190565b600062000b0062000afa846200102c565b62001003565b9050808382526020820190508285602086028201111562000b2057600080fd5b60005b8581101562000b6f57813567ffffffffffffffff81111562000b4457600080fd5b80860162000b53898262000beb565b8552602085019450602084019350505060018101905062000b23565b5050509392505050565b600062000b9062000b8a846200105b565b62001003565b90508281526020810184848401111562000ba957600080fd5b62000bb68482856200122e565b509392505050565b600082601f83011262000bd057600080fd5b813562000be284826020860162000ae9565b91505092915050565b600082601f83011262000bfd57600080fd5b813562000c0f84826020860162000b79565b91505092915050565b60008135905062000c29816200138f565b92915050565b60008060006060848603121562000c4557600080fd5b600084013567ffffffffffffffff81111562000c6057600080fd5b62000c6e8682870162000beb565b935050602084013567ffffffffffffffff81111562000c8c57600080fd5b62000c9a8682870162000bbe565b925050604084013567ffffffffffffffff81111562000cb857600080fd5b62000cc68682870162000beb565b9150509250925092565b60006020828403121562000ce357600080fd5b600062000cf38482850162000c18565b91505092915050565b600062000d0a838362000d2c565b60208301905092915050565b600062000d24838362000e4a565b905092915050565b62000d3781620011c8565b82525050565b62000d4881620011c8565b82525050565b600062000d5b82620010b1565b62000d678185620010ec565b935062000d748362001091565b8060005b8381101562000dab57815162000d8f888262000cfc565b975062000d9c83620010d2565b92505060018101905062000d78565b5085935050505092915050565b600062000dc582620010bc565b62000dd18185620010fd565b93508360208202850162000de585620010a1565b8060005b8581101562000e27578484038952815162000e05858262000d16565b945062000e1283620010df565b925060208a0199505060018101905062000de9565b50829750879550505050505092915050565b62000e448162001206565b82525050565b600062000e5782620010c7565b62000e6381856200110e565b935062000e758185602086016200123d565b62000e808162001355565b840191505092915050565b600062000e9882620010c7565b62000ea481856200111f565b935062000eb68185602086016200123d565b62000ec18162001355565b840191505092915050565b600062000edb6015836200111f565b915062000ee88262001366565b602082019050919050565b62000efe81620011fc565b82525050565b600060208201905062000f1b600083018462000d3d565b92915050565b6000602082019050818103600083015262000f3d818462000d4e565b905092915050565b600060208201905062000f5c600083018462000e39565b92915050565b6000608082019050818103600083015262000f7e818762000e8b565b9050818103602083015262000f94818662000db8565b905062000fa5604083018562000d3d565b818103606083015262000fb9818462000e8b565b905095945050505050565b6000602082019050818103600083015262000fdf8162000ecc565b9050919050565b600060208201905062000ffd600083018462000ef3565b92915050565b60006200100f62001022565b90506200101d828262001273565b919050565b6000604051905090565b600067ffffffffffffffff8211156200104a576200104962001326565b5b602082029050602081019050919050565b600067ffffffffffffffff82111562001079576200107862001326565b5b620010848262001355565b9050602081019050919050565b6000819050602082019050919050565b6000819050602082019050919050565b600081519050919050565b600081519050919050565b600081519050919050565b6000602082019050919050565b6000602082019050919050565b600082825260208201905092915050565b600082825260208201905092915050565b600082825260208201905092915050565b600082825260208201905092915050565b60006200113d82620011fc565b91506200114a83620011fc565b9250827fffffffffffffffffffffffffffffffffffffffffffffffffffffffffffffffff03821115620011825762001181620012f7565b5b828201905092915050565b60006200119a82620011fc565b9150620011a783620011fc565b925082821015620011bd57620011bc620012f7565b5b828203905092915050565b6000620011d582620011dc565b9050919050565b600073ffffffffffffffffffffffffffffffffffffffff82169050919050565b6000819050919050565b600062001213826200121a565b9050919050565b60006200122782620011dc565b9050919050565b82818337600083830152505050565b60005b838110156200125d57808201518184015260208101905062001240565b838111156200126d576000848401525b50505050565b6200127e8262001355565b810181811067ffffffffffffffff82111715620012a0576200129f62001326565b5b80604052505050565b6000620012b682620011fc565b91507fffffffffffffffffffffffffffffffffffffffffffffffffffffffffffffffff821415620012ec57620012eb620012f7565b5b600182019050919050565b7f4e487b7100000000000000000000000000000000000000000000000000000000600052601160045260246000fd5b7f4e487b7100000000000000000000000000000000000000000000000000000000600052604160045260246000fd5b6000601f19601f8301169050919050565b7f496e646963652066756572612064652072616e676f0000000000000000000000600082015250565b6200139a81620011fc565b8114620013a657600080fd5b5056fe60806040526000600160006101000a81548160ff02191690831515021790555060006001806101000a81548160ff0219169083151502179055503480156200004657600080fd5b506040516200137c3803806200137c83398181016040528101906200006c9190620003e7565b8360009080519060200190620000849291906200011c565b5060018060006101000a81548160ff0219169083151502179055508260029080519060200190620000b7929190620001ad565b5081600460006101000a81548173ffffffffffffffffffffffffffffffffffffffff021916908373ffffffffffffffffffffffffffffffffffffffff1602179055508060059080519060200190620001119291906200011c565b50505050506200068b565b8280546200012a9062000596565b90600052602060002090601f0160209004810192826200014e57600085556200019a565b82601f106200016957805160ff19168380011785556200019a565b828001600101855582156200019a579182015b82811115620001995782518255916020019190600101906200017c565b5b509050620001a9919062000214565b5090565b82805482825590600052602060002090810192821562000201579160200282015b8281111562000200578251829080519060200190620001ef9291906200011c565b5091602001919060010190620001ce565b5b50905062000210919062000233565b5090565b5b808211156200022f57600081600090555060010162000215565b5090565b5b808211156200025757600081816200024d91906200025b565b5060010162000234565b5090565b508054620002699062000596565b6000825580601f106200027d57506200029e565b601f0160209004906000526020600020908101906200029d919062000214565b5b50565b6000620002b8620002b284620004c7565b6200049e565b90508083825260208201905082856020860282011115620002d857600080fd5b60005b858110156200032757815167ffffffffffffffff811115620002fc57600080fd5b8086016200030b8982620003ba565b85526020850194506020840193505050600181019050620002db565b5050509392505050565b6000620003486200034284620004f6565b6200049e565b9050828152602081018484840111156200036157600080fd5b6200036e84828562000560565b509392505050565b600081519050620003878162000671565b92915050565b600082601f8301126200039f57600080fd5b8151620003b1848260208601620002a1565b91505092915050565b600082601f830112620003cc57600080fd5b8151620003de84826020860162000331565b91505092915050565b60008060008060808587031215620003fe57600080fd5b600085015167ffffffffffffffff8111156200041957600080fd5b6200042787828801620003ba565b945050602085015167ffffffffffffffff8111156200044557600080fd5b62000453878288016200038d565b9350506040620004668782880162000376565b925050606085015167ffffffffffffffff8111156200048457600080fd5b6200049287828801620003ba565b91505092959194509250565b6000620004aa620004bd565b9050620004b88282620005cc565b919050565b6000604051905090565b600067ffffffffffffffff821115620004e557620004e462000631565b5b602082029050602081019050919050565b600067ffffffffffffffff82111562000514576200051362000631565b5b6200051f8262000660565b9050602081019050919050565b6000620005398262000540565b9050919050565b600073ffffffffffffffffffffffffffffffffffffffff82169050919050565b60005b838110156200058057808201518184015260208101905062000563565b8381111562000590576000848401525b50505050565b60006002820490506001821680620005af57607f821691505b60208210811415620005c657620005c562000602565b5b50919050565b620005d78262000660565b810181811067ffffffffffffffff82111715620005f957620005f862000631565b5b80604052505050565b7f4e487b7100000000000000000000000000000000000000000000000000000000600052602260045260246000fd5b7f4e487b7100000000000000000000000000000000000000000000000000000000600052604160045260246000fd5b6000601f19601f8301169050919050565b6200067c816200052c565b81146200068857600080fd5b50565b610ce1806200069b6000396000f3fe608060405234801561001057600080fd5b50600436106100f55760003560e01c80637f49d85511610097578063b2731f0e11610066578063b2731f0e14610252578063bc7b35b214610282578063c45a0155146102a0578063e685aa48146102be576100f5565b80637f49d855146101b65780638f023f85146101d4578063901c3fee146102045780639159723314610222576100f5565b806347bc22f2116100d357806347bc22f2146101525780636657499e14610170578063688e34671461017a578063722d22fc14610198576100f5565b80630da2aef1146100fa5780631bfb66d6146101185780632160683114610136575b600080fd5b6101026102c8565b60405161010f919061094b565b60405180910390f35b6101206102d9565b60405161012d919061094b565b60405180910390f35b610150600480360381019061014b9190610815565b6102ee565b005b61015a6103b7565b6040516101679190610a08565b60405180910390f35b6101786103c4565b005b610182610470565b60405161018f919061094b565b60405180910390f35b6101a0610483565b6040516101ad919061094b565b60405180910390f35b6101be61049a565b6040516101cb9190610966565b60405180910390f35b6101ee60048036038101906101e99190610815565b61052c565b6040516101fb9190610966565b60405180910390f35b61020c6105d8565b6040516102199190610966565b60405180910390f35b61023c60048036038101906102379190610815565b61066a565b6040516102499190610a08565b60405180910390f35b61026c60048036038101906102679190610815565b610687565b6040516102799190610a08565b60405180910390f35b61028a61069f565b6040516102979190610966565b60405180910390f35b6102a861072d565b6040516102b59190610930565b60405180910390f35b6102c6610753565b005b60018054906101000a900460ff1681565b600060018054906101000a900460ff16905090565b600160009054906101000a900460ff1661033d576040517f08c379a000000000000000000000000000000000000000000000000000000000815260040161033490610988565b60405180910390fd5b60018054906101000a900460ff161561038b576040517f08c379a0000000000000000000000000000000000000000000000000000000008152600401610382906109e8565b60405180910390fd5b6003600082815260200190815260200160002060008154809291906103af90610aec565b919050555050565b6000600280549050905090565b600460009054906101000a900473ffffffffffffffffffffffffffffffffffffffff1673ffffffffffffffffffffffffffffffffffffffff163373ffffffffffffffffffffffffffffffffffffffff1614610454576040517f08c379a000000000000000000000000000000000000000000000000000000000815260040161044b906109a8565b60405180910390fd5b60018060016101000a81548160ff021916908315150217905550565b600160009054906101000a900460ff1681565b6000600160009054906101000a900460ff16905090565b6060600080546104a990610aba565b80601f01602080910402602001604051908101604052809291908181526020018280546104d590610aba565b80156105225780601f106104f757610100808354040283529160200191610522565b820191906000526020600020905b81548152906001019060200180831161050557829003601f168201915b5050505050905090565b6002818154811061053c57600080fd5b90600052602060002001600091509050805461055790610aba565b80601f016020809104026020016040519081016040528092919081815260200182805461058390610aba565b80156105d05780601f106105a5576101008083540402835291602001916105d0565b820191906000526020600020905b8154815290600101906020018083116105b357829003601f168201915b505050505081565b6060600580546105e790610aba565b80601f016020809104026020016040519081016040528092919081815260200182805461061390610aba565b80156106605780601f1061063557610100808354040283529160200191610660565b820191906000526020600020905b81548152906001019060200180831161064357829003601f168201915b5050505050905090565b600060036000838152602001908152602001600020549050919050565b60036020528060005260406000206000915090505481565b600080546106ac90610aba565b80601f01602080910402602001604051908101604052809291908181526020018280546106d890610aba565b80156107255780601f106106fa57610100808354040283529160200191610725565b820191906000526020600020905b81548152906001019060200180831161070857829003601f168201915b505050505081565b600460009054906101000a900473ffffffffffffffffffffffffffffffffffffffff1681565b600460009054906101000a900473ffffffffffffffffffffffffffffffffffffffff1673ffffffffffffffffffffffffffffffffffffffff163373ffffffffffffffffffffffffffffffffffffffff16146107e3576040517f08c379a00000000000000000000000000000000000000000000000000000000081526004016107da906109c8565b60405180910390fd5b6000600160006101000a81548160ff021916908315150217905550565b60008135905061080f81610c94565b92915050565b60006020828403121561082757600080fd5b600061083584828501610800565b91505092915050565b61084781610a3f565b82525050565b61085681610a51565b82525050565b600061086782610a23565b6108718185610a2e565b9350610881818560208601610a87565b61088a81610b93565b840191505092915050565b60006108a2601f83610a2e565b91506108ad82610ba4565b602082019050919050565b60006108c5602a83610a2e565b91506108d082610bcd565b604082019050919050565b60006108e8602a83610a2e565b91506108f382610c1c565b604082019050919050565b600061090b601e83610a2e565b915061091682610c6b565b602082019050919050565b61092a81610a7d565b82525050565b6000602082019050610945600083018461083e565b92915050565b6000602082019050610960600083018461084d565b92915050565b60006020820190508181036000830152610980818461085c565b905092915050565b600060208201905081810360008301526109a181610895565b9050919050565b600060208201905081810360008301526109c1816108b8565b9050919050565b600060208201905081810360008301526109e1816108db565b9050919050565b60006020820190508181036000830152610a01816108fe565b9050919050565b6000602082019050610a1d6000830184610921565b92915050565b600081519050919050565b600082825260208201905092915050565b6000610a4a82610a5d565b9050919050565b60008115159050919050565b600073ffffffffffffffffffffffffffffffffffffffff82169050919050565b6000819050919050565b60005b83811015610aa5578082015181840152602081019050610a8a565b83811115610ab4576000848401525b50505050565b60006002820490506001821680610ad257607f821691505b60208210811415610ae657610ae5610b64565b5b50919050565b6000610af782610a7d565b91507fffffffffffffffffffffffffffffffffffffffffffffffffffffffffffffffff821415610b2a57610b29610b35565b5b600182019050919050565b7f4e487b7100000000000000000000000000000000000000000000000000000000600052601160045260246000fd5b7f4e487b7100000000000000000000000000000000000000000000000000000000600052602260045260246000fd5b6000601f19601f8301169050919050565b7f4573746120766f746163696f6e206861207369646f20656c696d696e61646100600082015250565b7f536f6c6f206c6120666163746f7279207075656465207465726d696e6172206c60008201527f6120766f746163696f6e00000000000000000000000000000000000000000000602082015250565b7f536f6c6f206c6120666163746f727920707565646520656c696d696e6172206c60008201527f6120766f746163696f6e00000000000000000000000000000000000000000000602082015250565b7f4573746120766f746163696f6e2079612068612066696e616c697a61646f0000600082015250565b610c9d81610a7d565b8114610ca857600080fd5b5056fea264697066735822122014657c92da2ffb2b241a9d47a5f094b3a818adb433a91d7ed650851860581fb964736f6c63430008040033a2646970667358221220e03343d7b6eac1ec610c509fa4d9f264fb9c3bd80658130dd4918b1c33850aae64736f6c63430008040033",
  "immutableReferences": {},
  "source": "// SPDX-License-Identifier: MIT\r\npragma solidity ^0.8.4;\r\n\r\nimport \"./Votacion.sol\";\r\n\r\ncontract VotacionFactory {\r\n    // Array para almacenar las direcciones de todas las votaciones\r\n    address[] public votaciones;\r\n    // Array para almacenar las direcciones de todas las votaciones terminadas\r\n    address[] public votacionesTerminadas;\r\n\r\n    // Funcin para crear una nueva votacin\r\n    function crearVotacion(string memory nombre, string[] memory candidatos, string memory descripcion) public {\r\n        Votacion votacion = new Votacion(nombre, candidatos, address(this), descripcion);\r\n        votaciones.push(address(votacion));\r\n    }\r\n\r\n    // Funcin para obtener todas las votaciones\r\n    function obtenerVotaciones() public view returns (address[] memory) {\r\n        return votaciones;\r\n    }\r\n\r\n    // Funcin para obtener todas las votaciones terminadas\r\n    function obtenerVotacionesTerminadas() public view returns (address[] memory) {\r\n        return votacionesTerminadas;\r\n    }\r\n\r\n    // Funcin para obtener una votacin por su ndice\r\n    function obtenerVotacion(uint indice) public view returns (Votacion) {\r\n        require(indice < votaciones.length, \"Indice fuera de rango\");\r\n        return Votacion(votaciones[indice]);\r\n    }\r\n\r\n    // Funcin para obtener una votacin terminada por su ndice\r\n    function obtenerVotacionTerminada(uint indice) public view returns (Votacion) {\r\n        require(indice < votacionesTerminadas.length, \"Indice fuera de rango\");\r\n        return Votacion(votacionesTerminadas[indice]);\r\n    }\r\n\r\n    // Funcin para obtener el nmero de votaciones\r\n    function ultimoIndice() public view returns (uint) {\r\n        return votaciones.length;\r\n    }\r\n\r\n    // Funcin para obtener el nmero de votaciones terminadas\r\n    function ultimoIndiceTerminadas() public view returns (uint) {\r\n        return votacionesTerminadas.length;\r\n    }\r\n\r\n    // Funcin para terminar una votacin\r\n    function terminarVotacion(uint indice) public {\r\n        Votacion votacion = obtenerVotacion(indice);\r\n        votacion.terminarVotacion();\r\n        // Mueve la votacin terminada al array de votacionesTerminadas\r\n        votacionesTerminadas.push(address(votacion));\r\n        // Mueve todas las votaciones despus de la votacin terminada una posicin hacia atrs\r\n        for (uint i = indice; i < votaciones.length - 1; i++) {\r\n            votaciones[i] = votaciones[i + 1];\r\n        }\r\n        // Elimina la ltima votacin del array\r\n        votaciones.pop();\r\n    }\r\n\r\n    // Funcin para eliminar una votacin\r\n    function eliminarVotacion(uint indice) public {\r\n        Votacion votacion = obtenerVotacion(indice);\r\n        votacion.eliminar();\r\n        // Mueve todas las votaciones despus de la votacin eliminada una posicin hacia atrs\r\n        for (uint i = indice; i < votaciones.length - 1; i++) {\r\n            votaciones[i] = votaciones[i + 1];\r\n        }\r\n        // Elimina la ltima votacin del array\r\n        votaciones.pop();\r\n    }\r\n}\r\n",
  "sourcePath": "C:\\Users\\benja\\Desktop\\votacion\\src\\contracts\\VotacionFactory.sol",
  "compiler": {
    "name": "solc",
    "version": "0.8.4+commit.c7e474f2.Emscripten.clang"
  },
  "schemaVersion": "3.4.7",
  "updatedAt": "2023-12-02T13:33:59.209Z",
  "networkType": "ethereum",
  "devdoc": {
    "kind": "dev",
    "methods": {},
    "version": 1
  },
  "userdoc": {
    "kind": "user",
    "methods": {},
    "version": 1
  }
}