{
  "contractName": "VotacionFactory",
  "abi": [
    {
      "inputs": [
        {
          "internalType": "uint256",
          "name": "",
          "type": "uint256"
        }
      ],
      "name": "votaciones",
      "outputs": [
        {
          "internalType": "address",
          "name": "",
          "type": "address"
        }
      ],
      "stateMutability": "view",
      "type": "function",
      "constant": true
    },
    {
      "inputs": [
        {
          "internalType": "uint256",
          "name": "",
          "type": "uint256"
        }
      ],
      "name": "votacionesTerminadas",
      "outputs": [
        {
          "internalType": "address",
          "name": "",
          "type": "address"
        }
      ],
      "stateMutability": "view",
      "type": "function",
      "constant": true
    },
    {
      "inputs": [
        {
          "internalType": "string",
          "name": "nombre",
          "type": "string"
        },
        {
          "internalType": "string[]",
          "name": "candidatos",
          "type": "string[]"
        },
        {
          "internalType": "string",
          "name": "descripcion",
          "type": "string"
        }
      ],
      "name": "crearVotacion",
      "outputs": [],
      "stateMutability": "nonpayable",
      "type": "function"
    },
    {
      "inputs": [
        {
          "internalType": "string",
          "name": "nombre",
          "type": "string"
        },
        {
          "internalType": "string[][]",
          "name": "listas",
          "type": "string[][]"
        },
        {
          "internalType": "string[]",
          "name": "_nombresDeListas",
          "type": "string[]"
        },
        {
          "internalType": "string",
          "name": "descripcion",
          "type": "string"
        },
        {
          "internalType": "uint256",
          "name": "escanios",
          "type": "uint256"
        }
      ],
      "name": "crearVotacionDhondt",
      "outputs": [],
      "stateMutability": "nonpayable",
      "type": "function"
    },
    {
      "inputs": [],
      "name": "obtenerVotaciones",
      "outputs": [
        {
          "internalType": "address[]",
          "name": "",
          "type": "address[]"
        }
      ],
      "stateMutability": "view",
      "type": "function",
      "constant": true
    },
    {
      "inputs": [],
      "name": "obtenerVotacionesTerminadas",
      "outputs": [
        {
          "internalType": "address[]",
          "name": "",
          "type": "address[]"
        }
      ],
      "stateMutability": "view",
      "type": "function",
      "constant": true
    },
    {
      "inputs": [
        {
          "internalType": "uint256",
          "name": "indice",
          "type": "uint256"
        }
      ],
      "name": "obtenerVotacion",
      "outputs": [
        {
          "internalType": "contract Votacion",
          "name": "",
          "type": "address"
        }
      ],
      "stateMutability": "view",
      "type": "function",
      "constant": true
    },
    {
      "inputs": [
        {
          "internalType": "uint256",
          "name": "indice",
          "type": "uint256"
        }
      ],
      "name": "obtenerVotacionTerminada",
      "outputs": [
        {
          "internalType": "contract Votacion",
          "name": "",
          "type": "address"
        }
      ],
      "stateMutability": "view",
      "type": "function",
      "constant": true
    },
    {
      "inputs": [],
      "name": "ultimoIndice",
      "outputs": [
        {
          "internalType": "uint256",
          "name": "",
          "type": "uint256"
        }
      ],
      "stateMutability": "view",
      "type": "function",
      "constant": true
    },
    {
      "inputs": [],
      "name": "ultimoIndiceTerminadas",
      "outputs": [
        {
          "internalType": "uint256",
          "name": "",
          "type": "uint256"
        }
      ],
      "stateMutability": "view",
      "type": "function",
      "constant": true
    },
    {
      "inputs": [
        {
          "internalType": "uint256",
          "name": "indice",
          "type": "uint256"
        }
      ],
      "name": "terminarVotacion",
      "outputs": [],
      "stateMutability": "nonpayable",
      "type": "function"
    },
    {
      "inputs": [
        {
          "internalType": "uint256",
          "name": "indice",
          "type": "uint256"
        }
      ],
      "name": "eliminarVotacion",
      "outputs": [],
      "stateMutability": "nonpayable",
      "type": "function"
    }
  ],
  "bytecode": "0x608060405234801561001057600080fd5b50615774806100206000396000f3fe60806040523480156200001157600080fd5b5060043610620000c35760003560e01c8063822fdc83116200007b578063822fdc8314620001cc57806385be4d7b14620002025780638e443bd11462000224578063ae8110e71462000246578063d03059811462000268578063dadd6071146200028857620000c3565b8062900a7c14620000c857806309842a7714620000e85780632f88e903146200011e57806339010f71146200013e57806340d223af14620001745780635acf57b51462000196575b600080fd5b620000e66004803603810190620000e0919062000ebe565b620002a8565b005b62000106600480360381019062000100919062000f5f565b62000354565b6040516200011591906200133a565b60405180910390f35b6200013c600480360381019062000136919062000f5f565b6200040d565b005b6200015c600480360381019062000156919062000f5f565b62000620565b6040516200016b91906200133a565b60405180910390f35b6200017e620006d8565b6040516200018d919062001316565b60405180910390f35b620001b46004803603810190620001ae919062000f5f565b62000768565b604051620001c39190620012f9565b60405180910390f35b620001ea6004803603810190620001e4919062000f5f565b620007a8565b604051620001f99190620012f9565b60405180910390f35b6200020c620007e8565b6040516200021b919062001316565b60405180910390f35b6200022e62000878565b6040516200023d91906200148e565b60405180910390f35b6200025062000885565b6040516200025f91906200148e565b60405180910390f35b62000286600480360381019062000280919062000dd8565b62000891565b005b620002a66004803603810190620002a0919062000f5f565b62000943565b005b600083833084604051620002bc9062000bb9565b620002cb9493929190620013f5565b604051809103906000f080158015620002e8573d6000803e3d6000fd5b5090506000819080600181540180825580915050600190039060005260206000200160009091909190916101000a81548173ffffffffffffffffffffffffffffffffffffffff021916908373ffffffffffffffffffffffffffffffffffffffff16021790555050505050565b60006001805490508210620003a0576040517f08c379a000000000000000000000000000000000000000000000000000000000815260040162000397906200146c565b60405180910390fd5b60018281548110620003db577f4e487b7100000000000000000000000000000000000000000000000000000000600052603260045260246000fd5b9060005260206000200160009054906101000a900473ffffffffffffffffffffffffffffffffffffffff169050919050565b60006200041a8262000620565b90508073ffffffffffffffffffffffffffffffffffffffff1663e685aa486040518163ffffffff1660e01b8152600401600060405180830381600087803b1580156200046557600080fd5b505af11580156200047a573d6000803e3d6000fd5b5050505060008290505b6001600080549050620004989190620016ae565b811015620005ad576000600182620004b1919062001651565b81548110620004e9577f4e487b7100000000000000000000000000000000000000000000000000000000600052603260045260246000fd5b9060005260206000200160009054906101000a900473ffffffffffffffffffffffffffffffffffffffff16600082815481106200054f577f4e487b7100000000000000000000000000000000000000000000000000000000600052603260045260246000fd5b9060005260206000200160006101000a81548173ffffffffffffffffffffffffffffffffffffffff021916908373ffffffffffffffffffffffffffffffffffffffff1602179055508080620005a490620017ca565b91505062000484565b506000805480620005e7577f4e487b7100000000000000000000000000000000000000000000000000000000600052603160045260246000fd5b6001900381819060005260206000200160006101000a81549073ffffffffffffffffffffffffffffffffffffffff021916905590555050565b6000808054905082106200066b576040517f08c379a000000000000000000000000000000000000000000000000000000000815260040162000662906200146c565b60405180910390fd5b60008281548110620006a6577f4e487b7100000000000000000000000000000000000000000000000000000000600052603260045260246000fd5b9060005260206000200160009054906101000a900473ffffffffffffffffffffffffffffffffffffffff169050919050565b606060008054806020026020016040519081016040528092919081815260200182805480156200075e57602002820191906000526020600020905b8160009054906101000a900473ffffffffffffffffffffffffffffffffffffffff1673ffffffffffffffffffffffffffffffffffffffff168152602001906001019080831162000713575b5050505050905090565b600081815481106200077957600080fd5b906000526020600020016000915054906101000a900473ffffffffffffffffffffffffffffffffffffffff1681565b60018181548110620007b957600080fd5b906000526020600020016000915054906101000a900473ffffffffffffffffffffffffffffffffffffffff1681565b606060018054806020026020016040519081016040528092919081815260200182805480156200086e57602002820191906000526020600020905b8160009054906101000a900473ffffffffffffffffffffffffffffffffffffffff1673ffffffffffffffffffffffffffffffffffffffff168152602001906001019080831162000823575b5050505050905090565b6000600180549050905090565b60008080549050905090565b6000858585308686604051620008a79062000bc7565b620008b89695949392919062001357565b604051809103906000f080158015620008d5573d6000803e3d6000fd5b5090506000819080600181540180825580915050600190039060005260206000200160009091909190916101000a81548173ffffffffffffffffffffffffffffffffffffffff021916908373ffffffffffffffffffffffffffffffffffffffff160217905550505050505050565b6000620009508262000620565b90508073ffffffffffffffffffffffffffffffffffffffff16636657499e6040518163ffffffff1660e01b8152600401600060405180830381600087803b1580156200099b57600080fd5b505af1158015620009b0573d6000803e3d6000fd5b505050506001819080600181540180825580915050600190039060005260206000200160009091909190916101000a81548173ffffffffffffffffffffffffffffffffffffffff021916908373ffffffffffffffffffffffffffffffffffffffff16021790555060008290505b600160008054905062000a319190620016ae565b81101562000b4657600060018262000a4a919062001651565b8154811062000a82577f4e487b7100000000000000000000000000000000000000000000000000000000600052603260045260246000fd5b9060005260206000200160009054906101000a900473ffffffffffffffffffffffffffffffffffffffff166000828154811062000ae8577f4e487b7100000000000000000000000000000000000000000000000000000000600052603260045260246000fd5b9060005260206000200160006101000a81548173ffffffffffffffffffffffffffffffffffffffff021916908373ffffffffffffffffffffffffffffffffffffffff160217905550808062000b3d90620017ca565b91505062000a1d565b50600080548062000b80577f4e487b7100000000000000000000000000000000000000000000000000000000600052603160045260246000fd5b6001900381819060005260206000200160006101000a81549073ffffffffffffffffffffffffffffffffffffffff021916905590555050565b611537806200191d83390190565b6128eb8062002e5483390190565b600062000bec62000be684620014d4565b620014ab565b9050808382526020820190508285602086028201111562000c0c57600080fd5b60005b8581101562000c5b57813567ffffffffffffffff81111562000c3057600080fd5b80860162000c3f898262000d67565b8552602085019450602084019350505060018101905062000c0f565b5050509392505050565b600062000c7c62000c768462001503565b620014ab565b9050808382526020820190508285602086028201111562000c9c57600080fd5b60005b8581101562000ceb57813567ffffffffffffffff81111562000cc057600080fd5b80860162000ccf898262000d94565b8552602085019450602084019350505060018101905062000c9f565b5050509392505050565b600062000d0c62000d068462001532565b620014ab565b90508281526020810184848401111562000d2557600080fd5b62000d328482856200174f565b509392505050565b600082601f83011262000d4c57600080fd5b813562000d5e84826020860162000bd5565b91505092915050565b600082601f83011262000d7957600080fd5b813562000d8b84826020860162000c65565b91505092915050565b600082601f83011262000da657600080fd5b813562000db884826020860162000cf5565b91505092915050565b60008135905062000dd28162001902565b92915050565b600080600080600060a0868803121562000df157600080fd5b600086013567ffffffffffffffff81111562000e0c57600080fd5b62000e1a8882890162000d94565b955050602086013567ffffffffffffffff81111562000e3857600080fd5b62000e468882890162000d3a565b945050604086013567ffffffffffffffff81111562000e6457600080fd5b62000e728882890162000d67565b935050606086013567ffffffffffffffff81111562000e9057600080fd5b62000e9e8882890162000d94565b925050608062000eb18882890162000dc1565b9150509295509295909350565b60008060006060848603121562000ed457600080fd5b600084013567ffffffffffffffff81111562000eef57600080fd5b62000efd8682870162000d94565b935050602084013567ffffffffffffffff81111562000f1b57600080fd5b62000f298682870162000d67565b925050604084013567ffffffffffffffff81111562000f4757600080fd5b62000f558682870162000d94565b9150509250925092565b60006020828403121562000f7257600080fd5b600062000f828482850162000dc1565b91505092915050565b600062000f99838362000fd1565b60208301905092915050565b600062000fb38383620010de565b905092915050565b600062000fc98383620011f1565b905092915050565b62000fdc81620016e9565b82525050565b62000fed81620016e9565b82525050565b6000620010008262001598565b6200100c8185620015eb565b9350620010198362001568565b8060005b838110156200105057815162001034888262000f8b565b97506200104183620015c4565b9250506001810190506200101d565b5085935050505092915050565b60006200106a82620015a3565b620010768185620015fc565b9350836020820285016200108a8562001578565b8060005b85811015620010cc5784840389528151620010aa858262000fa5565b9450620010b783620015d1565b925060208a019950506001810190506200108e565b50829750879550505050505092915050565b6000620010eb82620015ae565b620010f781856200160d565b9350836020820285016200110b8562001588565b8060005b858110156200114d57848403895281516200112b858262000fbb565b94506200113883620015de565b925060208a019950506001810190506200110f565b50829750879550505050505092915050565b60006200116c82620015ae565b6200117881856200161e565b9350836020820285016200118c8562001588565b8060005b85811015620011ce5784840389528151620011ac858262000fbb565b9450620011b983620015de565b925060208a0199505060018101905062001190565b50829750879550505050505092915050565b620011eb8162001727565b82525050565b6000620011fe82620015b9565b6200120a81856200162f565b93506200121c8185602086016200175e565b620012278162001876565b840191505092915050565b60006200123f82620015b9565b6200124b818562001640565b93506200125d8185602086016200175e565b620012688162001876565b840191505092915050565b60006200128260068362001640565b91506200128f8262001887565b602082019050919050565b6000620012a960158362001640565b9150620012b682620018b0565b602082019050919050565b6000620012d060108362001640565b9150620012dd82620018d9565b602082019050919050565b620012f3816200171d565b82525050565b600060208201905062001310600083018462000fe2565b92915050565b6000602082019050818103600083015262001332818462000ff3565b905092915050565b6000602082019050620013516000830184620011e0565b92915050565b600060e082019050818103600083015262001373818962001232565b905081810360208301526200138981886200105d565b905081810360408301526200139f81876200115f565b9050620013b0606083018662000fe2565b8181036080830152620013c4818562001232565b9050620013d560a0830184620012e8565b81810360c0830152620013e88162001273565b9050979650505050505050565b600060a082019050818103600083015262001411818762001232565b905081810360208301526200142781866200115f565b905062001438604083018562000fe2565b81810360608301526200144c818462001232565b905081810360808301526200146181620012c1565b905095945050505050565b6000602082019050818103600083015262001487816200129a565b9050919050565b6000602082019050620014a56000830184620012e8565b92915050565b6000620014b7620014ca565b9050620014c5828262001794565b919050565b6000604051905090565b600067ffffffffffffffff821115620014f257620014f162001847565b5b602082029050602081019050919050565b600067ffffffffffffffff82111562001521576200152062001847565b5b602082029050602081019050919050565b600067ffffffffffffffff82111562001550576200154f62001847565b5b6200155b8262001876565b9050602081019050919050565b6000819050602082019050919050565b6000819050602082019050919050565b6000819050602082019050919050565b600081519050919050565b600081519050919050565b600081519050919050565b600081519050919050565b6000602082019050919050565b6000602082019050919050565b6000602082019050919050565b600082825260208201905092915050565b600082825260208201905092915050565b600082825260208201905092915050565b600082825260208201905092915050565b600082825260208201905092915050565b600082825260208201905092915050565b60006200165e826200171d565b91506200166b836200171d565b9250827fffffffffffffffffffffffffffffffffffffffffffffffffffffffffffffffff03821115620016a357620016a262001818565b5b828201905092915050565b6000620016bb826200171d565b9150620016c8836200171d565b925082821015620016de57620016dd62001818565b5b828203905092915050565b6000620016f682620016fd565b9050919050565b600073ffffffffffffffffffffffffffffffffffffffff82169050919050565b6000819050919050565b600062001734826200173b565b9050919050565b60006200174882620016fd565b9050919050565b82818337600083830152505050565b60005b838110156200177e57808201518184015260208101905062001761565b838111156200178e576000848401525b50505050565b6200179f8262001876565b810181811067ffffffffffffffff82111715620017c157620017c062001847565b5b80604052505050565b6000620017d7826200171d565b91507fffffffffffffffffffffffffffffffffffffffffffffffffffffffffffffffff8214156200180d576200180c62001818565b5b600182019050919050565b7f4e487b7100000000000000000000000000000000000000000000000000000000600052601160045260246000fd5b7f4e487b7100000000000000000000000000000000000000000000000000000000600052604160045260246000fd5b6000601f19601f8301169050919050565b7f64686f6e64740000000000000000000000000000000000000000000000000000600082015250565b7f496e646963652066756572612064652072616e676f0000000000000000000000600082015250565b7f6d61796f7269612d6162736f6c75746100000000000000000000000000000000600082015250565b6200190d816200171d565b81146200191957600080fd5b5056fe60806040526000600160006101000a81548160ff02191690831515021790555060006001806101000a81548160ff0219169083151502179055503480156200004657600080fd5b50604051620015373803806200153783398181016040528101906200006c919062000401565b84600090805190602001906200008492919062000136565b5060018060006101000a81548160ff0219169083151502179055508360029080519060200190620000b7929190620001c7565b5082600560006101000a81548173ffffffffffffffffffffffffffffffffffffffff021916908373ffffffffffffffffffffffffffffffffffffffff16021790555081600690805190602001906200011192919062000136565b5080600490805190602001906200012a92919062000136565b505050505050620006d4565b8280546200014490620005df565b90600052602060002090601f016020900481019282620001685760008555620001b4565b82601f106200018357805160ff1916838001178555620001b4565b82800160010185558215620001b4579182015b82811115620001b357825182559160200191906001019062000196565b5b509050620001c391906200022e565b5090565b8280548282559060005260206000209081019282156200021b579160200282015b828111156200021a5782518290805190602001906200020992919062000136565b5091602001919060010190620001e8565b5b5090506200022a91906200024d565b5090565b5b80821115620002495760008160009055506001016200022f565b5090565b5b8082111562000271576000818162000267919062000275565b506001016200024e565b5090565b5080546200028390620005df565b6000825580601f10620002975750620002b8565b601f016020900490600052602060002090810190620002b791906200022e565b5b50565b6000620002d2620002cc8462000510565b620004e7565b90508083825260208201905082856020860282011115620002f257600080fd5b60005b858110156200034157815167ffffffffffffffff8111156200031657600080fd5b808601620003258982620003d4565b85526020850194506020840193505050600181019050620002f5565b5050509392505050565b6000620003626200035c846200053f565b620004e7565b9050828152602081018484840111156200037b57600080fd5b62000388848285620005a9565b509392505050565b600081519050620003a181620006ba565b92915050565b600082601f830112620003b957600080fd5b8151620003cb848260208601620002bb565b91505092915050565b600082601f830112620003e657600080fd5b8151620003f88482602086016200034b565b91505092915050565b600080600080600060a086880312156200041a57600080fd5b600086015167ffffffffffffffff8111156200043557600080fd5b6200044388828901620003d4565b955050602086015167ffffffffffffffff8111156200046157600080fd5b6200046f88828901620003a7565b9450506040620004828882890162000390565b935050606086015167ffffffffffffffff811115620004a057600080fd5b620004ae88828901620003d4565b925050608086015167ffffffffffffffff811115620004cc57600080fd5b620004da88828901620003d4565b9150509295509295909350565b6000620004f362000506565b905062000501828262000615565b919050565b6000604051905090565b600067ffffffffffffffff8211156200052e576200052d6200067a565b5b602082029050602081019050919050565b600067ffffffffffffffff8211156200055d576200055c6200067a565b5b6200056882620006a9565b9050602081019050919050565b6000620005828262000589565b9050919050565b600073ffffffffffffffffffffffffffffffffffffffff82169050919050565b60005b83811015620005c9578082015181840152602081019050620005ac565b83811115620005d9576000848401525b50505050565b60006002820490506001821680620005f857607f821691505b602082108114156200060f576200060e6200064b565b5b50919050565b6200062082620006a9565b810181811067ffffffffffffffff821117156200064257620006416200067a565b5b80604052505050565b7f4e487b7100000000000000000000000000000000000000000000000000000000600052602260045260246000fd5b7f4e487b7100000000000000000000000000000000000000000000000000000000600052604160045260246000fd5b6000601f19601f8301169050919050565b620006c58162000575565b8114620006d157600080fd5b50565b610e5380620006e46000396000f3fe608060405234801561001057600080fd5b506004361061010b5760003560e01c80638f023f85116100a2578063a813957d11610071578063a813957d14610286578063b2731f0e146102a4578063bc7b35b2146102d4578063c45a0155146102f2578063e685aa48146103105761010b565b80638f023f85146101ea578063901c3fee1461021a5780639159723314610238578063a2f6148d146102685761010b565b80636657499e116100de5780636657499e14610186578063688e346714610190578063722d22fc146101ae5780637f49d855146101cc5761010b565b80630da2aef1146101105780631bfb66d61461012e578063216068311461014c57806347bc22f214610168575b600080fd5b61011861031a565b6040516101259190610abd565b60405180910390f35b61013661032b565b6040516101439190610abd565b60405180910390f35b61016660048036038101906101619190610987565b610340565b005b610170610409565b60405161017d9190610b7a565b60405180910390f35b61018e610416565b005b6101986104c2565b6040516101a59190610abd565b60405180910390f35b6101b66104d5565b6040516101c39190610abd565b60405180910390f35b6101d46104ec565b6040516101e19190610ad8565b60405180910390f35b61020460048036038101906101ff9190610987565b61057e565b6040516102119190610ad8565b60405180910390f35b61022261062a565b60405161022f9190610ad8565b60405180910390f35b610252600480360381019061024d9190610987565b6106bc565b60405161025f9190610b7a565b60405180910390f35b6102706106d9565b60405161027d9190610ad8565b60405180910390f35b61028e61076b565b60405161029b9190610ad8565b60405180910390f35b6102be60048036038101906102b99190610987565b6107f9565b6040516102cb9190610b7a565b60405180910390f35b6102dc610811565b6040516102e99190610ad8565b60405180910390f35b6102fa61089f565b6040516103079190610aa2565b60405180910390f35b6103186108c5565b005b60018054906101000a900460ff1681565b600060018054906101000a900460ff16905090565b600160009054906101000a900460ff1661038f576040517f08c379a000000000000000000000000000000000000000000000000000000000815260040161038690610afa565b60405180910390fd5b60018054906101000a900460ff16156103dd576040517f08c379a00000000000000000000000000000000000000000000000000000000081526004016103d490610b5a565b60405180910390fd5b60036000828152602001908152602001600020600081548092919061040190610c5e565b919050555050565b6000600280549050905090565b600560009054906101000a900473ffffffffffffffffffffffffffffffffffffffff1673ffffffffffffffffffffffffffffffffffffffff163373ffffffffffffffffffffffffffffffffffffffff16146104a6576040517f08c379a000000000000000000000000000000000000000000000000000000000815260040161049d90610b1a565b60405180910390fd5b60018060016101000a81548160ff021916908315150217905550565b600160009054906101000a900460ff1681565b6000600160009054906101000a900460ff16905090565b6060600080546104fb90610c2c565b80601f016020809104026020016040519081016040528092919081815260200182805461052790610c2c565b80156105745780601f1061054957610100808354040283529160200191610574565b820191906000526020600020905b81548152906001019060200180831161055757829003601f168201915b5050505050905090565b6002818154811061058e57600080fd5b9060005260206000200160009150905080546105a990610c2c565b80601f01602080910402602001604051908101604052809291908181526020018280546105d590610c2c565b80156106225780601f106105f757610100808354040283529160200191610622565b820191906000526020600020905b81548152906001019060200180831161060557829003601f168201915b505050505081565b60606006805461063990610c2c565b80601f016020809104026020016040519081016040528092919081815260200182805461066590610c2c565b80156106b25780601f10610687576101008083540402835291602001916106b2565b820191906000526020600020905b81548152906001019060200180831161069557829003601f168201915b5050505050905090565b600060036000838152602001908152602001600020549050919050565b6060600480546106e890610c2c565b80601f016020809104026020016040519081016040528092919081815260200182805461071490610c2c565b80156107615780601f1061073657610100808354040283529160200191610761565b820191906000526020600020905b81548152906001019060200180831161074457829003601f168201915b5050505050905090565b6004805461077890610c2c565b80601f01602080910402602001604051908101604052809291908181526020018280546107a490610c2c565b80156107f15780601f106107c6576101008083540402835291602001916107f1565b820191906000526020600020905b8154815290600101906020018083116107d457829003601f168201915b505050505081565b60036020528060005260406000206000915090505481565b6000805461081e90610c2c565b80601f016020809104026020016040519081016040528092919081815260200182805461084a90610c2c565b80156108975780601f1061086c57610100808354040283529160200191610897565b820191906000526020600020905b81548152906001019060200180831161087a57829003601f168201915b505050505081565b600560009054906101000a900473ffffffffffffffffffffffffffffffffffffffff1681565b600560009054906101000a900473ffffffffffffffffffffffffffffffffffffffff1673ffffffffffffffffffffffffffffffffffffffff163373ffffffffffffffffffffffffffffffffffffffff1614610955576040517f08c379a000000000000000000000000000000000000000000000000000000000815260040161094c90610b3a565b60405180910390fd5b6000600160006101000a81548160ff021916908315150217905550565b60008135905061098181610e06565b92915050565b60006020828403121561099957600080fd5b60006109a784828501610972565b91505092915050565b6109b981610bb1565b82525050565b6109c881610bc3565b82525050565b60006109d982610b95565b6109e38185610ba0565b93506109f3818560208601610bf9565b6109fc81610d05565b840191505092915050565b6000610a14601f83610ba0565b9150610a1f82610d16565b602082019050919050565b6000610a37602a83610ba0565b9150610a4282610d3f565b604082019050919050565b6000610a5a602a83610ba0565b9150610a6582610d8e565b604082019050919050565b6000610a7d601e83610ba0565b9150610a8882610ddd565b602082019050919050565b610a9c81610bef565b82525050565b6000602082019050610ab760008301846109b0565b92915050565b6000602082019050610ad260008301846109bf565b92915050565b60006020820190508181036000830152610af281846109ce565b905092915050565b60006020820190508181036000830152610b1381610a07565b9050919050565b60006020820190508181036000830152610b3381610a2a565b9050919050565b60006020820190508181036000830152610b5381610a4d565b9050919050565b60006020820190508181036000830152610b7381610a70565b9050919050565b6000602082019050610b8f6000830184610a93565b92915050565b600081519050919050565b600082825260208201905092915050565b6000610bbc82610bcf565b9050919050565b60008115159050919050565b600073ffffffffffffffffffffffffffffffffffffffff82169050919050565b6000819050919050565b60005b83811015610c17578082015181840152602081019050610bfc565b83811115610c26576000848401525b50505050565b60006002820490506001821680610c4457607f821691505b60208210811415610c5857610c57610cd6565b5b50919050565b6000610c6982610bef565b91507fffffffffffffffffffffffffffffffffffffffffffffffffffffffffffffffff821415610c9c57610c9b610ca7565b5b600182019050919050565b7f4e487b7100000000000000000000000000000000000000000000000000000000600052601160045260246000fd5b7f4e487b7100000000000000000000000000000000000000000000000000000000600052602260045260246000fd5b6000601f19601f8301169050919050565b7f4573746120766f746163696f6e206861207369646f20656c696d696e61646100600082015250565b7f536f6c6f206c6120666163746f7279207075656465207465726d696e6172206c60008201527f6120766f746163696f6e00000000000000000000000000000000000000000000602082015250565b7f536f6c6f206c6120666163746f727920707565646520656c696d696e6172206c60008201527f6120766f746163696f6e00000000000000000000000000000000000000000000602082015250565b7f4573746120766f746163696f6e2079612068612066696e616c697a61646f0000600082015250565b610e0f81610bef565b8114610e1a57600080fd5b5056fea26469706673582212201347c10e8beb5e314a7887104af0a959883520c478a99766bdc87d6517291a6064736f6c6343000804003360806040526000600160006101000a81548160ff02191690831515021790555060006001806101000a81548160ff0219169083151502179055503480156200004657600080fd5b50604051620028eb380380620028eb83398181016040528101906200006c919062000a3b565b8686600081518110620000a8577f4e487b7100000000000000000000000000000000000000000000000000000000600052603260045260246000fd5b60200260200101518585848460009080519060200190620000cb929190620004e6565b5060018060006101000a81548160ff0219169083151502179055508360029080519060200190620000fe92919062000577565b5082600560006101000a81548173ffffffffffffffffffffffffffffffffffffffff021916908373ffffffffffffffffffffffffffffffffffffffff160217905550816006908051906020019062000158929190620004e6565b50806004908051906020019062000171929190620004e6565b50505050505081600781905550856008908051906020019062000196929190620005de565b5060018060006101000a81548160ff0219169083151502179055508460099080519060200190620001c992919062000577565b50855167ffffffffffffffff8111156200020c577f4e487b7100000000000000000000000000000000000000000000000000000000600052604160045260246000fd5b6040519080825280602002602001820160405280156200024157816020015b60608152602001906001900390816200022b5790505b50600a90805190602001906200025992919062000645565b5060005b86518110156200038b57868181518110620002a1577f4e487b7100000000000000000000000000000000000000000000000000000000600052603260045260246000fd5b60200260200101515167ffffffffffffffff811115620002ea577f4e487b7100000000000000000000000000000000000000000000000000000000600052604160045260246000fd5b604051908082528060200260200182016040528015620003195781602001602082028036833780820191505090505b50600a828154811062000355577f4e487b7100000000000000000000000000000000000000000000000000000000600052603260045260246000fd5b90600052602060002001908051906020019062000374929190620006ac565b508080620003829062000d02565b9150506200025d565b506000600190505b8651811015620004d85760005b878281518110620003da577f4e487b7100000000000000000000000000000000000000000000000000000000600052603260045260246000fd5b602002602001015151811015620004c157600288838151811062000427577f4e487b7100000000000000000000000000000000000000000000000000000000600052603260045260246000fd5b6020026020010151828151811062000468577f4e487b7100000000000000000000000000000000000000000000000000000000600052603260045260246000fd5b6020026020010151908060018154018082558091505060019003906000526020600020016000909190919091509080519060200190620004aa929190620004e6565b508080620004b89062000d02565b915050620003a0565b508080620004cf9062000d02565b91505062000393565b505050505050505062000e22565b828054620004f49062000c96565b90600052602060002090601f01602090048101928262000518576000855562000564565b82601f106200053357805160ff191683800117855562000564565b8280016001018555821562000564579182015b828111156200056357825182559160200191906001019062000546565b5b509050620005739190620006fe565b5090565b828054828255906000526020600020908101928215620005cb579160200282015b82811115620005ca578251829080519060200190620005b9929190620004e6565b509160200191906001019062000598565b5b509050620005da91906200071d565b5090565b82805482825590600052602060002090810192821562000632579160200282015b82811115620006315782518290805190602001906200062092919062000577565b5091602001919060010190620005ff565b5b50905062000641919062000745565b5090565b82805482825590600052602060002090810192821562000699579160200282015b828111156200069857825182908051906020019062000687929190620006ac565b509160200191906001019062000666565b5b509050620006a891906200076d565b5090565b828054828255906000526020600020908101928215620006eb579160200282015b82811115620006ea578251825591602001919060010190620006cd565b5b509050620006fa9190620006fe565b5090565b5b8082111562000719576000816000905550600101620006ff565b5090565b5b8082111562000741576000818162000737919062000795565b506001016200071e565b5090565b5b808211156200076957600081816200075f9190620007db565b5060010162000746565b5090565b5b80821115620007915760008181620007879190620007fe565b506001016200076e565b5090565b508054620007a39062000c96565b6000825580601f10620007b75750620007d8565b601f016020900490600052602060002090810190620007d79190620006fe565b5b50565b5080546000825590600052602060002090810190620007fb91906200071d565b50565b50805460008255906000526020600020908101906200081e9190620006fe565b50565b600062000838620008328462000b8e565b62000b65565b905080838252602082019050828560208602820111156200085857600080fd5b60005b85811015620008a757815167ffffffffffffffff8111156200087c57600080fd5b8086016200088b8982620009ca565b855260208501945060208401935050506001810190506200085b565b5050509392505050565b6000620008c8620008c28462000bbd565b62000b65565b90508083825260208201905082856020860282011115620008e857600080fd5b60005b858110156200093757815167ffffffffffffffff8111156200090c57600080fd5b8086016200091b8982620009f7565b85526020850194506020840193505050600181019050620008eb565b5050509392505050565b600062000958620009528462000bec565b62000b65565b9050828152602081018484840111156200097157600080fd5b6200097e84828562000c60565b509392505050565b600081519050620009978162000dee565b92915050565b600082601f830112620009af57600080fd5b8151620009c184826020860162000821565b91505092915050565b600082601f830112620009dc57600080fd5b8151620009ee848260208601620008b1565b91505092915050565b600082601f83011262000a0957600080fd5b815162000a1b84826020860162000941565b91505092915050565b60008151905062000a358162000e08565b92915050565b600080600080600080600060e0888a03121562000a5757600080fd5b600088015167ffffffffffffffff81111562000a7257600080fd5b62000a808a828b01620009f7565b975050602088015167ffffffffffffffff81111562000a9e57600080fd5b62000aac8a828b016200099d565b965050604088015167ffffffffffffffff81111562000aca57600080fd5b62000ad88a828b01620009ca565b955050606062000aeb8a828b0162000986565b945050608088015167ffffffffffffffff81111562000b0957600080fd5b62000b178a828b01620009f7565b93505060a062000b2a8a828b0162000a24565b92505060c088015167ffffffffffffffff81111562000b4857600080fd5b62000b568a828b01620009f7565b91505092959891949750929550565b600062000b7162000b84565b905062000b7f828262000ccc565b919050565b6000604051905090565b600067ffffffffffffffff82111562000bac5762000bab62000dae565b5b602082029050602081019050919050565b600067ffffffffffffffff82111562000bdb5762000bda62000dae565b5b602082029050602081019050919050565b600067ffffffffffffffff82111562000c0a5762000c0962000dae565b5b62000c158262000ddd565b9050602081019050919050565b600062000c2f8262000c36565b9050919050565b600073ffffffffffffffffffffffffffffffffffffffff82169050919050565b6000819050919050565b60005b8381101562000c8057808201518184015260208101905062000c63565b8381111562000c90576000848401525b50505050565b6000600282049050600182168062000caf57607f821691505b6020821081141562000cc65762000cc562000d7f565b5b50919050565b62000cd78262000ddd565b810181811067ffffffffffffffff8211171562000cf95762000cf862000dae565b5b80604052505050565b600062000d0f8262000c56565b91507fffffffffffffffffffffffffffffffffffffffffffffffffffffffffffffffff82141562000d455762000d4462000d50565b5b600182019050919050565b7f4e487b7100000000000000000000000000000000000000000000000000000000600052601160045260246000fd5b7f4e487b7100000000000000000000000000000000000000000000000000000000600052602260045260246000fd5b7f4e487b7100000000000000000000000000000000000000000000000000000000600052604160045260246000fd5b6000601f19601f8301169050919050565b62000df98162000c22565b811462000e0557600080fd5b50565b62000e138162000c56565b811462000e1f57600080fd5b50565b611ab98062000e326000396000f3fe608060405234801561001057600080fd5b50600436106101da5760003560e01c80639159723311610104578063bc7b35b2116100a2578063d777189f11610071578063d777189f14610587578063dc8f8277146105a5578063de155b89146105d5578063e685aa48146105f3576101da565b8063bc7b35b2146104eb578063c45a015514610509578063cbf77c2e14610527578063d0a3776d14610557576101da565b8063a3a2bc15116100de578063a3a2bc151461044f578063a813957d1461046d578063b2731f0e1461048b578063b7fa8560146104bb576101da565b806391597233146103d1578063a0a041f814610401578063a2f6148d14610431576101da565b8063586eecaf1161017c578063722d22fc1161014b578063722d22fc146103475780637f49d855146103655780638f023f8514610383578063901c3fee146103b3576101da565b8063586eecaf146102d15780636657499e14610301578063688e34671461030b5780636f1c11e914610329576101da565b80631bfb66d6116101b85780631bfb66d614610249578063216068311461026757806332add3c31461028357806347bc22f2146102b3576101da565b8063056a6ed9146101df5780630da2aef11461020f5780630e47299b1461022d575b600080fd5b6101f960048036038101906101f491906113a7565b6105fd565b604051610206919061175d565b60405180910390f35b61021761068e565b60405161022491906116a0565b60405180910390f35b610247600480360381019061024291906113a7565b61069f565b005b6102516107dc565b60405161025e91906116a0565b60405180910390f35b610281600480360381019061027c919061137e565b6107f1565b005b61029d600480360381019061029891906113a7565b6108ba565b6040516102aa919061175d565b60405180910390f35b6102bb6108f7565b6040516102c8919061175d565b60405180910390f35b6102eb60048036038101906102e6919061137e565b610904565b6040516102f8919061167e565b60405180910390f35b6103096109a0565b005b610313610a4c565b60405161032091906116a0565b60405180910390f35b610331610a5f565b60405161033e919061175d565b60405180910390f35b61034f610a69565b60405161035c91906116a0565b60405180910390f35b61036d610a80565b60405161037a91906116bb565b60405180910390f35b61039d6004803603810190610398919061137e565b610b12565b6040516103aa91906116bb565b60405180910390f35b6103bb610bbe565b6040516103c891906116bb565b60405180910390f35b6103eb60048036038101906103e6919061137e565b610c50565b6040516103f8919061175d565b60405180910390f35b61041b6004803603810190610416919061137e565b610c6d565b60405161042891906116bb565b60405180910390f35b610439610d43565b60405161044691906116bb565b60405180910390f35b610457610dd5565b604051610464919061175d565b60405180910390f35b610475610de2565b60405161048291906116bb565b60405180910390f35b6104a560048036038101906104a0919061137e565b610e70565b6040516104b2919061175d565b60405180910390f35b6104d560048036038101906104d091906113a7565b610e88565b6040516104e291906116bb565b60405180910390f35b6104f3610fa1565b60405161050091906116bb565b60405180910390f35b61051161102f565b60405161051e9190611641565b60405180910390f35b610541600480360381019061053c919061137e565b611055565b60405161054e919061175d565b60405180910390f35b610571600480360381019061056c919061137e565b6110a6565b60405161057e91906116bb565b60405180910390f35b61058f611152565b60405161059c919061175d565b60405180910390f35b6105bf60048036038101906105ba91906113a7565b611158565b6040516105cc91906116bb565b60405180910390f35b6105dd61121d565b6040516105ea919061165c565b60405180910390f35b6105fb6112bc565b005b6000600a8381548110610639577f4e487b7100000000000000000000000000000000000000000000000000000000600052603260045260246000fd5b90600052602060002001828154811061067b577f4e487b7100000000000000000000000000000000000000000000000000000000600052603260045260246000fd5b9060005260206000200154905092915050565b60018054906101000a900460ff1681565b600160009054906101000a900460ff166106ee576040517f08c379a00000000000000000000000000000000000000000000000000000000081526004016106e5906116dd565b60405180910390fd5b60018054906101000a900460ff161561073c576040517f08c379a00000000000000000000000000000000000000000000000000000000081526004016107339061173d565b60405180910390fd5b600a8281548110610776577f4e487b7100000000000000000000000000000000000000000000000000000000600052603260045260246000fd5b9060005260206000200181815481106107b8577f4e487b7100000000000000000000000000000000000000000000000000000000600052603260045260246000fd5b9060005260206000200160008154809291906107d3906118c4565b91905055505050565b600060018054906101000a900460ff16905090565b600160009054906101000a900460ff16610840576040517f08c379a0000000000000000000000000000000000000000000000000000000008152600401610837906116dd565b60405180910390fd5b60018054906101000a900460ff161561088e576040517f08c379a00000000000000000000000000000000000000000000000000000000081526004016108859061173d565b60405180910390fd5b6003600082815260200190815260200160002060008154809291906108b2906118c4565b919050555050565b600a82815481106108ca57600080fd5b9060005260206000200181815481106108e257600080fd5b90600052602060002001600091509150505481565b6000600280549050905090565b6060600a8281548110610940577f4e487b7100000000000000000000000000000000000000000000000000000000600052603260045260246000fd5b9060005260206000200180548060200260200160405190810160405280929190818152602001828054801561099457602002820191906000526020600020905b815481526020019060010190808311610980575b50505050509050919050565b600560009054906101000a900473ffffffffffffffffffffffffffffffffffffffff1673ffffffffffffffffffffffffffffffffffffffff163373ffffffffffffffffffffffffffffffffffffffff1614610a30576040517f08c379a0000000000000000000000000000000000000000000000000000000008152600401610a27906116fd565b60405180910390fd5b60018060016101000a81548160ff021916908315150217905550565b600160009054906101000a900460ff1681565b6000600754905090565b6000600160009054906101000a900460ff16905090565b606060008054610a8f90611892565b80601f0160208091040260200160405190810160405280929190818152602001828054610abb90611892565b8015610b085780601f10610add57610100808354040283529160200191610b08565b820191906000526020600020905b815481529060010190602001808311610aeb57829003601f168201915b5050505050905090565b60028181548110610b2257600080fd5b906000526020600020016000915090508054610b3d90611892565b80601f0160208091040260200160405190810160405280929190818152602001828054610b6990611892565b8015610bb65780601f10610b8b57610100808354040283529160200191610bb6565b820191906000526020600020905b815481529060010190602001808311610b9957829003601f168201915b505050505081565b606060068054610bcd90611892565b80601f0160208091040260200160405190810160405280929190818152602001828054610bf990611892565b8015610c465780601f10610c1b57610100808354040283529160200191610c46565b820191906000526020600020905b815481529060010190602001808311610c2957829003601f168201915b5050505050905090565b600060036000838152602001908152602001600020549050919050565b606060098281548110610ca9577f4e487b7100000000000000000000000000000000000000000000000000000000600052603260045260246000fd5b906000526020600020018054610cbe90611892565b80601f0160208091040260200160405190810160405280929190818152602001828054610cea90611892565b8015610d375780601f10610d0c57610100808354040283529160200191610d37565b820191906000526020600020905b815481529060010190602001808311610d1a57829003601f168201915b50505050509050919050565b606060048054610d5290611892565b80601f0160208091040260200160405190810160405280929190818152602001828054610d7e90611892565b8015610dcb5780601f10610da057610100808354040283529160200191610dcb565b820191906000526020600020905b815481529060010190602001808311610dae57829003601f168201915b5050505050905090565b6000600880549050905090565b60048054610def90611892565b80601f0160208091040260200160405190810160405280929190818152602001828054610e1b90611892565b8015610e685780601f10610e3d57610100808354040283529160200191610e68565b820191906000526020600020905b815481529060010190602001808311610e4b57829003601f168201915b505050505081565b60036020528060005260406000206000915090505481565b606060088381548110610ec4577f4e487b7100000000000000000000000000000000000000000000000000000000600052603260045260246000fd5b906000526020600020018281548110610f06577f4e487b7100000000000000000000000000000000000000000000000000000000600052603260045260246000fd5b906000526020600020018054610f1b90611892565b80601f0160208091040260200160405190810160405280929190818152602001828054610f4790611892565b8015610f945780601f10610f6957610100808354040283529160200191610f94565b820191906000526020600020905b815481529060010190602001808311610f7757829003601f168201915b5050505050905092915050565b60008054610fae90611892565b80601f0160208091040260200160405190810160405280929190818152602001828054610fda90611892565b80156110275780601f10610ffc57610100808354040283529160200191611027565b820191906000526020600020905b81548152906001019060200180831161100a57829003601f168201915b505050505081565b600560009054906101000a900473ffffffffffffffffffffffffffffffffffffffff1681565b600060088281548110611091577f4e487b7100000000000000000000000000000000000000000000000000000000600052603260045260246000fd5b90600052602060002001805490509050919050565b600981815481106110b657600080fd5b9060005260206000200160009150905080546110d190611892565b80601f01602080910402602001604051908101604052809291908181526020018280546110fd90611892565b801561114a5780601f1061111f5761010080835404028352916020019161114a565b820191906000526020600020905b81548152906001019060200180831161112d57829003601f168201915b505050505081565b60075481565b6008828154811061116857600080fd5b90600052602060002001818154811061118057600080fd5b9060005260206000200160009150915050805461119c90611892565b80601f01602080910402602001604051908101604052809291908181526020018280546111c890611892565b80156112155780601f106111ea57610100808354040283529160200191611215565b820191906000526020600020905b8154815290600101906020018083116111f857829003601f168201915b505050505081565b6060600a805480602002602001604051908101604052809291908181526020016000905b828210156112b35783829060005260206000200180548060200260200160405190810160405280929190818152602001828054801561129f57602002820191906000526020600020905b81548152602001906001019080831161128b575b505050505081526020019060010190611241565b50505050905090565b600560009054906101000a900473ffffffffffffffffffffffffffffffffffffffff1673ffffffffffffffffffffffffffffffffffffffff163373ffffffffffffffffffffffffffffffffffffffff161461134c576040517f08c379a00000000000000000000000000000000000000000000000000000000081526004016113439061171d565b60405180910390fd5b6000600160006101000a81548160ff021916908315150217905550565b60008135905061137881611a6c565b92915050565b60006020828403121561139057600080fd5b600061139e84828501611369565b91505092915050565b600080604083850312156113ba57600080fd5b60006113c885828601611369565b92505060206113d985828601611369565b9150509250929050565b60006113ef8383611493565b905092915050565b60006114038383611623565b60208301905092915050565b61141881611817565b82525050565b600061142982611798565b61143381856117d3565b93508360208202850161144585611778565b8060005b85811015611481578484038952815161146285826113e3565b945061146d836117b9565b925060208a01995050600181019050611449565b50829750879550505050505092915050565b600061149e826117a3565b6114a881856117e4565b93506114b383611788565b8060005b838110156114e45781516114cb88826113f7565b97506114d6836117c6565b9250506001810190506114b7565b5085935050505092915050565b60006114fc826117a3565b61150681856117f5565b935061151183611788565b8060005b8381101561154257815161152988826113f7565b9750611534836117c6565b925050600181019050611515565b5085935050505092915050565b61155881611829565b82525050565b6000611569826117ae565b6115738185611806565b935061158381856020860161185f565b61158c8161196b565b840191505092915050565b60006115a4601f83611806565b91506115af8261197c565b602082019050919050565b60006115c7602a83611806565b91506115d2826119a5565b604082019050919050565b60006115ea602a83611806565b91506115f5826119f4565b604082019050919050565b600061160d601e83611806565b915061161882611a43565b602082019050919050565b61162c81611855565b82525050565b61163b81611855565b82525050565b6000602082019050611656600083018461140f565b92915050565b60006020820190508181036000830152611676818461141e565b905092915050565b6000602082019050818103600083015261169881846114f1565b905092915050565b60006020820190506116b5600083018461154f565b92915050565b600060208201905081810360008301526116d5818461155e565b905092915050565b600060208201905081810360008301526116f681611597565b9050919050565b60006020820190508181036000830152611716816115ba565b9050919050565b60006020820190508181036000830152611736816115dd565b9050919050565b6000602082019050818103600083015261175681611600565b9050919050565b60006020820190506117726000830184611632565b92915050565b6000819050602082019050919050565b6000819050602082019050919050565b600081519050919050565b600081519050919050565b600081519050919050565b6000602082019050919050565b6000602082019050919050565b600082825260208201905092915050565b600082825260208201905092915050565b600082825260208201905092915050565b600082825260208201905092915050565b600061182282611835565b9050919050565b60008115159050919050565b600073ffffffffffffffffffffffffffffffffffffffff82169050919050565b6000819050919050565b60005b8381101561187d578082015181840152602081019050611862565b8381111561188c576000848401525b50505050565b600060028204905060018216806118aa57607f821691505b602082108114156118be576118bd61193c565b5b50919050565b60006118cf82611855565b91507fffffffffffffffffffffffffffffffffffffffffffffffffffffffffffffffff8214156119025761190161190d565b5b600182019050919050565b7f4e487b7100000000000000000000000000000000000000000000000000000000600052601160045260246000fd5b7f4e487b7100000000000000000000000000000000000000000000000000000000600052602260045260246000fd5b6000601f19601f8301169050919050565b7f4573746120766f746163696f6e206861207369646f20656c696d696e61646100600082015250565b7f536f6c6f206c6120666163746f7279207075656465207465726d696e6172206c60008201527f6120766f746163696f6e00000000000000000000000000000000000000000000602082015250565b7f536f6c6f206c6120666163746f727920707565646520656c696d696e6172206c60008201527f6120766f746163696f6e00000000000000000000000000000000000000000000602082015250565b7f4573746120766f746163696f6e2079612068612066696e616c697a61646f0000600082015250565b611a7581611855565b8114611a8057600080fd5b5056fea26469706673582212205373aac0d6ed6c6c0032b60b73ee3db4d74872fa15223996ed0a52cfb3a1730c64736f6c63430008040033a2646970667358221220ac0644d4428205e8d61dc2ee7b58faf2adc463b8f316b81b1b4738f8158ff54864736f6c63430008040033",
  "immutableReferences": {},
  "source": "// SPDX-License-Identifier: MIT\r\npragma solidity ^0.8.4;\r\n\r\nimport \"./Votacion.sol\";\r\nimport \"./VotacionDHondt.sol\";\r\n\r\ncontract VotacionFactory {\r\n    // Array para almacenar las direcciones de todas las votaciones\r\n    address[] public votaciones;\r\n    // Array para almacenar las direcciones de todas las votaciones terminadas\r\n    address[] public votacionesTerminadas;\r\n\r\n    function crearVotacion(string memory nombre, string[] memory candidatos, string memory descripcion) public {\r\n        Votacion votacion = new Votacion(nombre, candidatos, address(this), descripcion, \"mayoria-absoluta\");\r\n        votaciones.push(address(votacion));\r\n    }\r\n\r\n    function crearVotacionDhondt(string memory nombre, string[][] memory listas, string[] memory _nombresDeListas, string memory descripcion, uint escanios) public {\r\n        VotacionDHondt votacion = new VotacionDHondt(nombre, listas, _nombresDeListas, address(this), descripcion, escanios, \"dhondt\");\r\n        votaciones.push(address(votacion));\r\n    }\r\n\r\n\r\n    // Funcin para obtener todas las votaciones\r\n    function obtenerVotaciones() public view returns (address[] memory) {\r\n        return votaciones;\r\n    }\r\n\r\n    // Funcin para obtener todas las votaciones terminadas\r\n    function obtenerVotacionesTerminadas() public view returns (address[] memory) {\r\n        return votacionesTerminadas;\r\n    }\r\n\r\n    // Funcin para obtener una votacin por su ndice\r\n    function obtenerVotacion(uint indice) public view returns (Votacion) {\r\n        require(indice < votaciones.length, \"Indice fuera de rango\");\r\n        return Votacion(votaciones[indice]);\r\n    }\r\n\r\n    // Funcin para obtener una votacin terminada por su ndice\r\n    function obtenerVotacionTerminada(uint indice) public view returns (Votacion) {\r\n        require(indice < votacionesTerminadas.length, \"Indice fuera de rango\");\r\n        return Votacion(votacionesTerminadas[indice]);\r\n    }\r\n\r\n    // Funcin para obtener el nmero de votaciones\r\n    function ultimoIndice() public view returns (uint) {\r\n        return votaciones.length;\r\n    }\r\n\r\n    // Funcin para obtener el nmero de votaciones terminadas\r\n    function ultimoIndiceTerminadas() public view returns (uint) {\r\n        return votacionesTerminadas.length;\r\n    }\r\n\r\n    // Funcin para terminar una votacin\r\n    function terminarVotacion(uint indice) public {\r\n        Votacion votacion = obtenerVotacion(indice);\r\n        votacion.terminarVotacion();\r\n        // Mueve la votacin terminada al array de votacionesTerminadas\r\n        votacionesTerminadas.push(address(votacion));\r\n        // Mueve todas las votaciones despus de la votacin terminada una posicin hacia atrs\r\n        for (uint i = indice; i < votaciones.length - 1; i++) {\r\n            votaciones[i] = votaciones[i + 1];\r\n        }\r\n        // Elimina la ltima votacin del array\r\n        votaciones.pop();\r\n    }\r\n\r\n    // Funcin para eliminar una votacin\r\n    function eliminarVotacion(uint indice) public {\r\n        Votacion votacion = obtenerVotacion(indice);\r\n        votacion.eliminar();\r\n        // Mueve todas las votaciones despus de la votacin eliminada una posicin hacia atrs\r\n        for (uint i = indice; i < votaciones.length - 1; i++) {\r\n            votaciones[i] = votaciones[i + 1];\r\n        }\r\n        // Elimina la ltima votacin del array\r\n        votaciones.pop();\r\n    }\r\n}\r\n",
  "sourcePath": "C:\\Users\\benja\\Desktop\\votacion\\src\\contracts\\VotacionFactory.sol",
  "compiler": {
    "name": "solc",
    "version": "0.8.4+commit.c7e474f2.Emscripten.clang"
  },
  "schemaVersion": "3.4.7",
  "updatedAt": "2024-01-08T21:29:14.549Z",
  "networkType": "ethereum",
  "devdoc": {
    "kind": "dev",
    "methods": {},
    "version": 1
  },
  "userdoc": {
    "kind": "user",
    "methods": {},
    "version": 1
  }
}