{
  "contractName": "VotacionFactory",
  "abi": [
    {
      "inputs": [
        {
          "internalType": "uint256",
          "name": "",
          "type": "uint256"
        }
      ],
      "name": "votaciones",
      "outputs": [
        {
          "internalType": "address",
          "name": "",
          "type": "address"
        }
      ],
      "stateMutability": "view",
      "type": "function",
      "constant": true
    },
    {
      "inputs": [
        {
          "internalType": "uint256",
          "name": "",
          "type": "uint256"
        }
      ],
      "name": "votacionesTerminadas",
      "outputs": [
        {
          "internalType": "address",
          "name": "",
          "type": "address"
        }
      ],
      "stateMutability": "view",
      "type": "function",
      "constant": true
    },
    {
      "inputs": [
        {
          "internalType": "string",
          "name": "nombre",
          "type": "string"
        },
        {
          "internalType": "string[]",
          "name": "candidatos",
          "type": "string[]"
        }
      ],
      "name": "crearVotacion",
      "outputs": [],
      "stateMutability": "nonpayable",
      "type": "function"
    },
    {
      "inputs": [],
      "name": "obtenerVotaciones",
      "outputs": [
        {
          "internalType": "address[]",
          "name": "",
          "type": "address[]"
        }
      ],
      "stateMutability": "view",
      "type": "function",
      "constant": true
    },
    {
      "inputs": [],
      "name": "obtenerVotacionesTerminadas",
      "outputs": [
        {
          "internalType": "address[]",
          "name": "",
          "type": "address[]"
        }
      ],
      "stateMutability": "view",
      "type": "function",
      "constant": true
    },
    {
      "inputs": [
        {
          "internalType": "uint256",
          "name": "indice",
          "type": "uint256"
        }
      ],
      "name": "obtenerVotacion",
      "outputs": [
        {
          "internalType": "contract Votacion",
          "name": "",
          "type": "address"
        }
      ],
      "stateMutability": "view",
      "type": "function",
      "constant": true
    },
    {
      "inputs": [
        {
          "internalType": "uint256",
          "name": "indice",
          "type": "uint256"
        }
      ],
      "name": "obtenerVotacionTerminada",
      "outputs": [
        {
          "internalType": "contract Votacion",
          "name": "",
          "type": "address"
        }
      ],
      "stateMutability": "view",
      "type": "function",
      "constant": true
    },
    {
      "inputs": [],
      "name": "ultimoIndice",
      "outputs": [
        {
          "internalType": "uint256",
          "name": "",
          "type": "uint256"
        }
      ],
      "stateMutability": "view",
      "type": "function",
      "constant": true
    },
    {
      "inputs": [],
      "name": "ultimoIndiceTerminadas",
      "outputs": [
        {
          "internalType": "uint256",
          "name": "",
          "type": "uint256"
        }
      ],
      "stateMutability": "view",
      "type": "function",
      "constant": true
    },
    {
      "inputs": [
        {
          "internalType": "uint256",
          "name": "indice",
          "type": "uint256"
        }
      ],
      "name": "terminarVotacion",
      "outputs": [],
      "stateMutability": "nonpayable",
      "type": "function"
    },
    {
      "inputs": [
        {
          "internalType": "uint256",
          "name": "indice",
          "type": "uint256"
        }
      ],
      "name": "eliminarVotacion",
      "outputs": [],
      "stateMutability": "nonpayable",
      "type": "function"
    }
  ],
  "bytecode": "0x608060405234801561001057600080fd5b50612545806100206000396000f3fe60806040523480156200001157600080fd5b5060043610620000b85760003560e01c80635acf57b5116200007b5780635acf57b5146200018b578063822fdc8314620001c157806385be4d7b14620001f75780638e443bd11462000219578063ae8110e7146200023b578063dadd6071146200025d57620000b8565b806309842a7714620000bd5780632f88e90314620000f357806339010f71146200011357806340d223af14620001495780635a785c96146200016b575b600080fd5b620000db6004803603810190620000d5919062000ca0565b6200027d565b604051620000ea919062000f15565b60405180910390f35b6200011160048036038101906200010b919062000ca0565b62000336565b005b6200013160048036038101906200012b919062000ca0565b62000549565b60405162000140919062000f15565b60405180910390f35b6200015362000601565b60405162000162919062000ef1565b60405180910390f35b62000189600480360381019062000183919062000c2d565b62000691565b005b620001a96004803603810190620001a3919062000ca0565b6200073a565b604051620001b8919062000ed4565b60405180910390f35b620001df6004803603810190620001d9919062000ca0565b6200077a565b604051620001ee919062000ed4565b60405180910390f35b62000201620007ba565b60405162000210919062000ef1565b60405180910390f35b620002236200084a565b60405162000232919062000f9f565b60405180910390f35b6200024562000857565b60405162000254919062000f9f565b60405180910390f35b6200027b600480360381019062000275919062000ca0565b62000863565b005b60006001805490508210620002c9576040517f08c379a0000000000000000000000000000000000000000000000000000000008152600401620002c09062000f7d565b60405180910390fd5b6001828154811062000304577f4e487b7100000000000000000000000000000000000000000000000000000000600052603260045260246000fd5b9060005260206000200160009054906101000a900473ffffffffffffffffffffffffffffffffffffffff169050919050565b6000620003438262000549565b90508073ffffffffffffffffffffffffffffffffffffffff1663e685aa486040518163ffffffff1660e01b8152600401600060405180830381600087803b1580156200038e57600080fd5b505af1158015620003a3573d6000803e3d6000fd5b5050505060008290505b6001600080549050620003c1919062001146565b811015620004d6576000600182620003da9190620010e9565b8154811062000412577f4e487b7100000000000000000000000000000000000000000000000000000000600052603260045260246000fd5b9060005260206000200160009054906101000a900473ffffffffffffffffffffffffffffffffffffffff166000828154811062000478577f4e487b7100000000000000000000000000000000000000000000000000000000600052603260045260246000fd5b9060005260206000200160006101000a81548173ffffffffffffffffffffffffffffffffffffffff021916908373ffffffffffffffffffffffffffffffffffffffff1602179055508080620004cd9062001262565b915050620003ad565b50600080548062000510577f4e487b7100000000000000000000000000000000000000000000000000000000600052603160045260246000fd5b6001900381819060005260206000200160006101000a81549073ffffffffffffffffffffffffffffffffffffffff021916905590555050565b60008080549050821062000594576040517f08c379a00000000000000000000000000000000000000000000000000000000081526004016200058b9062000f7d565b60405180910390fd5b60008281548110620005cf577f4e487b7100000000000000000000000000000000000000000000000000000000600052603260045260246000fd5b9060005260206000200160009054906101000a900473ffffffffffffffffffffffffffffffffffffffff169050919050565b606060008054806020026020016040519081016040528092919081815260200182805480156200068757602002820191906000526020600020905b8160009054906101000a900473ffffffffffffffffffffffffffffffffffffffff1673ffffffffffffffffffffffffffffffffffffffff16815260200190600101908083116200063c575b5050505050905090565b6000828230604051620006a49062000ad9565b620006b29392919062000f32565b604051809103906000f080158015620006cf573d6000803e3d6000fd5b5090506000819080600181540180825580915050600190039060005260206000200160009091909190916101000a81548173ffffffffffffffffffffffffffffffffffffffff021916908373ffffffffffffffffffffffffffffffffffffffff160217905550505050565b600081815481106200074b57600080fd5b906000526020600020016000915054906101000a900473ffffffffffffffffffffffffffffffffffffffff1681565b600181815481106200078b57600080fd5b906000526020600020016000915054906101000a900473ffffffffffffffffffffffffffffffffffffffff1681565b606060018054806020026020016040519081016040528092919081815260200182805480156200084057602002820191906000526020600020905b8160009054906101000a900473ffffffffffffffffffffffffffffffffffffffff1673ffffffffffffffffffffffffffffffffffffffff1681526020019060010190808311620007f5575b5050505050905090565b6000600180549050905090565b60008080549050905090565b6000620008708262000549565b90508073ffffffffffffffffffffffffffffffffffffffff16636657499e6040518163ffffffff1660e01b8152600401600060405180830381600087803b158015620008bb57600080fd5b505af1158015620008d0573d6000803e3d6000fd5b505050506001819080600181540180825580915050600190039060005260206000200160009091909190916101000a81548173ffffffffffffffffffffffffffffffffffffffff021916908373ffffffffffffffffffffffffffffffffffffffff16021790555060008290505b600160008054905062000951919062001146565b81101562000a665760006001826200096a9190620010e9565b81548110620009a2577f4e487b7100000000000000000000000000000000000000000000000000000000600052603260045260246000fd5b9060005260206000200160009054906101000a900473ffffffffffffffffffffffffffffffffffffffff166000828154811062000a08577f4e487b7100000000000000000000000000000000000000000000000000000000600052603260045260246000fd5b9060005260206000200160006101000a81548173ffffffffffffffffffffffffffffffffffffffff021916908373ffffffffffffffffffffffffffffffffffffffff160217905550808062000a5d9062001262565b9150506200093d565b50600080548062000aa0577f4e487b7100000000000000000000000000000000000000000000000000000000600052603160045260246000fd5b6001900381819060005260206000200160006101000a81549073ffffffffffffffffffffffffffffffffffffffff021916905590555050565b6111ad806200136383390190565b600062000afe62000af88462000fe5565b62000fbc565b9050808382526020820190508285602086028201111562000b1e57600080fd5b60005b8581101562000b6d57813567ffffffffffffffff81111562000b4257600080fd5b80860162000b51898262000be9565b8552602085019450602084019350505060018101905062000b21565b5050509392505050565b600062000b8e62000b888462001014565b62000fbc565b90508281526020810184848401111562000ba757600080fd5b62000bb4848285620011e7565b509392505050565b600082601f83011262000bce57600080fd5b813562000be084826020860162000ae7565b91505092915050565b600082601f83011262000bfb57600080fd5b813562000c0d84826020860162000b77565b91505092915050565b60008135905062000c278162001348565b92915050565b6000806040838503121562000c4157600080fd5b600083013567ffffffffffffffff81111562000c5c57600080fd5b62000c6a8582860162000be9565b925050602083013567ffffffffffffffff81111562000c8857600080fd5b62000c968582860162000bbc565b9150509250929050565b60006020828403121562000cb357600080fd5b600062000cc38482850162000c16565b91505092915050565b600062000cda838362000cfc565b60208301905092915050565b600062000cf4838362000e1a565b905092915050565b62000d078162001181565b82525050565b62000d188162001181565b82525050565b600062000d2b826200106a565b62000d378185620010a5565b935062000d44836200104a565b8060005b8381101562000d7b57815162000d5f888262000ccc565b975062000d6c836200108b565b92505060018101905062000d48565b5085935050505092915050565b600062000d958262001075565b62000da18185620010b6565b93508360208202850162000db5856200105a565b8060005b8581101562000df7578484038952815162000dd5858262000ce6565b945062000de28362001098565b925060208a0199505060018101905062000db9565b50829750879550505050505092915050565b62000e1481620011bf565b82525050565b600062000e278262001080565b62000e338185620010c7565b935062000e45818560208601620011f6565b62000e50816200130e565b840191505092915050565b600062000e688262001080565b62000e748185620010d8565b935062000e86818560208601620011f6565b62000e91816200130e565b840191505092915050565b600062000eab601583620010d8565b915062000eb8826200131f565b602082019050919050565b62000ece81620011b5565b82525050565b600060208201905062000eeb600083018462000d0d565b92915050565b6000602082019050818103600083015262000f0d818462000d1e565b905092915050565b600060208201905062000f2c600083018462000e09565b92915050565b6000606082019050818103600083015262000f4e818662000e5b565b9050818103602083015262000f64818562000d88565b905062000f75604083018462000d0d565b949350505050565b6000602082019050818103600083015262000f988162000e9c565b9050919050565b600060208201905062000fb6600083018462000ec3565b92915050565b600062000fc862000fdb565b905062000fd682826200122c565b919050565b6000604051905090565b600067ffffffffffffffff821115620010035762001002620012df565b5b602082029050602081019050919050565b600067ffffffffffffffff821115620010325762001031620012df565b5b6200103d826200130e565b9050602081019050919050565b6000819050602082019050919050565b6000819050602082019050919050565b600081519050919050565b600081519050919050565b600081519050919050565b6000602082019050919050565b6000602082019050919050565b600082825260208201905092915050565b600082825260208201905092915050565b600082825260208201905092915050565b600082825260208201905092915050565b6000620010f682620011b5565b91506200110383620011b5565b9250827fffffffffffffffffffffffffffffffffffffffffffffffffffffffffffffffff038211156200113b576200113a620012b0565b5b828201905092915050565b60006200115382620011b5565b91506200116083620011b5565b925082821015620011765762001175620012b0565b5b828203905092915050565b60006200118e8262001195565b9050919050565b600073ffffffffffffffffffffffffffffffffffffffff82169050919050565b6000819050919050565b6000620011cc82620011d3565b9050919050565b6000620011e08262001195565b9050919050565b82818337600083830152505050565b60005b8381101562001216578082015181840152602081019050620011f9565b8381111562001226576000848401525b50505050565b62001237826200130e565b810181811067ffffffffffffffff82111715620012595762001258620012df565b5b80604052505050565b60006200126f82620011b5565b91507fffffffffffffffffffffffffffffffffffffffffffffffffffffffffffffffff821415620012a557620012a4620012b0565b5b600182019050919050565b7f4e487b7100000000000000000000000000000000000000000000000000000000600052601160045260246000fd5b7f4e487b7100000000000000000000000000000000000000000000000000000000600052604160045260246000fd5b6000601f19601f8301169050919050565b7f496e646963652066756572612064652072616e676f0000000000000000000000600082015250565b6200135381620011b5565b81146200135f57600080fd5b5056fe60806040526000600160006101000a81548160ff02191690831515021790555060006001806101000a81548160ff0219169083151502179055503480156200004657600080fd5b50604051620011ad380380620011ad83398181016040528101906200006c9190620003cd565b82600090805190602001906200008492919062000102565b5060018060006101000a81548160ff0219169083151502179055508160029080519060200190620000b792919062000193565b5080600460006101000a81548173ffffffffffffffffffffffffffffffffffffffff021916908373ffffffffffffffffffffffffffffffffffffffff16021790555050505062000642565b82805462000110906200054d565b90600052602060002090601f01602090048101928262000134576000855562000180565b82601f106200014f57805160ff191683800117855562000180565b8280016001018555821562000180579182015b828111156200017f57825182559160200191906001019062000162565b5b5090506200018f9190620001fa565b5090565b828054828255906000526020600020908101928215620001e7579160200282015b82811115620001e6578251829080519060200190620001d592919062000102565b5091602001919060010190620001b4565b5b509050620001f6919062000219565b5090565b5b8082111562000215576000816000905550600101620001fb565b5090565b5b808211156200023d576000818162000233919062000241565b506001016200021a565b5090565b5080546200024f906200054d565b6000825580601f1062000263575062000284565b601f016020900490600052602060002090810190620002839190620001fa565b5b50565b60006200029e62000298846200047e565b62000455565b90508083825260208201905082856020860282011115620002be57600080fd5b60005b858110156200030d57815167ffffffffffffffff811115620002e257600080fd5b808601620002f18982620003a0565b85526020850194506020840193505050600181019050620002c1565b5050509392505050565b60006200032e6200032884620004ad565b62000455565b9050828152602081018484840111156200034757600080fd5b6200035484828562000517565b509392505050565b6000815190506200036d8162000628565b92915050565b600082601f8301126200038557600080fd5b81516200039784826020860162000287565b91505092915050565b600082601f830112620003b257600080fd5b8151620003c484826020860162000317565b91505092915050565b600080600060608486031215620003e357600080fd5b600084015167ffffffffffffffff811115620003fe57600080fd5b6200040c86828701620003a0565b935050602084015167ffffffffffffffff8111156200042a57600080fd5b620004388682870162000373565b92505060406200044b868287016200035c565b9150509250925092565b60006200046162000474565b90506200046f828262000583565b919050565b6000604051905090565b600067ffffffffffffffff8211156200049c576200049b620005e8565b5b602082029050602081019050919050565b600067ffffffffffffffff821115620004cb57620004ca620005e8565b5b620004d68262000617565b9050602081019050919050565b6000620004f082620004f7565b9050919050565b600073ffffffffffffffffffffffffffffffffffffffff82169050919050565b60005b83811015620005375780820151818401526020810190506200051a565b8381111562000547576000848401525b50505050565b600060028204905060018216806200056657607f821691505b602082108114156200057d576200057c620005b9565b5b50919050565b6200058e8262000617565b810181811067ffffffffffffffff82111715620005b057620005af620005e8565b5b80604052505050565b7f4e487b7100000000000000000000000000000000000000000000000000000000600052602260045260246000fd5b7f4e487b7100000000000000000000000000000000000000000000000000000000600052604160045260246000fd5b6000601f19601f8301169050919050565b6200063381620004e3565b81146200063f57600080fd5b50565b610b5b80620006526000396000f3fe608060405234801561001057600080fd5b50600436106100cf5760003560e01c8063722d22fc1161008c578063b2731f0e11610066578063b2731f0e146101f0578063bc7b35b214610220578063c45a01551461023e578063e685aa481461025c576100cf565b8063722d22fc146101725780638f023f851461019057806391597233146101c0576100cf565b80630da2aef1146100d45780631bfb66d6146100f2578063216068311461011057806347bc22f21461012c5780636657499e1461014a578063688e346714610154575b600080fd5b6100dc610266565b6040516100e991906107c5565b60405180910390f35b6100fa610277565b60405161010791906107c5565b60405180910390f35b61012a6004803603810190610125919061068f565b61028c565b005b610134610355565b6040516101419190610882565b60405180910390f35b610152610362565b005b61015c61040e565b60405161016991906107c5565b60405180910390f35b61017a610421565b60405161018791906107c5565b60405180910390f35b6101aa60048036038101906101a5919061068f565b610438565b6040516101b791906107e0565b60405180910390f35b6101da60048036038101906101d5919061068f565b6104e4565b6040516101e79190610882565b60405180910390f35b61020a6004803603810190610205919061068f565b610501565b6040516102179190610882565b60405180910390f35b610228610519565b60405161023591906107e0565b60405180910390f35b6102466105a7565b60405161025391906107aa565b60405180910390f35b6102646105cd565b005b60018054906101000a900460ff1681565b600060018054906101000a900460ff16905090565b600160009054906101000a900460ff166102db576040517f08c379a00000000000000000000000000000000000000000000000000000000081526004016102d290610802565b60405180910390fd5b60018054906101000a900460ff1615610329576040517f08c379a000000000000000000000000000000000000000000000000000000000815260040161032090610862565b60405180910390fd5b60036000828152602001908152602001600020600081548092919061034d90610966565b919050555050565b6000600280549050905090565b600460009054906101000a900473ffffffffffffffffffffffffffffffffffffffff1673ffffffffffffffffffffffffffffffffffffffff163373ffffffffffffffffffffffffffffffffffffffff16146103f2576040517f08c379a00000000000000000000000000000000000000000000000000000000081526004016103e990610822565b60405180910390fd5b60018060016101000a81548160ff021916908315150217905550565b600160009054906101000a900460ff1681565b6000600160009054906101000a900460ff16905090565b6002818154811061044857600080fd5b90600052602060002001600091509050805461046390610934565b80601f016020809104026020016040519081016040528092919081815260200182805461048f90610934565b80156104dc5780601f106104b1576101008083540402835291602001916104dc565b820191906000526020600020905b8154815290600101906020018083116104bf57829003601f168201915b505050505081565b600060036000838152602001908152602001600020549050919050565b60036020528060005260406000206000915090505481565b6000805461052690610934565b80601f016020809104026020016040519081016040528092919081815260200182805461055290610934565b801561059f5780601f106105745761010080835404028352916020019161059f565b820191906000526020600020905b81548152906001019060200180831161058257829003601f168201915b505050505081565b600460009054906101000a900473ffffffffffffffffffffffffffffffffffffffff1681565b600460009054906101000a900473ffffffffffffffffffffffffffffffffffffffff1673ffffffffffffffffffffffffffffffffffffffff163373ffffffffffffffffffffffffffffffffffffffff161461065d576040517f08c379a000000000000000000000000000000000000000000000000000000000815260040161065490610842565b60405180910390fd5b6000600160006101000a81548160ff021916908315150217905550565b60008135905061068981610b0e565b92915050565b6000602082840312156106a157600080fd5b60006106af8482850161067a565b91505092915050565b6106c1816108b9565b82525050565b6106d0816108cb565b82525050565b60006106e18261089d565b6106eb81856108a8565b93506106fb818560208601610901565b61070481610a0d565b840191505092915050565b600061071c601f836108a8565b915061072782610a1e565b602082019050919050565b600061073f602a836108a8565b915061074a82610a47565b604082019050919050565b6000610762602a836108a8565b915061076d82610a96565b604082019050919050565b6000610785601e836108a8565b915061079082610ae5565b602082019050919050565b6107a4816108f7565b82525050565b60006020820190506107bf60008301846106b8565b92915050565b60006020820190506107da60008301846106c7565b92915050565b600060208201905081810360008301526107fa81846106d6565b905092915050565b6000602082019050818103600083015261081b8161070f565b9050919050565b6000602082019050818103600083015261083b81610732565b9050919050565b6000602082019050818103600083015261085b81610755565b9050919050565b6000602082019050818103600083015261087b81610778565b9050919050565b6000602082019050610897600083018461079b565b92915050565b600081519050919050565b600082825260208201905092915050565b60006108c4826108d7565b9050919050565b60008115159050919050565b600073ffffffffffffffffffffffffffffffffffffffff82169050919050565b6000819050919050565b60005b8381101561091f578082015181840152602081019050610904565b8381111561092e576000848401525b50505050565b6000600282049050600182168061094c57607f821691505b602082108114156109605761095f6109de565b5b50919050565b6000610971826108f7565b91507fffffffffffffffffffffffffffffffffffffffffffffffffffffffffffffffff8214156109a4576109a36109af565b5b600182019050919050565b7f4e487b7100000000000000000000000000000000000000000000000000000000600052601160045260246000fd5b7f4e487b7100000000000000000000000000000000000000000000000000000000600052602260045260246000fd5b6000601f19601f8301169050919050565b7f4573746120766f746163696f6e206861207369646f20656c696d696e61646100600082015250565b7f536f6c6f206c6120666163746f7279207075656465207465726d696e6172206c60008201527f6120766f746163696f6e00000000000000000000000000000000000000000000602082015250565b7f536f6c6f206c6120666163746f727920707565646520656c696d696e6172206c60008201527f6120766f746163696f6e00000000000000000000000000000000000000000000602082015250565b7f4573746120766f746163696f6e2079612068612066696e616c697a61646f0000600082015250565b610b17816108f7565b8114610b2257600080fd5b5056fea264697066735822122083970627e1c3b8adc8f59c3a74671d11d955a31fbbd2511af77e5f159695e7f864736f6c63430008040033a26469706673582212209bc9949751ff745130afb5747c1388e017a18a926378ac29523b96081ed8472664736f6c63430008040033",
  "immutableReferences": {},
  "source": "// SPDX-License-Identifier: MIT\r\npragma solidity ^0.8.4;\r\n\r\nimport \"./Votacion.sol\";\r\n\r\ncontract VotacionFactory {\r\n    // Array para almacenar las direcciones de todas las votaciones\r\n    address[] public votaciones;\r\n    // Array para almacenar las direcciones de todas las votaciones terminadas\r\n    address[] public votacionesTerminadas;\r\n\r\n    // Funcin para crear una nueva votacin\r\n    function crearVotacion(string memory nombre, string[] memory candidatos) public {\r\n        Votacion votacion = new Votacion(nombre, candidatos, address(this));\r\n        votaciones.push(address(votacion));\r\n    }\r\n\r\n    // Funcin para obtener todas las votaciones\r\n    function obtenerVotaciones() public view returns (address[] memory) {\r\n        return votaciones;\r\n    }\r\n\r\n    // Funcin para obtener todas las votaciones terminadas\r\n    function obtenerVotacionesTerminadas() public view returns (address[] memory) {\r\n        return votacionesTerminadas;\r\n    }\r\n\r\n    // Funcin para obtener una votacin por su ndice\r\n    function obtenerVotacion(uint indice) public view returns (Votacion) {\r\n        require(indice < votaciones.length, \"Indice fuera de rango\");\r\n        return Votacion(votaciones[indice]);\r\n    }\r\n\r\n    // Funcin para obtener una votacin terminada por su ndice\r\n    function obtenerVotacionTerminada(uint indice) public view returns (Votacion) {\r\n        require(indice < votacionesTerminadas.length, \"Indice fuera de rango\");\r\n        return Votacion(votacionesTerminadas[indice]);\r\n    }\r\n\r\n    // Funcin para obtener el nmero de votaciones\r\n    function ultimoIndice() public view returns (uint) {\r\n        return votaciones.length;\r\n    }\r\n\r\n    // Funcin para obtener el nmero de votaciones terminadas\r\n    function ultimoIndiceTerminadas() public view returns (uint) {\r\n        return votacionesTerminadas.length;\r\n    }\r\n\r\n    // Funcin para terminar una votacin\r\n    function terminarVotacion(uint indice) public {\r\n        Votacion votacion = obtenerVotacion(indice);\r\n        votacion.terminarVotacion();\r\n        // Mueve la votacin terminada al array de votacionesTerminadas\r\n        votacionesTerminadas.push(address(votacion));\r\n        // Mueve todas las votaciones despus de la votacin terminada una posicin hacia atrs\r\n        for (uint i = indice; i < votaciones.length - 1; i++) {\r\n            votaciones[i] = votaciones[i + 1];\r\n        }\r\n        // Elimina la ltima votacin del array\r\n        votaciones.pop();\r\n    }\r\n\r\n    // Funcin para eliminar una votacin\r\n    function eliminarVotacion(uint indice) public {\r\n        Votacion votacion = obtenerVotacion(indice);\r\n        votacion.eliminar();\r\n        // Mueve todas las votaciones despus de la votacin eliminada una posicin hacia atrs\r\n        for (uint i = indice; i < votaciones.length - 1; i++) {\r\n            votaciones[i] = votaciones[i + 1];\r\n        }\r\n        // Elimina la ltima votacin del array\r\n        votaciones.pop();\r\n    }\r\n}\r\n",
  "sourcePath": "C:\\Users\\benja\\Desktop\\votacion\\src\\contracts\\VotacionFactory.sol",
  "compiler": {
    "name": "solc",
    "version": "0.8.4+commit.c7e474f2.Emscripten.clang"
  },
  "schemaVersion": "3.4.7",
  "updatedAt": "2023-11-24T14:27:41.907Z",
  "networkType": "ethereum",
  "devdoc": {
    "kind": "dev",
    "methods": {},
    "version": 1
  },
  "userdoc": {
    "kind": "user",
    "methods": {},
    "version": 1
  }
}