{
  "contractName": "Votacion",
  "abi": [
    {
      "inputs": [
        {
          "internalType": "string",
          "name": "_nombre",
          "type": "string"
        },
        {
          "internalType": "string[]",
          "name": "_candidatos",
          "type": "string[]"
        },
        {
          "internalType": "address",
          "name": "_factory",
          "type": "address"
        }
      ],
      "stateMutability": "nonpayable",
      "type": "constructor"
    },
    {
      "inputs": [
        {
          "internalType": "uint256",
          "name": "",
          "type": "uint256"
        }
      ],
      "name": "candidatos",
      "outputs": [
        {
          "internalType": "string",
          "name": "",
          "type": "string"
        }
      ],
      "stateMutability": "view",
      "type": "function"
    },
    {
      "inputs": [],
      "name": "estado",
      "outputs": [
        {
          "internalType": "bool",
          "name": "",
          "type": "bool"
        }
      ],
      "stateMutability": "view",
      "type": "function"
    },
    {
      "inputs": [],
      "name": "factory",
      "outputs": [
        {
          "internalType": "address",
          "name": "",
          "type": "address"
        }
      ],
      "stateMutability": "view",
      "type": "function"
    },
    {
      "inputs": [],
      "name": "nombre",
      "outputs": [
        {
          "internalType": "string",
          "name": "",
          "type": "string"
        }
      ],
      "stateMutability": "view",
      "type": "function"
    },
    {
      "inputs": [],
      "name": "terminada",
      "outputs": [
        {
          "internalType": "bool",
          "name": "",
          "type": "bool"
        }
      ],
      "stateMutability": "view",
      "type": "function"
    },
    {
      "inputs": [
        {
          "internalType": "uint256",
          "name": "",
          "type": "uint256"
        }
      ],
      "name": "votos",
      "outputs": [
        {
          "internalType": "uint256",
          "name": "",
          "type": "uint256"
        }
      ],
      "stateMutability": "view",
      "type": "function"
    },
    {
      "inputs": [],
      "name": "eliminar",
      "outputs": [],
      "stateMutability": "nonpayable",
      "type": "function"
    },
    {
      "inputs": [],
      "name": "terminarVotacion",
      "outputs": [],
      "stateMutability": "nonpayable",
      "type": "function"
    },
    {
      "inputs": [],
      "name": "obtenerNombre",
      "outputs": [
        {
          "internalType": "string",
          "name": "",
          "type": "string"
        }
      ],
      "stateMutability": "view",
      "type": "function"
    },
    {
      "inputs": [
        {
          "internalType": "uint256",
          "name": "candidato",
          "type": "uint256"
        }
      ],
      "name": "votar",
      "outputs": [],
      "stateMutability": "nonpayable",
      "type": "function"
    },
    {
      "inputs": [
        {
          "internalType": "uint256",
          "name": "candidato",
          "type": "uint256"
        }
      ],
      "name": "obtenerVotos",
      "outputs": [
        {
          "internalType": "uint256",
          "name": "",
          "type": "uint256"
        }
      ],
      "stateMutability": "view",
      "type": "function"
    },
    {
      "inputs": [],
      "name": "obtenerEstado",
      "outputs": [
        {
          "internalType": "bool",
          "name": "",
          "type": "bool"
        }
      ],
      "stateMutability": "view",
      "type": "function"
    },
    {
      "inputs": [],
      "name": "obtenerTerminada",
      "outputs": [
        {
          "internalType": "bool",
          "name": "",
          "type": "bool"
        }
      ],
      "stateMutability": "view",
      "type": "function"
    },
    {
      "inputs": [],
      "name": "obtenerNumCandidatos",
      "outputs": [
        {
          "internalType": "uint256",
          "name": "",
          "type": "uint256"
        }
      ],
      "stateMutability": "view",
      "type": "function"
    }
  ],
  "bytecode": "0x60806040526000600160006101000a81548160ff02191690831515021790555060006001806101000a81548160ff0219169083151502179055503480156200004657600080fd5b50604051620012783803806200127883398181016040528101906200006c9190620003cd565b82600090805190602001906200008492919062000102565b5060018060006101000a81548160ff0219169083151502179055508160029080519060200190620000b792919062000193565b5080600460006101000a81548173ffffffffffffffffffffffffffffffffffffffff021916908373ffffffffffffffffffffffffffffffffffffffff16021790555050505062000642565b82805462000110906200054d565b90600052602060002090601f01602090048101928262000134576000855562000180565b82601f106200014f57805160ff191683800117855562000180565b8280016001018555821562000180579182015b828111156200017f57825182559160200191906001019062000162565b5b5090506200018f9190620001fa565b5090565b828054828255906000526020600020908101928215620001e7579160200282015b82811115620001e6578251829080519060200190620001d592919062000102565b5091602001919060010190620001b4565b5b509050620001f6919062000219565b5090565b5b8082111562000215576000816000905550600101620001fb565b5090565b5b808211156200023d576000818162000233919062000241565b506001016200021a565b5090565b5080546200024f906200054d565b6000825580601f1062000263575062000284565b601f016020900490600052602060002090810190620002839190620001fa565b5b50565b60006200029e62000298846200047e565b62000455565b90508083825260208201905082856020860282011115620002be57600080fd5b60005b858110156200030d57815167ffffffffffffffff811115620002e257600080fd5b808601620002f18982620003a0565b85526020850194506020840193505050600181019050620002c1565b5050509392505050565b60006200032e6200032884620004ad565b62000455565b9050828152602081018484840111156200034757600080fd5b6200035484828562000517565b509392505050565b6000815190506200036d8162000628565b92915050565b600082601f8301126200038557600080fd5b81516200039784826020860162000287565b91505092915050565b600082601f830112620003b257600080fd5b8151620003c484826020860162000317565b91505092915050565b600080600060608486031215620003e357600080fd5b600084015167ffffffffffffffff811115620003fe57600080fd5b6200040c86828701620003a0565b935050602084015167ffffffffffffffff8111156200042a57600080fd5b620004388682870162000373565b92505060406200044b868287016200035c565b9150509250925092565b60006200046162000474565b90506200046f828262000583565b919050565b6000604051905090565b600067ffffffffffffffff8211156200049c576200049b620005e8565b5b602082029050602081019050919050565b600067ffffffffffffffff821115620004cb57620004ca620005e8565b5b620004d68262000617565b9050602081019050919050565b6000620004f082620004f7565b9050919050565b600073ffffffffffffffffffffffffffffffffffffffff82169050919050565b60005b83811015620005375780820151818401526020810190506200051a565b8381111562000547576000848401525b50505050565b600060028204905060018216806200056657607f821691505b602082108114156200057d576200057c620005b9565b5b50919050565b6200058e8262000617565b810181811067ffffffffffffffff82111715620005b057620005af620005e8565b5b80604052505050565b7f4e487b7100000000000000000000000000000000000000000000000000000000600052602260045260246000fd5b7f4e487b7100000000000000000000000000000000000000000000000000000000600052604160045260246000fd5b6000601f19601f8301169050919050565b6200063381620004e3565b81146200063f57600080fd5b50565b610c2680620006526000396000f3fe608060405234801561001057600080fd5b50600436106100ea5760003560e01c80637f49d8551161008c578063b2731f0e11610066578063b2731f0e14610229578063bc7b35b214610259578063c45a015514610277578063e685aa4814610295576100ea565b80637f49d855146101ab5780638f023f85146101c957806391597233146101f9576100ea565b806347bc22f2116100c857806347bc22f2146101475780636657499e14610165578063688e34671461016f578063722d22fc1461018d576100ea565b80630da2aef1146100ef5780631bfb66d61461010d578063216068311461012b575b600080fd5b6100f761029f565b6040516101049190610890565b60405180910390f35b6101156102b0565b6040516101229190610890565b60405180910390f35b6101456004803603810190610140919061075a565b6102c5565b005b61014f61038e565b60405161015c919061094d565b60405180910390f35b61016d61039b565b005b610177610447565b6040516101849190610890565b60405180910390f35b61019561045a565b6040516101a29190610890565b60405180910390f35b6101b3610471565b6040516101c091906108ab565b60405180910390f35b6101e360048036038101906101de919061075a565b610503565b6040516101f091906108ab565b60405180910390f35b610213600480360381019061020e919061075a565b6105af565b604051610220919061094d565b60405180910390f35b610243600480360381019061023e919061075a565b6105cc565b604051610250919061094d565b60405180910390f35b6102616105e4565b60405161026e91906108ab565b60405180910390f35b61027f610672565b60405161028c9190610875565b60405180910390f35b61029d610698565b005b60018054906101000a900460ff1681565b600060018054906101000a900460ff16905090565b600160009054906101000a900460ff16610314576040517f08c379a000000000000000000000000000000000000000000000000000000000815260040161030b906108cd565b60405180910390fd5b60018054906101000a900460ff1615610362576040517f08c379a00000000000000000000000000000000000000000000000000000000081526004016103599061092d565b60405180910390fd5b60036000828152602001908152602001600020600081548092919061038690610a31565b919050555050565b6000600280549050905090565b600460009054906101000a900473ffffffffffffffffffffffffffffffffffffffff1673ffffffffffffffffffffffffffffffffffffffff163373ffffffffffffffffffffffffffffffffffffffff161461042b576040517f08c379a0000000000000000000000000000000000000000000000000000000008152600401610422906108ed565b60405180910390fd5b60018060016101000a81548160ff021916908315150217905550565b600160009054906101000a900460ff1681565b6000600160009054906101000a900460ff16905090565b606060008054610480906109ff565b80601f01602080910402602001604051908101604052809291908181526020018280546104ac906109ff565b80156104f95780601f106104ce576101008083540402835291602001916104f9565b820191906000526020600020905b8154815290600101906020018083116104dc57829003601f168201915b5050505050905090565b6002818154811061051357600080fd5b90600052602060002001600091509050805461052e906109ff565b80601f016020809104026020016040519081016040528092919081815260200182805461055a906109ff565b80156105a75780601f1061057c576101008083540402835291602001916105a7565b820191906000526020600020905b81548152906001019060200180831161058a57829003601f168201915b505050505081565b600060036000838152602001908152602001600020549050919050565b60036020528060005260406000206000915090505481565b600080546105f1906109ff565b80601f016020809104026020016040519081016040528092919081815260200182805461061d906109ff565b801561066a5780601f1061063f5761010080835404028352916020019161066a565b820191906000526020600020905b81548152906001019060200180831161064d57829003601f168201915b505050505081565b600460009054906101000a900473ffffffffffffffffffffffffffffffffffffffff1681565b600460009054906101000a900473ffffffffffffffffffffffffffffffffffffffff1673ffffffffffffffffffffffffffffffffffffffff163373ffffffffffffffffffffffffffffffffffffffff1614610728576040517f08c379a000000000000000000000000000000000000000000000000000000000815260040161071f9061090d565b60405180910390fd5b6000600160006101000a81548160ff021916908315150217905550565b60008135905061075481610bd9565b92915050565b60006020828403121561076c57600080fd5b600061077a84828501610745565b91505092915050565b61078c81610984565b82525050565b61079b81610996565b82525050565b60006107ac82610968565b6107b68185610973565b93506107c68185602086016109cc565b6107cf81610ad8565b840191505092915050565b60006107e7601f83610973565b91506107f282610ae9565b602082019050919050565b600061080a602a83610973565b915061081582610b12565b604082019050919050565b600061082d602a83610973565b915061083882610b61565b604082019050919050565b6000610850601e83610973565b915061085b82610bb0565b602082019050919050565b61086f816109c2565b82525050565b600060208201905061088a6000830184610783565b92915050565b60006020820190506108a56000830184610792565b92915050565b600060208201905081810360008301526108c581846107a1565b905092915050565b600060208201905081810360008301526108e6816107da565b9050919050565b60006020820190508181036000830152610906816107fd565b9050919050565b6000602082019050818103600083015261092681610820565b9050919050565b6000602082019050818103600083015261094681610843565b9050919050565b60006020820190506109626000830184610866565b92915050565b600081519050919050565b600082825260208201905092915050565b600061098f826109a2565b9050919050565b60008115159050919050565b600073ffffffffffffffffffffffffffffffffffffffff82169050919050565b6000819050919050565b60005b838110156109ea5780820151818401526020810190506109cf565b838111156109f9576000848401525b50505050565b60006002820490506001821680610a1757607f821691505b60208210811415610a2b57610a2a610aa9565b5b50919050565b6000610a3c826109c2565b91507fffffffffffffffffffffffffffffffffffffffffffffffffffffffffffffffff821415610a6f57610a6e610a7a565b5b600182019050919050565b7f4e487b7100000000000000000000000000000000000000000000000000000000600052601160045260246000fd5b7f4e487b7100000000000000000000000000000000000000000000000000000000600052602260045260246000fd5b6000601f19601f8301169050919050565b7f4573746120766f746163696f6e206861207369646f20656c696d696e61646100600082015250565b7f536f6c6f206c6120666163746f7279207075656465207465726d696e6172206c60008201527f6120766f746163696f6e00000000000000000000000000000000000000000000602082015250565b7f536f6c6f206c6120666163746f727920707565646520656c696d696e6172206c60008201527f6120766f746163696f6e00000000000000000000000000000000000000000000602082015250565b7f4573746120766f746163696f6e2079612068612066696e616c697a61646f0000600082015250565b610be2816109c2565b8114610bed57600080fd5b5056fea2646970667358221220129b5ec6cad7c4991316daa5cb90764c554cb6fa18279db30eebfbefd25891a464736f6c63430008040033",
  "immutableReferences": {},
  "source": "// SPDX-License-Identifier: MIT\r\npragma solidity ^0.8.4;\r\n\r\ncontract Votacion {\r\n    // Nombre de la votacin\r\n    string public nombre;\r\n    // Estado de la votacin (en terminos de eliminacion)\r\n    bool public estado = false;\r\n    // Estado de la votacin (en trminos de si acab o no)\r\n    bool public terminada = false;\r\n    // Los candidatos de la votacin\r\n    string[] public candidatos;\r\n    // Mapeo de candidato a votos\r\n    mapping(uint => uint) public votos;\r\n\r\n    // Direccin del creador de la votacin\r\n    address public factory;\r\n\r\n    // Constructor que recibe el nombre y los candidatos\r\n    constructor(string memory _nombre, string[] memory _candidatos, address _factory) {\r\n        nombre = _nombre;\r\n        estado = true;\r\n        candidatos = _candidatos;\r\n        factory = _factory; // Almacena la direccin de la factory\r\n    }\r\n\r\n    // Funcin para eliminar la votacin\r\n    function eliminar() public {\r\n        require(msg.sender == factory, \"Solo la factory puede eliminar la votacion\");\r\n        estado = false;\r\n    }\r\n\r\n    // Funcin para terminar la votacin\r\n    function terminarVotacion() public {\r\n        require(msg.sender == factory, \"Solo la factory puede terminar la votacion\");\r\n        terminada = true;\r\n    }\r\n\r\n    // Funcin para obtener el nombre de la votacin\r\n    function obtenerNombre() public view returns (string memory) {\r\n        return nombre;\r\n    }\r\n\r\n    // Funcin para votar\r\n    function votar(uint candidato) public {\r\n        require(estado, \"Esta votacion ha sido eliminada\");\r\n        require(!terminada, \"Esta votacion ya ha finalizado\");\r\n        votos[candidato]++;\r\n    }\r\n\r\n    // Funcin para obtener el conteo de votos de un candidato\r\n    function obtenerVotos(uint candidato) public view returns (uint) {\r\n        return votos[candidato];\r\n    }\r\n\r\n    // Funcin para obtener el estado de la votacin\r\n    function obtenerEstado() public view returns (bool) {\r\n        return estado;\r\n    }\r\n\r\n    // Funcin para ver si ha sido terminada la votacin\r\n    function obtenerTerminada() public view returns (bool) {\r\n        return terminada;\r\n    }\r\n\r\n    // Funcin para obtener el nmero de candidatos\r\n    function obtenerNumCandidatos() public view returns (uint) {\r\n        return candidatos.length;\r\n    }\r\n}\r\n",
  "sourcePath": "C:\\Users\\benja\\Desktop\\votacion\\src\\contracts\\Votacion.sol",
  "compiler": {
    "name": "solc",
    "version": "0.8.4+commit.c7e474f2.Emscripten.clang"
  },
  "schemaVersion": "3.4.7",
  "updatedAt": "2023-11-30T12:11:28.230Z",
  "devdoc": {
    "kind": "dev",
    "methods": {},
    "version": 1
  },
  "userdoc": {
    "kind": "user",
    "methods": {},
    "version": 1
  }
}